:100000000C9406410C9437410C9437410C943741C1
:100010000C9437410C9437410C9437410C94374180
:100020000C9437410C9437410C9437410C94374170
:100030000C9437410C9437410C9437410C94374160
:100040000C9437410C9489BE0C9437410C94374181
:100050000C9437410C9437410D9444A20D94AA8519
:100060000C9437410D94BC270D94B2270C94374162
:100070000C9437410C9437410C9437410C94374120
:100080000D947D200C9437410C9437410C943741EA
:100090000C9437410C9437410C9437410C94374100
:1000A0000C9437410C9437410D9450200C943741F7
:1000B0000C9437410C9437410C9437410D94232014
:1000C0000C9437410C9437410C9437410C943741D0
:1000D0000C9437410C9437410C9437410C943741C0
:1000E0000C9437417C808380FE80C38116832183FA
:1000F0003183509C6F9C8E9CB19CD49C739EF79CCA
:10010000189D399D5C9D7F9DA29DC59DE89D739E18
:100110000B9E2E9E509E4DAA50AA54AA57AA5AAA88
:1001200083AA5EAA61AA65AA68AA6BAA6FAA72AA24
:1001300075AA83AA79AA7CAA7FAA22BE25BE08BE78
:100140000BBE0EBE11BE1DBE14BE2FBE17BE1ABE04
:10015000510241021702BB01FD0153027D0153020E
:10016000A501A3015302E50127025D0213021F024C
:10017000EF014F028D01370231029301E901830142
:100180009B010D027B01FB01E7010302F7018B01DB
:10019000A701F1010D022902F901490263022102BE
:1001A0003F02CF01B301D9014302C701C3013502A8
:1001B000AB01F501CD011902D901B70167028F0129
:1001C0008501890145022502450245024502450295
:1001D00045024502450245024502450245024502E7
:1001E00045024502450245024502450245024502D7
:1001F000450245024502450245024502910145027C
:100200004502450245024502450245024502AD014F
:1002100045024502450245024502450245024502A6
:10022000450245021102DD01084AD73B3BCE016E73
:1002300084BCBFFDC12F3D6C74319ABD56833DDA3D
:100240003D00C77F11BED9E4BB4C3E916BAAAABE4C
:10025000000000803F05A84CCDB2D44EB93836A975
:10026000020C50B9918688083CA6AAAA2ABE0000B2
:1002700000803F07634236B79BD8A71A39685618E3
:10028000AEBAAB558C1D3CB7CC5763BD6DEDFD755B
:100290003EF6177231BF000000803F08000000BE2C
:1002A000922449123EABAAAA2ABECDCCCC4C3E0029
:1002B000000080BEABAAAAAA3E00000000BF00005A
:1002C00000803F0000000000084178D3BB4387D185
:1002D000133D190E3CC3BD4282AD2B3E68EC8276C5
:1002E000BED98FE1A93E4C80EFFFBE01C4FF7F3F26
:1002F0000000000000000D9423AD0D941D280D9406
:1003000015160D94826F0D9412AD0D9455B50D9484
:100310001F300D94C4B30D943BAD0D94DBA50D942B
:10032000CAB20D948BB50D941FAD0D943B6D0D9419
:100330008C280D94FFB90D9418AD0D94702B0D946D
:100340000D300D9440B30D9425280D9421280D9463
:100350003FAD0D94A57B0D9489B20D9464B50D94B9
:100360007A850D940B7B0D945BB20D940C740D94F7
:10037000B6B20D94017B0D9411280D94341B0D948D
:10038000842E0D948DC00D9475B20D94862E0D940F
:100390006DB20D9428790D9486710D94A2B20D94CE
:1003A00051B20D947B300D94067B0D941A7B0D9405
:1003B0007D150D94D4B20D9423790D94FAB30D9458
:1003C000C4720D9402740D94157B0D942B280D941A
:1003D0002DAD0D940EAD0D94B41B0D9407740D94BA
:1003E000FAA50D9443AD0D94D4890D9493B20D9458
:1003F00035AD0D944DAD0D9427AD0D9419280D9488
:1004000054B30D94C16C0D9431AD0D94BD6C0D942D
:100410002D790D94AD180D9450850D9456AD0D9415
:100420009F7B0D94A8B50D94C3A50D94882E0D94B3
:1004300006280D94ACB20D94CB7B0D94B0140D94A2
:10044000EEA50D9442B20D94107B0D9491B50D94D0
:10045000F6A40D9449AD0D94CC4A0D94CB1A0D948D
:10046000A17B0D941CAD0D94F56C0D947FB20D9491
:10047000E6A40D94186D0D944EB30D940E290D94B1
:1004800047B20D94F5270D9465B20D94FDB30D940C
:100490006D770D9451AD0D9468770D9451B30D9413
:1004A000D6A50D94EF270D942E280D9472770D94F8
:1004B000A37B0D947A300D9463770D94BEA50D94B3
:1004C0007E300D9424160D943DB20D9497750D94C5
:1004D000C0B24E414E494E495459494E46CDCCCCFE
:1004E0003D0AD7233C17B7D13877CC2B329595E608
:1004F000241FB14F0A000020410000C84200401CE8
:100500004620BCBE4CCA1B0E5AAEC59D7400407A34
:1005100010F35A00A0724E18090010A5D4E800008C
:10052000E87648170000E40B54020000CA9A3B002A
:100530000000E1F505000080969800000040420FA1
:10054000000000A08601000000102700000000E865
:1005500003000000006400000000000A000000002A
:10056000000100000000002C76D888DC674F0823CB
:10057000DFC1DFAE59E1B1B796E5E3E453C63AE631
:1005800051997696E8E6C28426EB898C9B62ED4011
:100590007C6FFCEFBC9C9F40F2BAA56FA5F4900560
:1005A0005A2AF75C936B6CF9676DC11BFCE0E40D94
:1005B00047FEF520E6B500D0ED902E030094357788
:1005C000050080841E080000204E0A000000C80CB0
:1005D000333333330F986E12831141EF8D21148919
:1005E0003BE65516CFFEE6DB18D1844B381BF77C73
:1005F0001D901DA4BBE424203284725E228100C9B8
:10060000F124ECA1E53D27434F4D4D554E49434163
:1006100054494F4E0044525952554E004552524F84
:10062000525300494E464F004543484F0047322F32
:1006300047332062616420706172616D6574657218
:10064000730A00536C6565702E2E2E00205A3A20D6
:100650000020593A200042656420583A20004D6538
:10066000736820706F696E742063616E6E6F7420A2
:100670006265207265736F6C7665640A00436C690D
:10068000636B20746F20726573756D652E2E2E005E
:100690004E6F206D6F76652E00456E642066696C26
:1006A00065206C6973740A00426567696E2066692B
:1006B0006C65206C6973740A002F2F616374696F15
:1006C0006E3A726573756D650A00286E6F206669F3
:1006D0006C65290043757272656E742066696C657D
:1006E0003A200044656C6574696F6E206661696CC0
:1006F00065642C2046696C653A200046696C65206B
:1007000064656C657465643A005072696E74207437
:10071000696D653A20004F66660A004F6E0A004711
:1007200032362044656275673A20006F666600289D
:100730000623061C061506070644454255473A009F
:100740004D31313320530042656420636F6F6C6913
:100750006E672E2E2E004265642068656174696E96
:10076000672E2E2E006F6B00542D524558203320DB
:100770004F46462E004D4F54494F4E5F4D4F444516
:100780005300544845524D414C5F50524F544543DD
:1007900054494F4E004155544F5245504F52545FAB
:1007A00053445F53544154555300454D45524745BA
:1007B0004E43595F50415253455200434153455FA8
:1007C0004C494748545F4252494748544E45535359
:1007D00000544F47474C455F4C49474854530053DA
:1007E0004F4654574152455F504F5745520042556E
:1007F000494C445F50455243454E54004C45564584
:100800004C494E475F44415441005A5F50524F4259
:1008100045004155544F4C4556454C005052494EA9
:10082000545F4A4F420050524F4752455353004184
:1008300055544F5245504F52545F54454D500056F9
:100840004F4C554D455452494300454550524F4D2C
:100850000053455249414C5F584F4E5F584F4646F2
:10086000004649524D574152455F4E414D453A4D24
:1008700061726C696E20547265785F322E302E780A
:100880005F312E32205669766564696E6F20534F52
:10089000555243455F434F44455F55524C3A687447
:1008A0007470733A2F2F6769746875622E636F6D69
:1008B0002F4D61726C696E4669726D776172652F3A
:1008C0004D61726C696E2050524F544F434F4C5FD4
:1008D00056455253494F4E3A312E30204D414348F0
:1008E000494E455F545950453A542D52455820338E
:1008F0002045585452554445525F434F554E543A43
:100900003220555549443A63656465326132662D3B
:10091000343161322D343734382D396231322D6320
:1009200035356336326633363766660A002F2F2038
:10093000004D31343520533C696E6465783E206F3C
:100940007574206F662072616E67652028302D31C6
:10095000290A003F4A206F7574206F662072616E0D
:1009600067652028302E303120746F20302E3329D7
:100970000A0020466C6F773A200050726F746563EE
:100980007465642050696E0A00206F7574206F666C
:100990002072616E67650A00536572766F20003AB7
:1009A000200020536572766F2000496E76616C6975
:1009B000642065787472756465720A0020643A0078
:1009C00020693A0020703A0020653A0043290A0065
:1009D00061626C656420286D696E2074656D70209D
:1009E00000436F6C64206578747275646573206170
:1009F000726520004F4646004F4E0046696C616D9F
:100A0000656E742072756E6F757420004D65736825
:100A100020706F696E742063616E6E6F7420626502
:100A2000207265736F6C7665640A004D3432312034
:100A3000696E636F727265637420706172616D6557
:100A40007465722075736167650A004F6666736529
:100A50007473206170706C696564004572723A202D
:100A6000546F6F206661722100546F6F206661724F
:100A70002066726F6D207265666572656E636520B3
:100A8000706F696E740A00454550524F4D204F4BB0
:100A90000A003F5A206F7574206F662072616E677E
:100AA0006520282D323020746F203230290A005002
:100AB000726F6265205A204F66667365743A200033
:100AC00043617365206C696768743A206F6E0A0031
:100AD00043617365206C696768743A206F66660AC3
:100AE00000486F74656E6420746F6F20636F6C6470
:100AF0000A00507265737320627574746F6E2028DB
:100B00006F72204D3130382920746F2072657375F3
:100B10006D650A00496E736572742066696C616D5B
:100B2000656E7420616E64207072657373206275E7
:100B300074746F6E20286F72204D313038290A008E
:100B4000507265737320627574746F6E20286F72B3
:100B5000204D3130382920746F2068656174206E13
:100B60006F7A7A6C650A004D3630303A20546F6FD8
:100B700020636F6C6400486F74656E6420746F6FDF
:100B800020636F6C640A002F2F616374696F6E3A83
:100B900070617573650A002F2F616374696F6E3A17
:100BA000726573756D650A00696E206D6F76655F9D
:100BB000746F282920666565645F76616C756520B1
:100BC000666F722058593A00473236204865617482
:100BD000696E67204E6F7A7A6C652E004732362038
:100BE00048656174696E67204265642E00576169CB
:100BF00074696E6720666F72206865617475702E07
:100C00000A00446F6E65205072696D696E67005509
:100C10007365722D436F6E74726F6C6C65642050D7
:100C200072696D65004669786564204C656E67740D
:100C300068205072696D652E004D6573682056619D
:100C40006C69646174696F6E2053746F7070656451
:100C50002E002C2065793D0029202D3E2028657826
:100C60003D002C2073793D0020436F6E6E656374E8
:100C7000696E67207769746820766572746963614C
:100C80006C206C696E65202873783D002C20657996
:100C90003D0029202D3E202865783D002C207379C9
:100CA0003D0020436F6E6E656374696E67207769DF
:100CB000746820686F72697A6F6E74616C206C69F9
:100CC0006E65202873783D004C656176696E6720FB
:100CD000473236002C20657A3D002C2065793D0096
:100CE00029202D3E202865783D002C206C656E3D26
:100CF000002C20657A3D002C2065793D0020706C29
:100D0000616E5F6172632865783D003F5370656373
:100D1000696669656420582C5920636F6F72646935
:100D20006E617465206F7574206F6620626F756EDA
:100D300064732E0A003F285229657065617420761D
:100D4000616C7565206E6F7420706C61757369627B
:100D50006C653B206D757374206265206174206C36
:100D60006561737420312E0A003F537065636966B4
:100D7000696564206E6F7A7A6C652074656D706544
:100D8000726174757265206E6F7420706C6175731A
:100D900069626C652E0A003F537065636966696518
:100DA000642066696C616D656E742073697A652074
:100DB0006E6F7420706C61757369626C652E0A00C9
:100DC0003F537065636966696564207072696D651B
:100DD000206C656E677468206E6F7420706C61752E
:100DE0007369626C652E0A003F53706563696669BA
:100DF0006564206E6F7A7A6C652073697A65206EFF
:100E00006F7420706C61757369626C652E0A003FA7
:100E100052657472616374696F6E204D756C74698C
:100E2000706C696572206D757374206265207370D3
:100E3000656369666965642E0A003F53706563697E
:100E4000666965642052657472616374696F6E20AF
:100E50004D756C7469706C696572206E6F7420706A
:100E60006C61757369626C652E0A003F537065632F
:100E70006966696564206C61796572206865696777
:100E80006874206E6F7420706C61757369626C6534
:100E90002E0A003F53706563696669656420626568
:100EA000642074656D7065726174757265206E6F13
:100EB0007420706C61757369626C65202834302D04
:100EC00031343043292E0A00473236207374617260
:100ED00074696E672E2E2E0A00204A0020204D34A1
:100EE00032312049002020473239204939390A005F
:100EF0006163746976652E0A00696E002053797308
:100F000074656D2076312E303120002020207C0A3F
:100F1000004E414E0020202E20202000207C004C3E
:100F200043443A0A004353563A0A0020666F72203F
:100F3000003A0A0A000A42656420546F706F6772B3
:100F400061706879205265706F727400446F6E65CD
:100F50002E0A003F557365203020746F20003F49F2
:100F60006E76616C69642073746F7261676520735B
:100F70006C6F742E0A003F454550524F4D207374DC
:100F80006F72616765206E6F7420617661696C6154
:100F9000626C652E0A00446F6E652E0A003F557321
:100FA00065203020746F20003F496E76616C696463
:100FB0002073746F7261676520736C6F742E0A0002
:100FC0003F454550524F4D2073746F7261676520E5
:100FD0006E6F7420617661696C61626C652E0A00C7
:100FE0004732392050322066696E69736865642E15
:100FF0000A005859206F75747369646520707269AE
:101000006E7461626C65207261646975732E0A008A
:101010003F4572726F7220696E20427573696E650A
:1010200073732043617264206D6561737572656DC1
:10103000656E742E0A004D616E75616C6C7920705E
:10104000726F62696E6720756E7265616368616256
:101050006C65206D657368206C6F636174696F6E79
:10106000732E0A00292E0A0A0050726F62696E6799
:10107000204D65736820506F696E747320436C6FE8
:101080007365737420746F2028004D657368206940
:101090006E76616C6964617465642E2050726F6253
:1010A000696E67206D6573682E0A004D6573682050
:1010B0007A65726F65642E0A0044656661756C74AA
:1010C0002073746F7261676520736C6F74203020B9
:1010D00073656C65637465642E0A004C6F616469A6
:1010E0006E6720746573745F7061747465726E20CE
:1010F00076616C7565732E0A0A00496E76616C69BB
:101100006420746573745F7061747465726E2076A8
:10111000616C75652E20282D3120746F2032290ACC
:101120000A004C6F636174696F6E7320696E76613B
:101130006C6964617465642E0A0A00456E74697294
:1011400065204D65736820696E76616C69646174B1
:1011500065642E0A0A0023206F662073616D706C2F
:1011600065733A20000A4D657368206F6E6C7920B4
:101170007061727469616C6C7920706F70756C61EC
:101180007465642E0A0A0020616E642074616B65C8
:101190002061206D6561737572656D656E742E0AD0
:1011A000006D6D20746869636B2E0A0052656D6F67
:1011B00076652026206D65617375726520626564B1
:1011C0000052656D6F7665207368696D00506C61C3
:1011D0006365207368696D2026206D656173757283
:1011E0006500506C616365207368696D20756E647D
:1011F0006572206E6F7A7A6C65000A00000B010040
:1012000009000B01000B0A0000000B0009000A4D49
:10121000657368206F6E6C79207061727469616C9F
:101220006C7920706F70756C617465642E0A004D66
:1012300065617375726500506C61636520736869E0
:101240006D2026206D656173757265004D6F76693E
:101250006E6720746F206E657874004D657368202A
:1012600045646974696E672053746F7070656400BB
:10127000446F6E652045646974696E67204D6573BF
:10128000680A00446F6E652045646974696E672062
:101290004D6573680046696E652054756E696E67AA
:1012A000204D6573680028582C5929206F75747378
:1012B000696465207072696E7461626C6520726128
:1012C000646975732E0A004F6666736574206F75C6
:1012D00074206F6620626F756E64732E2028302034
:1012E000746F2031306D6D290A0A00496E76616C89
:1012F0006964206D617020747970652E0A0A003F60
:101300002846296164652068656967687420666F8E
:101310007220426564204C6576656C20436F727262
:10132000656374696F6E206E6F7420706C61757385
:1013300069626C652E0A0A003F43616E2774206162
:101340006374697661746520616E642064656163AD
:1013500074697661746520617420746865207361B6
:101360006D652074696D652E0A0A00426F746820ED
:101370005820262059206C6F636174696F6E73204A
:101380006D75737420626520737065636966696545
:10139000642E0A0A003F496E76616C6964206772A8
:1013A00069642073697A6520284A2920737065630F
:1013B00069666965642028322D39292E0A0A003FA2
:1013C000285029686173652076616C756520696EA7
:1013D00076616C69642028302D36292E0A0A003F78
:1013E0002856296572626F7365206C6576656C207E
:1013F000697320696D706C61757369626C65202812
:10140000302D34292E0A0A003F2852296570657450
:101410006974696F6E20636F756E7420696E766192
:101420006C69642028312B292E0A0A00446F696EEA
:1014300067204732390009120412FF11FA115D0AC0
:1014400000436F756C64206E6F7420636F6D706CF9
:10145000657465204C53462100436F727265637456
:1014600065645F5A3D003F4572726F722070726F03
:1014700062696E6720706F696E742E202041626F02
:101480007274696E67206F7065726174696F6E2E19
:101490000A00436F727265637465645F5A3D00436E
:1014A0006F727265637465645F5A3D00436F727258
:1014B00065637465645F5A3D00646F6E650A004938
:1014C0006E73756666696369656E742064617461C4
:1014D0000A004578747261706F6C6174696E672080
:1014E0006D6573682E2E2E005A5F535445505F5021
:1014F000494E005A5F4D494E5F50494E005A5F4574
:101500004E41424C455F50494E005A5F4449525F3C
:1015100050494E005A5F43535F50494E00595F5344
:101520005445505F50494E00595F4D41585F5049F6
:101530004E00595F454E41424C455F50494E00595F
:101540005F4449525F50494E00595F43535F5049D1
:101550004E0058325F535445505F50494E00583248
:101560005F454E41424C455F50494E0058325F4402
:1015700049525F50494E00585F535445505F50499F
:101580004E00585F4D494E5F50494E00585F4D41E7
:10159000585F50494E00585F454E41424C455F50A0
:1015A000494E00585F4449525F50494E00585F43CE
:1015B000535F50494E0053535F50494E00535049BA
:1015C0004E444C455F4C415345525F50574D5F5020
:1015D000494E005350494E444C455F4C415345528F
:1015E0005F454E41424C455F50494E00534552566F
:1015F0004F305F50494E00534453530053445F44AF
:1016000045544543545F50494E0053434B5F504946
:101610004E004D4F53495F50494E004D49534F5F67
:1016200050494E004D4158363637355F53535F5061
:10163000494E004C45445F50494E004C43445F5076
:10164000494E535F5253004C43445F50494E535FE1
:10165000454E41424C45004C43445F50494E535F18
:101660004437004C43445F50494E535F4436004C6E
:1016700043445F50494E535F4435004C43445F50F0
:10168000494E535F4434004B494C4C5F50494E0027
:101690004845415445525F4245445F50494E0048D9
:1016A00045415445525F315F50494E0048454154D1
:1016B00045525F305F50494E0046494C5F52554E8F
:1016C0004F5554325F50494E0046494C5F52554E7B
:1016D0004F55545F50494E0046414E315F50494E80
:1016E0000046414E5F50494E0045325F53544550CD
:1016F0005F50494E0045325F454E41424C455F5078
:10170000494E0045325F4449525F50494E004531D1
:101710005F535445505F50494E0045315F454E413F
:10172000424C455F50494E0045315F4449525F503D
:10173000494E0045315F43535F50494E0045315F8C
:101740004155544F5F46414E5F50494E0045305F12
:10175000535445505F50494E0045305F454E41421D
:101760004C455F50494E0045305F4449525F5049F7
:101770004E0045305F43535F50494E0045305F4156
:1017800055544F5F46414E5F50494E0043415345CB
:101790005F4C494748545F50494E0042544E5F45A4
:1017A0004E430042544E5F454E320042544E5F4518
:1017B0004E31004245455045525F50494E0041561A
:1017C000525F53535F50494E004156525F53434B53
:1017D0005F50494E004156525F4D4F53495F50494B
:1017E0004E004156525F4D49534F5F50494E005491
:1017F000454D505F4245445F50494E0054454D5061
:101800005F315F50494E0054454D505F305F504945
:101810004E0046494C57494454485F50494E005485
:101820005844005258440050574D3A202025346403
:101830000050574D3A20202534640050574D3A202F
:10184000202534640050574D3A2020253464005040
:10185000574D3A20202534640050574D3A2020251A
:1018600034640050574D3A20202534640050574DC1
:101870003A20202534640050574D3A202025346406
:101880000050574D3A20202534640050574D3A20DF
:10189000202534640050574D3A20202534640050F0
:1018A000574D3A20202534640050574D3A202025CA
:1018B00034640050574D3A20202534640050574D71
:1018C0003A20202534640020202000202020416E72
:1018D000616C6F6720696E203D2025356C64003C8B
:1018E000756E757365642F756E6B6E6F776E3E00E7
:1018F000202841253264292020002533642000253A
:101900007350494E3A20004F7574707574203D2015
:1019100000496E70757420203D2000416E616C6F2F
:101920006720696E203D2025356C640070726F74ED
:1019300065637465642000202841253264292020D5
:10194000002533642000257350494E3A20002318A7
:1019500000011F18010112183B0007184300FC1773
:101960004500EF174400E2173201D5173301C917BC
:101970003401BE173501B3172501AB171F01A3179B
:1019800021019B1723018C1705017C170601721793
:101990002A0167171C01591718014D171A013D1725
:1019A0002D0133172C01281722011A171E010E17BB
:1019B000240103172B01F5162C01E9162A01E11663
:1019C0000901D8160C01C9161601B9161501AC1675
:1019D0000A019F16070190160801871629017B1638
:1019E00017016F16190163161B0157161D014716C3
:1019F00011013B16100133160D01241642011B166E
:101A00003201121633010A163401FC153101F715A3
:101A10003501EC150B01D3150401BD150701B615F1
:101A20003501AD153501A3153701961526018C1525
:101A3000020182150301771536016C152B015E1525
:101A40002C0152152A01491531013F153D0132156E
:101A5000380128150F011D153C01141528010A1520
:101A60003001FD143E01F3141201E8142E01446FFD
:101A70006E652E0A0074726967676572206E6F74F6
:101A80002064657465637465640A006E6F697365CC
:101A9000206465746563746564202D20706C6561D5
:101AA00073652072652D72756E20746573740A00FB
:101AB000424C546F75636820636F6D706174696226
:101AC0006C652070726F626520646574656374650F
:101AD00064202D2070756C736520776964746820AC
:101AE000282B2F2D20346D53293A20005A2053657E
:101AF00072766F2050726F626520646574656374DE
:101B000065640A00706C656173652074726967674B
:101B100065722070726F62650A004552524F523AE8
:101B200020424C544F55434820656E61626C656499
:101B3000202D20736574207468697320646576694C
:101B400063652075702061732061205A205365728F
:101B5000766F2050726F6265207769746820696EB5
:101B600076657274696E6720617320747275652E74
:101B70000A002E202053544F574544202874726980
:101B8000676765726564292073746174653A2048DB
:101B900049474820286C6F6769632031290A002E65
:101BA00020204445504C4F5945442073746174655E
:101BB0003A204C4F5720286C6F6769632030290A00
:101BC000002E202053544F574544202874726967D3
:101BD0006765726564292073746174653A204C4F9F
:101BE0005720286C6F6769632030290A002E202057
:101BF0004445504C4F5945442073746174653A20F4
:101C00004849474820286C6F6769632031290A00DA
:101C1000424C546F75636820636C6F6E6520646519
:101C20007465637465640A005741524E494E4720FB
:101C30002D20494E56455254494E472073657474C1
:101C4000696E672070726F6261626C792062616395
:101C50006B77617264730A002E206465706C6F7913
:101C600020262073746F7720342074696D65730AA1
:101C70000066616C73650A002E205A5F4D494E5F05
:101C8000454E4453544F505F494E56455254494E69
:101C9000473A20002E2075736573205A5F4D494ED8
:101CA0005F454E4453544F505F494E564552544938
:101CB0004E47202869676E6F726573205A5F4D49E1
:101CC0004E5F50524F42455F454E4453544F505F14
:101CD000494E56455254494E47290A002E207072EB
:101CE0006F62652075736573205A5F4D494E207091
:101CF000696E3A20002E202073746F7720616E6722
:101D00006C653A202020002E20206465706C6F796D
:101D100020616E676C653A20002E20207573696E15
:101D20006720696E6465783A202000536572766F8B
:101D30002070726F626520746573740A0057617455
:101D40006368696E672070696E730A006469730066
:101D5000656E0061626C65640A00656E6473746F21
:101D600070206D6F6E69746F722000205A002059C8
:101D700000580020204D61783A2000205A00205958
:101D800000580020204D696E3A2000536F66742081
:101D9000656E6473746F70733A2000737065636965
:101DA0006679696E67204458435F5343414C45440C
:101DB0005F4455504C49434154494F4E5F4D4F4449
:101DC000452E0A005072696E746572206D757374C9
:101DD00020626520696E204458435F4455504C4949
:101DE000434154494F4E5F4D4F4445207072696FD7
:101DF0007220746F200A0020496E76616C6964203D
:101E0000657874727564657220004F46460A004614
:101E100061646520486569676874200042656420D4
:101E20004C6576656C696E6720004661696C656417
:101E300020746F20656E61626C6520426564204C81
:101E40006576656C696E670A00496E76616C6964D7
:101E5000206D6573682E0A0076616C69640A53749C
:101E60006F7261676520736C6F743A2000696E0051
:101E70004D65736820697320003F557365203020DD
:101E8000746F20003F496E76616C69642073746FD3
:101E90007261676520736C6F742E0A003F45455070
:101EA000524F4D2073746F72616765206E6F74209E
:101EB000617661696C61626C652E0A00486F6D65C0
:101EC0002058592066697273740A00486F6D652046
:101ED00058592066697273740046696E6973686543
:101EE00064210A00206F662000205A00205900203B
:101EF0005800476F696E6720746F3A00436C6F63D8
:101F00006B776973650A00436F756E7465722D0097
:101F100020446972656374696F6E3A200020202046
:101F2000616E676C653A20005374617274696E6704
:101F3000207261646975733A2000506F7369746927
:101F40006F6E696E67207468652070726F62652EAF
:101F50002E2E0A003F4E756D626572206F66206CF2
:101F600065677320696E206D6F76656D656E742090
:101F70006E6F7420706C61757369626C65202830B7
:101F80002D3135292E0A003F2028582C5929206F41
:101F90007574206F6620626F756E64732E0A003F41
:101FA00053616D706C652073697A65206E6F742063
:101FB000706C61757369626C652028342D35302929
:101FC0002E0A004D3438205A2D50726F626520520F
:101FD00065706561746162696C69747920546573B8
:101FE000740A003F2856296572626F7365206C651C
:101FF00076656C20697320696D706C6175736962B8
:102000006C652028302D34292E0A002054002052DF
:1020100000416363656C65726174696F6E3A20504C
:102020000053696E676C656E6F7A7A6C653A002052
:10203000204D32313700205A00205200205000201D
:102040005300486F74656E64206F666673657473C1
:102050003A00433A2000423A2000413A2000202032
:102060002020434F4D002020206E6F6E2D73746131
:102070006E646172642050574D206D6F646500205E
:102080002020636F6D7061726520696E7465727275
:1020900075707420656E61626C6564002020206F2D
:1020A000766572666C6F7720696E74657272757092
:1020B0007420656E61626C6564003A200020202007
:1020C0002054494D534B00423A20002020202054F8
:1020D00043435200413A20002020202054434352E1
:1020E000002020202043533A200020202020574762
:1020F0004D3A200050574D3A202025346400505767
:102100004D3A202025346400470048000000880034
:102110008A008C00B300B400000098009A009C0074
:10212000A800AA00AC0028012A012C0120202020B0
:1021300054494D455200440045006E008000810026
:102140006F00B000B1007000900091007100A0001D
:10215000A100720020012101730020697320616CCD
:10216000736F207469656420746F207468697320CC
:1021700070696E0054494D45523143000A202E00CB
:102180002020002020506F72743A20004D353032EC
:10219000200A204D353030200A204D353031200ABC
:1021A000205430200A204D31393020533735200A51
:1021B000204D3130362053313238200A204D313015
:1021C000342053323235200A20473238200A204743
:1021D0003239205031200A20473239205331200A29
:1021E000204D3131372052756E2053746570203286
:1021F000200A00473239205331200A204732392043
:102200005330200A2047323920462031302E3020EA
:102210000A204732392041200A204D353030200A2B
:1022200020473238200A20473239204C31200A20FA
:102230005430200A204D3130362053313238200AB4
:10224000204D3130392053323235200A2047312099
:1022500058313530205920313530200A204731207F
:102260005A30200A204D31313720536574205A20CE
:102270004F6666736574200A004D3139302037355A
:10228000200A205430200A204D313036205331327C
:1022900038200A204D31303420323235200A204790
:1022A0003238200A20473239204C31200A20473169
:1022B0002058313530205920313530200A2047311F
:1022C000205A30200A00473239205033200A204754
:1022D0003239205033200A20473239205033200A27
:1022E000204732392054200A00473236200A00465F
:1022F000696C6C204D65736820506F696E74730053
:102300005072657020666F72205A2041646A75733E
:10231000740055424C20436F6D6D697373696F6E25
:1023200020320052756E204D6573682056616C69CD
:10233000646174696F6E0055424C20436F6D6D6926
:102340007373696F6E2031004D61696E004D3730D7
:102350003220542564004D36303020423020542540
:1023600064004D373032203B2564004D373031203A
:10237000542564004368616E67652066696C616D11
:10238000656E7400556E6C6F61642066696C616D7A
:10239000656E74004C6F61642066696C616D656E7A
:1023A00074005072656865617420437573746F6D55
:1023B0000050726568656174204142530050726537
:1023C0006865617420504C410050726568656174A5
:1023D00020437573746F6D004261636B00556E6CC2
:1023E0006F61642066696C616D656E7420453200B2
:1023F000556E6C6F61642066696C616D656E7420EA
:102400004532004D37303220543100556E6C6F61CB
:10241000642066696C616D656E7420453100556E8F
:102420006C6F61642066696C616D656E7420453106
:10243000004D373032205430004D37303120543188
:10244000004C6F61642066696C616D656E74204537
:1024500032004D373031205430004C6F61642066BB
:10246000696C616D656E74204531004D36303020E9
:102470004230205431004368616E67652066696CA4
:10248000616D656E74204532004D3630302042302B
:10249000205430004368616E67652066696C616D29
:1024A000656E74204531004D61696E00507572672C
:1024B00065206D6F726500436F6E74696E7565009F
:1024C000524553554D45204F5054494F4E533A00B5
:1024D0005052494E542050415553454400554E4C9E
:1024E0004F41442046494C414D454E54004C4F41CC
:1024F000442046494C414D454E540020204E6F7AB1
:102500007A6C653A20002000746F207374617274D5
:102510000066696C616D656E74206368616E6765E5
:10252000005761697420666F720066696C616D6541
:102530006E7420756E6C6F616400576169742066FB
:102540006F7200506C6561736520776169742E2E1F
:102550002E004E6F7A7A6C652068656174696E67CB
:1025600000746F2068656174206E6F7A7A6C650004
:10257000507265737320627574746F6E00746F208F
:10258000636F6E74696E756500616E64207072654C
:10259000737320627574746F6E00496E7365727424
:1025A0002066696C616D656E740066696C616D654D
:1025B0006E74206C6F6164005761697420666F727D
:1025C00000746F20726573756D65207072696E742A
:1025D00000507265737320627574746F6E00746F4F
:1025E00020726573756D652E2E2E005761697420FB
:1025F000666F72207072696E740066696C616D65D9
:102600006E74207075726765005761697420666F1B
:10261000720000457874727564656420746F74612B
:102620006C3A2000256C642E25696D00004C6F6E9D
:1026300067657374206A6F622074696D653A200063
:1026400000546F74616C207072696E742074696DCF
:10265000653A2000436F6D706C657465643A2000C4
:102660005072696E7420436F756E743A20004D612C
:10267000782054656D703A20313530004D696E20F8
:1026800054656D703A203500544265643A31252016
:10269000626574612033393530004D6178205465AE
:1026A0006D703A20333530004D696E2054656D7081
:1026B0003A20350054313A20466F726D626F7420B3
:1026C000333530C2B043004D61782054656D703AA7
:1026D00020333530004D696E2054656D703A2035D9
:1026E0000054303A20466F726D626F74203335307B
:1026F000C2B0430053544F505045442E20005072F6
:10270000696E7465722073746F707065642064758F
:102710006520746F206572726F72732E204669781F
:1027200020746865206572726F7220616E64207516
:102730007365204D39393920746F20726573746167
:1027400072742E202854656D70657261747572659F
:102750002069732072657365742E20536574206937
:102760007420616674657220726573746172746935
:102770006E67290A0053544F502063616C6C656486
:102780002062656361757365206F6620424C546FEB
:10279000756368206572726F72202D207265737484
:1027A0006172742077697468204D3939390A005094
:1027B000726F62696E67206661696C65640A0050B9
:1027C000726F62696E67206661696C65640024F4EB
:1027D000D43050C38E20C2A24017828B7011127A5F
:1027E000910D816CD90AA861E108C758660761514B
:1027F00043061E4B5D05C145A7041A411104093D5E
:102800009803713931034036DB0265339102D430CD
:102810005402802E1D02632CEE01752AC501B028DA
:10282000A001102781018F2564012B244B01E02298
:102830003401AC211F018D200D01801FFC00841E7E
:10284000ED00971DDF00B81CD200E61BC600201B60
:10285000BC00641AB200B219A8000A19A0006A18D4
:102860009900D117910040178B00B51684003116DE
:102870007E00B31579003A157300C7146F00581421
:102880006A00EE1366008813630025135E00C7120A
:102890005B006C12570015125400C11151007011E9
:1028A0004F0021114B00D61049008D1047004610F3
:1028B000440002104200C00F4000800F3E00420F53
:1028C0003C00060F3B00CB0E3800930E37005C0E29
:1028D0003500270E3400F30D3200C10D3100900D8C
:1028E0003000600D2E00320D2D00050D2C00D90C8E
:1028F0002B00AE0C2900850C29005C0C2700350C40
:1029000027000E0C2600E80B2400C40B2400A00BAB
:1029100023007D0B23005A0B2100390B2100180BDB
:102920002000F80A1F00D90A1E00BB0A1E009D0ADB
:102930001D00800A1D00630A1C00470A1B002C0AA8
:102940001B00110A1A00F7091A00DD091900C40951
:102950001900AB091900920917007B0918006309D7
:1029600017004C09160036091600200916000A093E
:102970001500F5081500E0081400CC081400B8088C
:102980001400A4081400900813007D0812006B08BE
:1029900013005808120046081200340811002308DA
:1029A00011001208110001081100F0071000E007E3
:1029B0001000D0071000C0071000B0070F00A107DB
:1029C000100091070E0083070F0074070F006507C2
:1029D0000E0057070E0049070E003B070D002E079B
:1029E0000E0020070D0013070D0006070D00F90665
:1029F0000C00ED060D00E0060C00D4060C00C80625
:102A00000C00BC060C00B0060C00A4060B009906D6
:102A10000C008D060B0082060B0077060B006C067F
:102A20000B0061060A0057060B004C060A0042061E
:102A30000A0038060A002E060A0024060A001A06B2
:102A40000A001006090007060A00FD050900F40542
:102A50000900EB050900E2050900D9050900D005C8
:102A60000900C7050900BE050900B5050800AD0548
:102A70000800A50509009C050800940508008C05C0
:102A80000800840508007C050800740508006C0532
:102A90000700650508005D050700560508004E059E
:102AA0000700470507004005080038050700310505
:102AB00007002A050700230507001C050600160568
:102AC00007000F0507000805060002050700FB04C4
:102AD0000600F5040700EE040600E8040600E20420
:102AE0000700DB040600D5040600CF040600C90475
:102AF0000600C3040600BD040600B7040600B104C6
:102B00000500AC040600A6040600A00405009B0412
:102B1000060095040500900406008A04050085045B
:102B20000500800406007A040500750405007004A1
:102B300005006B04050066040500610405005C04E3
:102B4000050057040500520405004D040500480423
:102B50000500430405003E0404003A040500350462
:102B60000500300404002C0405002704040023049D
:102B700005001E0404001A040400160405001104D4
:102B800004000D040400090405000404040000040A
:102B90000400FC030400F8030400F4030400F00341
:102BA0000400EC030400E8030400E4030400E00371
:102BB0000400DC030400D8030400D4030400D003A1
:102BC0000400CC030400C8030300C503030024F47D
:102BD00004D9201BC40C5C0E9804C4095F0265076D
:102BE0007101F405F900FB04B30048048700C10338
:102BF00069005803550003034500BE023A008402F1
:102C0000310053022A002902250004022000E401B9
:102C10001C00C8011900AF011700980114008401BD
:102C20001300710110006101100051010E004301F9
:102C30000D0036010B002B010B0020010B001501CC
:102C400009000C01090003010800FB000800F30063
:102C50000800EB000700E4000600DE000600D800D4
:102C60000600D2000600CC000500C7000500C20027
:102C70000500BD000400B9000400B5000400B10067
:102C80000400AD000400A9000400A5000300A20098
:102C900003009F0004009B000300980003009500C0
:102CA000020093000300900003008D0002008B00DF
:102CB00003008800020086000200840003008100F7
:102CC00002007F0002007D0002007B00020079000C
:102CD000020077000100760002007400020072001A
:102CE0000100710002006F0002006D0001006C0025
:102CF00002006A000100690002006700010066002E
:102D00000100650001006400020062000100610032
:102D10000100600001005F0002005D0001005C0036
:102D200001005B0001005A00010059000100580039
:102D30000100570001005600010055000100540039
:102D40000100530000005300010052000100510037
:102D50000100500001004F0001004E0000004E0035
:102D600001004D0001004C0001004B0000004B0031
:102D700001004A000100490001004800000048002D
:102D80000100470001004600000046000100450028
:102D90000000450001004400010043000000430022
:102DA000010042000000420001004100000041001B
:102DB0000100400001003F0000003F0001003E0014
:102DC00000003E0001003D0000003D0001003C000D
:102DD00000003C0000003C0001003B0000003B0004
:102DE00001003A0000003A000100390000003900FB
:102DF00001003800000038000000380001003700F2
:102E000000003700010036000000360000003600E8
:102E100001003500000035000000350001003400DD
:102E200000003400000034000100330000003300D3
:102E300000003300010032000000320000003200C8
:102E400001003100000031000000310001003000BD
:102E5000000030000000300001002F0000002F00B3
:102E600000002F0000002F0001002E0000002E00A7
:102E700000002E0001002D0000002D0000002D009C
:102E800000002D0001002C0000002C0000002C0090
:102E900000002C0001002B0000002B0000002B0084
:102EA00000002B0001002A0000002A0000002A0078
:102EB00000002A000100290000002900000029006C
:102EC000000029000000290001002800000028005F
:102ED0000000280000002800000028000100270052
:102EE0000000270000002700000027000000270046
:102EF0000100260000002600000026000000260039
:102F0000000026000100250000002500000025002B
:102F1000000025000000250000002500010024001D
:102F20000000240000002400000024000000240011
:102F30000100230000002300000023000000230004
:102F400000002300000023000000230001002200F5
:102F500000002200000022000000220000002200E9
:102F600000002200010021000000210000002100DB
:102F700000002100000021000000210000002100CD
:102F800001002000000020000000200000002000C0
:102F900000002000000020000000200000002000B1
:102FA00001001F0000001F0000001F0000001F00A4
:102FB00000001F0000001F0000001F0001001E0095
:102FC00000001E0000001E0000001E00000004376C
:102FD00000001E290000511B0000581000001009BD
:102FE0000000CC04000078020000410100005654AB
:102FF000726176206D696E005654726176206D693B
:103000006E00566D696E00566D696E00566D617882
:10301000204500566D6178204500566D6178205A34
:1030200000566D6178205A00566D6178205900561F
:103030006D6178205900566D6178205800566D6199
:1030400078205800416476616E636564205365742E
:1030500074696E677300416D6178204500416D6150
:1030600078204500416D6178205A00416D617820DB
:103070005A00416D6178205900416D6178205900F6
:10308000416D6178205800416D6178205800412DD4
:1030900074726176656C00412D74726176656C00A6
:1030A000412D7265747261637400412D7265747292
:1030B00061637400416363656C00416363656C0028
:1030C000416476616E6365642053657474696E67EC
:1030D00073004A756E6374696F6E20446576004AAA
:1030E000756E6374696F6E20446576004164766125
:1030F0006E6365642053657474696E67730045730D
:10310000746570732F6D6D004573746570732F6DEA
:103110006D005A73746570732F6D6D005A7374650A
:1031200070732F6D6D005973746570732F6D6D0022
:103130005973746570732F6D6D0058737465707377
:103140002F6D6D005873746570732F6D6D00416441
:1031500076616E6365642053657474696E6773008D
:10316000496E697469616C697A6520454550524FB2
:103170004D00416476616E636564205365747469C3
:103180006E6773004D34323800496E697469616C42
:10319000697A6520454550524F4D005265736574FC
:1031A00020424C546F756368004D323830205030E7
:1031B000205331363000424C546F7563682053659C
:1031C0006C662D54657374004D32383020503020B9
:1031D000533132300046696C616D656E7400546520
:1031E0006D70657261747572650053746570732FCC
:1031F0006D6D004A65726B00416363656C65726159
:1032000074696F6E0056656C6F63697479005365FD
:103210007420686F6D65206F666673657473005007
:10322000726F6265205A204F666673657400436F43
:103230006E66696775726174696F6E0050726F6255
:1032400065205A204F666673657400326E64206E86
:103250006F7A7A6C65205A00486F6D696E672058E6
:10326000595A004C6F6164206D6D2032004C6F61C3
:1032700064206D6D2032004C6F6164206D6D2031D3
:10328000004C6F6164206D6D2031004C6F616420D3
:103290006D6D004C6F6164206D6D00556E6C6F61DB
:1032A00064206D6D203200556E6C6F6164206D6D11
:1032B000203200556E6C6F6164206D6D20310055B9
:1032C0006E6C6F6164206D6D203100556E6C6F61A6
:1032D00064206D6D00556E6C6F6164206D6D0046ED
:1032E000696C2E204469612E20320046696C2E20C4
:1032F0004469612E20320046696C2E204469612E9B
:1033000020310046696C2E204469612E2031004630
:10331000696C2E204469612E0046696C2E20446938
:10332000612E004F6666004F6E004520696E206D6D
:103330006D5E3300416476616E636564205365742D
:1033400074696E6773004D33303320553120452545
:10335000692053256900504944204175746F747584
:103360006E6520453200504944204175746F747574
:103370006E65204532005049442D442045320050AE
:1033800049442D44204532005049442D49204532BE
:10339000005049442D49204532005049442D5020C9
:1033A0004532005049442D502045320050494420B8
:1033B0004175746F74756E65204531005049442025
:1033C0004175746F74756E65204531005049442D08
:1033D00044204531005049442D4420453100504996
:1033E000442D49204531005049442D4920453100A4
:1033F0005049442D50204531005049442D5020451E
:103400003100200820466163740020082046616373
:1034100074002008204D6178002008204D6178005C
:103420002008204D696E002008204D696E004F660F
:1034300066004F6E004175746F74656D7000416475
:1034400076616E6365642053657474696E6773009A
:103450004D65736820456469746F72004732392086
:103460005031004D31303920532569004D3139300C
:103470002053256900473238004275696C64204347
:103480007573746F6D204D657368004265642054D8
:10349000656D70004265642054656D7000486F74FE
:1034A000656E642054656D7000486F74656E6420AD
:1034B00054656D70004275696C64204D65736800D9
:1034C0002E2569004732392050362043202D0049EF
:1034D0006E666F2073637265656E00486569676824
:1034E0007420416D6F756E7400486569676874205B
:1034F000416D6F756E740045646974204D65736825
:1035000000496E666F2073637265656E0041646A80
:10351000757374204D657368204865696768740029
:1035200046696E652054756E6520436C6F736573D4
:10353000740047323920503420540046696E6520AB
:1035400054756E6520416C6C004732392050342030
:103550005239393920540055424C20546F6F6C73E6
:103560000047323800473236204320422569204840
:103570002569205000496E666F2073637265656E21
:103580000056616C696461746520437573746F6D76
:10359000204D6573680056616C6964617465204DE7
:1035A000657368202841425329004732380A473260
:1035B0003620432042313130204832333020500011
:1035C00056616C6964617465204D6573682028508C
:1035D0004C4129004732380A4732362043204236D0
:1035E00030204832303020500055424C20546F6F0C
:1035F0006C7300473239204A2569004C6576656C4A
:10360000204D657368005369646520506F696E745E
:1036100073005369646520506F696E74730055427E
:103620004C20546F6F6C7300496E666F2073637229
:1036300065656E0047726964204D657368204C654E
:1036400076656C696E6700332D506F696E74204C1F
:103650006576656C696E6700473239204A300055DF
:10366000424C20546F6F6C73004732392050332026
:103670005220432E256900496E666F207363726580
:10368000656E004D616E75616C2046696C6C2D69CC
:103690006E00473239205032204220543000536DA2
:1036A0006172742046696C6C2D696E004732392056
:1036B00050332054300046696C6C2D696E20416D8A
:1036C0006F756E740046696C6C2D696E20416D6F6C
:1036D000756E74004275696C64204D657368004DA9
:1036E00065736820696E76616C6964617465642EC7
:1036F0000A00496E666F2073637265656E00496EDD
:1037000076616C696461746520436C6F7365737472
:1037100000473239204900496E76616C69646174F2
:103720006520416C6C00436F6E74696E7565204254
:103730006564204D6573680047323920503120435D
:103740000046696C6C2D696E204D6573680042758A
:10375000696C6420436F6C64204D65736800473268
:10376000380A473239205031004275696C64204371
:103770007573746F6D204D657368004275696C6474
:10378000204D657368202841425329004732380A8A
:103790004D31393020533131300A4D3130392053D9
:1037A0003233300A4732392050310A4D313034201B
:1037B00053300A4D313430205330004275696C6407
:1037C000204D6573682028504C4129004732380A43
:1037D0004D313930205336300A4D31303920533293
:1037E00030300A4732392050310A4D3130342053BD
:1037F000300A4D3134302053300055424C20546F44
:103800006F6C73004D313137204D65736820256929
:103810002073617665640047323920532569004D75
:10382000313137204D657368202569206C6F6164E4
:10383000656400473239204C256900536176652064
:10384000426564204D657368004C6F616420426579
:1038500064204D657368004D656D6F727920536CFF
:103860006F74004D656D6F727920536C6F74004EEC
:103870006F2073746F7261676500556E6966696564
:103880006420426564204C6576656C696E6700470C
:103890003239205034205825732059257320522561
:1038A0006900202D2D2D2D2D000000084266668612
:1038B00042CDCCC8429A990543CDCC26430000485E
:1038C000433433694334338543CDCC95436766A68F
:1038D000430000B7439A99C7433433D843CDCCE86B
:1038E000436766F9430000054400000040CDCC2446
:1038F00042CDCCA0423433EF42CDCC1E4300004633
:103900004334336D4333338A43CDCC9D436766B133
:10391000430000C5439A99D8433433EC43CDCCFFE0
:103920004333B3094400801344473238004F757461
:10393000707574204D657368204D6170004F666628
:10394000205072696E746572204261636B757000FD
:1039500047323920532D31004F75747075742066CD
:103960006F722043535600473239205431004F754F
:103970007470757420666F7220486F7374004732DC
:103980003920543000556E6966696564204265646B
:10399000204C6576656C696E67004D657368204CD8
:1039A0006576656C696E670045646974204D657362
:1039B000680056616C6964617465204D65736800C8
:1039C0004D616E75616C6C79204275696C64204D37
:1039D0006573680047323920493939390A47323925
:1039E0002050322042205430004275696C64204DD2
:1039F00065736800556E6966696564204265642078
:103A00004C6576656C696E6700372053617665207A
:103A1000426564204D65736800362046696E6520F6
:103A200054756E6520416C6C00473239205034204B
:103A300052393939205400352056616C69646174FB
:103A400065204D65736800342046696E65205475A5
:103A50006E6520416C6C0047323920503420523959
:103A60003939205400332056616C696461746520D3
:103A70004D657368003220536D6172742046696C25
:103A80006C2D696E0047323920503320543000319C
:103A9000204275696C6420436F6C64204D657368C7
:103AA000004732380A47323920503100556E696676
:103AB00069656420426564204C6576656C696E6753
:103AC0000046616465204865696768740046616402
:103AD0006520486569676874004F75747075742057
:103AE00055424C20496E666F0047323920570055C9
:103AF000424C20546F6F6C73004F75747075742056
:103B00004D657368204D6170004D65736820537476
:103B10006F72616765004D65736820456469740064
:103B2000537465702D42792D537465702055424C45
:103B300000446561637469766174652055424C0088
:103B400047323920440041637469766174652055B9
:103B5000424C004732392041004D6F74696F6E004E
:103B60002C2065653D002C207A653D002C20796570
:103B70003D002075626C2E6C696E655F746F5F64CA
:103B8000657374696E6174696F6E5F636172746589
:103B90007369616E2878653D0020746F6F206C6FCB
:103BA0006E6720657874727573696F6E20707265C8
:103BB00076656E7465640A0020636F6C64206578B6
:103BC00074727573696F6E2070726576656E746558
:103BD000640A00486F6D6520257325732573206680
:103BE00069727374002066697273740A005A00590E
:103BF000005800486F6D65200000004842000048F2
:103C00004200008040000000005761726E696E67DC
:103C10003A20486F6D696E672042756D7020446967
:103C20007669736F72203C20310A000202040000A2
:103C3000A0400000A040000000400000F64300004B
:103C4000C8430000FA43FF01FF542D52455820336A
:103C50002052656164792E005072696E74696E67D6
:103C60002E2E2E005072696E74207061757365641B
:103C700000290A002062797465733B206372632017
:103C80000053657474696E67732053746F72656452
:103C9000202800454550524F4D206461746173697E
:103CA0007A65206572726F722E0A003F4D657368E7
:103CB00020746F6F2062696720666F7220454550DF
:103CC000524F4D2E0A0055424C2053797374656D46
:103CD00020726573657428290A00206C6F61646521
:103CE000642066726F6D2073746F726167652E0A4F
:103CF000004D65736820002E0A003F43616E2774F3
:103D000020656E61626C65200020696E697469616E
:103D10006C697A65642E0A0A00290A0020627974A7
:103D200065733B2063726320002073746F72656457
:103D30002073657474696E67732072657472696547
:103D4000766564202800202863616C63756C61745B
:103D5000656429210A0020213D2000454550524F2D
:103D60004D20435243206D69736D61746368202D4B
:103D7000202873746F7265642920002053697A6566
:103D80003A2000496E6465783A2000204D61726CDB
:103D9000696E3D563633290A0028454550524F4D2D
:103DA0003D00454550524F4D2076657273696F6EE8
:103DB000206D69736D6174636820005053553A201B
:103DC00047656E657269630050726F746F636F6CE4
:103DD0003A20312E3000426175643A20323530305D
:103DE000303000466F726D626F7400556E6966699F
:103DF000656420426564204C6576656C696E670079
:103E00004578747275646572733A2032005669762B
:103E10006564696E6F2E636F6D00542D5245582096
:103E20003300323031382D31322D31360054726545
:103E3000785F322E302E785F312E32004D61726CF9
:103E4000696E005072696E74657220537461747388
:103E500000546865726D6973746F727300426F61AC
:103E6000726420496E666F005072696E74657220CC
:103E7000496E666F004D61696E005072696E742004
:103E800061626F72746564004D61696E0053746F96
:103E900070207072696E7400473238005361766525
:103EA000204F666673657473004D35303000326E96
:103EB00064206E6F7A7A6C65205A00326E64206ED0
:103EC0006F7A7A6C65205A00326E64206E6F7A7A4F
:103ED0006C65205900326E64206E6F7A7A6C6520B2
:103EE0005900326E64206E6F7A7A6C652058003209
:103EF0006E64206E6F7A7A6C6520580046756C6C23
:103F000020636F6E74726F6C004D36303520533005
:103F10000A4732382058004D6972726F72004D3670
:103F200030352053310A54300A4D36303520533263
:103F300020583230300A47323820580A473120584A
:103F40003130300A4D36303520533320583230303E
:103F5000004D3630352053310A54300A4732380A82
:103F60004D36303520533220583230300A473238FF
:103F700020580A473120583130300A4D363035202C
:103F800053332058323030004475706C696361746B
:103F9000696F6E004D3630352053310A54300A4D6A
:103FA00036303520533220583230300A47323820EC
:103FB000580A47312058313030004D3630352053C3
:103FC000310A54300A4732380A4D363035205332E0
:103FD00020583230300A47323820580A47312058AA
:103FE000313030004175746F2D5061726B004D3669
:103FF00030352053310A47323820580A473120588B
:10400000313030004D61696E004C61736572204F34
:104010006666004D35004C61736572204F6E004D31
:1040200033004D61696E004D323520503B200A202F
:104030004D3234004D3234005072696E7420667215
:104040006F6D2053440041626F7574205072696E29
:10405000746572004368616E67652066696C616DA6
:10406000656E7400436F6D6D697373696F6E696E11
:104070006700436F6E66696775726174696F6E0081
:104080004C617365720049444558204D6F6465006A
:1040900054656D7065726174757265004D6F7469F9
:1040A0006F6E00526573756D65207072696E740075
:1040B00054756E650053746F70207072696E740071
:1040C0005061757365207072696E74004E6F205375
:1040D00044206361726400496E666F207363726589
:1040E000656E0024F404D9201BC40C5C0E9804C433
:1040F000095F0265077101F405F900FB04B300488C
:10410000048700C10369005803550003034500BE3E
:10411000023A008402310053022A002902250004D9
:10412000022000E4011C00C8011900AF011700982B
:10413000011400840113007101100061011000518D
:10414000010E0043010D0036010B002B010B002076
:10415000010B00150109000C01090003010800FB17
:10416000000800F3000800EB000700E4000600DE92
:10417000000600D8000600D2000600CC000500C7EB
:10418000000500C2000500BD000400B9000400B530
:10419000000400B1000400AD000400A9000400A563
:1041A000000300A20003009F0004009B000300988E
:1041B0000003009500020093000300900003008DAF
:1041C0000002008B000300880002008600020084C9
:1041D000000300810002007F0002007D0002007BDE
:1041E00000020079000200770001007600020074EE
:1041F00000020072000100710002006F0002006DF9
:104200000001006C0002006A000100690002006702
:104210000001006600010065000100640002006208
:1042200000010061000100600001005F0002005D0C
:104230000001005C0001005B0001005A0001005910
:104240000001005800010057000100560001005510
:10425000000100540001005300000053000100520F
:1042600000010051000100500001004F0001004E0C
:104270000000004E0001004D0001004C0001004B09
:104280000000004B0001004A000100490001004805
:104290000000004800010047000100460000004601
:1042A00000010045000000450001004400010043FA
:1042B00000000043000100420000004200010041F4
:1042C00000000041000100400001003F0000003FED
:1042D0000001003E0000003E0001003D0000003DE6
:1042E0000001003C0000003C0000003C0001003BDD
:1042F0000000003B0001003A0000003A00010039D4
:1043000000000039000100380000003800000038CB
:1043100000010037000000370001003600000036C1
:1043200000000036000100350000003500000035B7
:1043300000010034000000340000003400010033AC
:1043400000000033000000330001003200000032A2
:104350000000003200010031000000310000003197
:104360000001003000000030000000300001002F8C
:104370000000002F0000002F0000002F0001002E81
:104380000000002E0000002E0001002D0000002D76
:104390000000002D0000002D0001002C0000002C6A
:1043A0000000002C0000002C0001002B0000002B5E
:1043B0000000002B0000002B0001002A0000002A52
:1043C0000000002A0000002A000100290000002946
:1043D0000000002900000029000000290001002839
:1043E000000000280000002800000028000000282D
:1043F0000001002700000027000000270000002720
:104400000000002700010026000000260000002612
:104410000000002600000026000100250000002505
:1044200000000025000000250000002500000025F8
:1044300000010024000000240000002400000024EB
:1044400000000024000100230000002300000023DE
:1044500000000023000000230000002300000023D0
:1044600000010022000000220000002200000022C3
:1044700000000022000000220001002100000021B5
:1044800000000021000000210000002100000021A8
:10449000000000210001002000000020000000209A
:1044A000000000200000002000000020000000208C
:1044B000000000200001001F0000001F0000001F7E
:1044C0000000001F0000001F0000001F0000001F70
:1044D0000001001E0000001E0000001E0000001E63
:1044E00000000024F4D43050C38E20C2A2401782B2
:1044F0008B7011127A910D816CD90AA861E108C7FD
:10450000586607615143061E4B5D05C145A7041A55
:10451000411104093D9803713931034036DB0265CE
:10452000339102D4305402802E1D02632CEE0175AB
:104530002AC501B028A001102781018F2564012B15
:10454000244B01E0223401AC211F018D200D01809C
:104550001FFC00841EED00971DDF00B81CD200E692
:104560001BC600201BBC00641AB200B219A8000AC6
:1045700019A0006A189900D117910040178B00B557
:1045800016840031167E00B31579003A157300C702
:10459000146F0058146A00EE136600881363002538
:1045A000135E00C7125B006C12570015125400C155
:1045B00011510070114F0021114B00D61049008D90
:1045C0001047004610440002104200C00F40008017
:1045D0000F3E00420F3C00060F3B00CB0E3800930D
:1045E0000E37005C0E3500270E3400F30D3200C18B
:1045F0000D3100900D3000600D2E00320D2D0005A4
:104600000D2C00D90C2B00AE0C2900850C29005C68
:104610000C2700350C27000E0C2600E80B2400C4E4
:104620000B2400A00B23007D0B23005A0B21003923
:104630000B2100180B2000F80A1F00D90A1E00BB2E
:104640000A1E009D0A1D00800A1D00630A1C004707
:104650000A1B002C0A1B00110A1A00F7091A00DDB8
:10466000091900C4091900AB091900920917007B48
:10467000091800630917004C0916003609160020B6
:104680000916000A091500F5081500E0081400CC09
:10469000081400B8081400A4081400900813007D42
:1046A0000812006B08130058081200460812003464
:1046B000081100230811001208110001081100F070
:1046C000071000E0071000D0071000C0071000B06E
:1046D000070F00A107100091070E0083070F007459
:1046E000070F0065070E0057070E0049070E003B35
:1046F000070D002E070E0020070D0013070D000602
:10470000070D00F9060C00ED060D00E0060C00D4C4
:10471000060C00C8060C00BC060C00B0060C00A479
:10472000060B0099060C008D060B0082060B007725
:10473000060B006C060B0061060A0057060B004CC6
:10474000060A0042060A0038060A002E060A00245D
:10475000060A001A060A001006090007060A00FDEC
:10476000050900F4050900EB050900E2050900D977
:10477000050900D0050900C7050900BE050900B5F7
:10478000050800AD050800A50509009C0508009472
:104790000508008C050800840508007C05080074E5
:1047A0000508006C050700650508005D0507005653
:1047B0000508004E050700470507004005080038BA
:1047C000050700310507002A050700230507001C1F
:1047D000050600160507000F05070008050600027C
:1047E000050700FB040600F5040700EE040600E8D8
:1047F000040600E2040700DB040600D5040600CF2F
:10480000040600C9040600C3040600BD040600B780
:10481000040600B1040500AC040600A6040600A0CE
:104820000405009B04060095040500900406008A18
:1048300004050085040500800406007A040500755F
:10484000040500700405006B0405006604050061A2
:104850000405005C04050057040500520405004DE2
:1048600004050048040500430405003E0404003A22
:1048700004050035040500300404002C040500275D
:10488000040400230405001E0404001A0404001696
:10489000040500110404000D0404000904050004CB
:1048A00004040000040400FC030400F8030400F402
:1048B000030400F0030400EC030400E8030400E434
:1048C000030400E0030400DC030400D8030400D464
:1048D000030400D0030400CC030400C8030300C594
:1048E0000303000A4D657368206F6E6C7920706158
:1048F000727469616C6C7920706F70756C6174652D
:10490000642E0A0024F404D9201BC40C5C0E980405
:10491000C4095F0265077101F405F900FB04B300E7
:1049200048048700C103690058035500030345008C
:10493000BE023A008402310053022A0029022500F7
:1049400004022000E4011C00C8011900AF01170097
:10495000980114008401130071011000610110001E
:1049600051010E0043010D0036010B002B010B001D
:1049700020010B00150109000C01090003010800CA
:10498000FB000800F3000800EB000700E40006004D
:10499000DE000600D8000600D2000600CC000500AC
:1049A000C7000500C2000500BD000400B9000400F6
:1049B000B5000400B1000400AD000400A90004002B
:1049C000A5000300A20003009F0004009B00030059
:1049D000980003009500020093000300900003007C
:1049E0008D0002008B000300880002008600020098
:1049F00084000300810002007F0002007D000200AD
:104A00007B000200790002007700010076000200BE
:104A10007400020072000100710002006F000200C9
:104A20006D0001006C0002006A00010069000200D4
:104A300067000100660001006500010064000200DB
:104A40006200010061000100600001005F000200DF
:104A50005D0001005C0001005B0001005A000100E4
:104A600059000100580001005700010056000100E4
:104A700055000100540001005300000053000100E4
:104A80005200010051000100500001004F000100E0
:104A90004E0000004E0001004D0001004C000100DE
:104AA0004B0000004B0001004A00010049000100DA
:104AB00048000000480001004700010046000000D7
:104AC00046000100450000004500010044000100CF
:104AD00043000000430001004200000042000100CA
:104AE0004100000041000100400001003F000000C3
:104AF0003F0001003E0000003E0001003D000000BC
:104B00003D0001003C0000003C0000003C000100B2
:104B10003B0000003B0001003A0000003A000100A9
:104B200039000000390001003800000038000000A2
:104B30003800010037000000370001003600000097
:104B4000360000003600010035000000350000008E
:104B50003500010034000000340000003400010082
:104B60003300000033000000330001003200000079
:104B7000320000003200010031000000310000006E
:104B80003100010030000000300000003000010062
:104B90002F0000002F0000002F0000002F00010058
:104BA0002E0000002E0000002E0001002D0000004D
:104BB0002D0000002D0000002D0001002C00000041
:104BC0002C0000002C0000002C0001002B00000035
:104BD0002B0000002B0000002B0001002A00000029
:104BE0002A0000002A0000002A000100290000001D
:104BF0002900000029000000290000002900010010
:104C00002800000028000000280000002800000004
:104C100028000100270000002700000027000000F6
:104C200027000000270001002600000026000000E9
:104C300026000000260000002600010025000000DC
:104C400025000000250000002500000025000000D0
:104C500025000100240000002400000024000000C2
:104C600024000000240001002300000023000000B5
:104C700023000000230000002300000023000000A8
:104C8000230001002200000022000000220000009A
:104C9000220000002200000022000100210000008C
:104CA0002100000021000000210000002100000080
:104CB0002100000021000100200000002000000071
:104CC0002000000020000000200000002000000064
:104CD00020000000200001001F0000001F00000055
:104CE0001F0000001F0000001F0000001F00000048
:104CF0001F0001001E0000001E0000001E0000003A
:104D00001E00000024F4D43050C38E20C2A24017ED
:104D1000828B7011127A910D816CD90AA861E10819
:104D2000C7586607615143061E4B5D05C145A70480
:104D30001A411104093D9803713931034036DB02F1
:104D400065339102D4305402802E1D02632CEE0193
:104D5000752AC501B028A001102781018F256401A3
:104D60002B244B01E0223401AC211F018D200D01C9
:104D7000801FFC00841EED00971DDF00B81CD200D0
:104D8000E61BC600201BBC00641AB200B219A800C2
:104D90000A19A0006A189900D117910040178B00DA
:104DA000B516840031167E00B31579003A157300EC
:104DB000C7146F0058146A00EE136600881363006E
:104DC00025135E00C7125B006C12570015125400C9
:104DD000C111510070114F0021114B00D610490034
:104DE0008D1047004610440002104200C00F4000E2
:104DF000800F3E00420F3C00060F3B00CB0E3800F8
:104E0000930E37005C0E3500270E3400F30D320090
:104E1000C10D3100900D3000600D2E00320D2D00BF
:104E2000050D2C00D90C2B00AE0C2900850C290097
:104E30005C0C2700350C27000E0C2600E80B240024
:104E4000C40B2400A00B23007D0B23005A0B210070
:104E5000390B2100180B2000F80A1F00D90A1E0088
:104E6000BB0A1E009D0A1D00800A1D00630A1C006B
:104E7000470A1B002C0A1B00110A1A00F7091A0026
:104E8000DD091900C4091900AB09190092091700BE
:104E90007B091800630917004C0916003609160033
:104EA000200916000A091500F5081500E00814008D
:104EB000CC081400B8081400A408140090081300CB
:104EC0007D0812006B0813005808120046081200F3
:104ED0003408110023081100120811000108110004
:104EE000F0071000E0071000D0071000C007100006
:104EF000B0070F00A107100091070E0083070F00F5
:104F000074070F0065070E0057070E0049070E00D3
:104F10003B070D002E070E0020070D0013070D00A4
:104F200006070D00F9060C00ED060D00E0060C006A
:104F3000D4060C00C8060C00BC060C00B0060C0021
:104F4000A4060B0099060C008D060B0082060B00D0
:104F500077060B006C060B0061060A0057060B0073
:104F60004C060A0042060A0038060A002E060A000D
:104F700024060A001A060A001006090007060A009D
:104F8000FD050900F4050900EB050900E20509002B
:104F9000D9050900D0050900C7050900BE050900AB
:104FA000B5050800AD050800A50509009C05080029
:104FB000940508008C050800840508007C0508009D
:104FC000740508006C050700650508005D0507000D
:104FD000560508004E050700470507004005080074
:104FE00038050700310507002A05070023050700DB
:104FF0001C050600160507000F050700080506003A
:1050000002050700FB040600F5040700EE04060095
:10501000E8040600E2040700DB040600D5040600ED
:10502000CF040600C9040600C3040600BD04060040
:10503000B7040600B1040500AC040600A60406008F
:10504000A00405009B0406009504050090040600DA
:105050008A04050085040500800406007A04050022
:1050600075040500700405006B0405006604050066
:10507000610405005C0405005704050052040500A6
:105080004D04050048040500430405003E040400E7
:105090003A04050035040500300404002C04050022
:1050A00027040400230405001E0404001A0404005D
:1050B00016040500110404000D0404000904050091
:1050C0000404040000040400FC030400F8030400CA
:1050D000F4030400F0030400EC030400E8030400FC
:1050E000E4030400E0030400DC030400D80304002C
:1050F000D4030400D0030400CC030400C80303005D
:10510000C50303005374617274206F662075626C6E
:105110002E6C696E655F746F5F64657374696E6130
:1051200074696F6E5F63617274657369616E28295B
:10513000006F7574206F6620626F756E64732069EE
:105140006E2075626C2E6C696E655F746F5F64654E
:105150007374696E6174696F6E5F63617274657395
:1051600069616E28290046494E414C5F4D4F5645B6
:1051700020696E2075626C2E6C696E655F746F5F5E
:1051800064657374696E6174696F6E5F6361727474
:10519000657369616E282900766572746963616C54
:1051A000206D6F766520646F6E6520696E20756274
:1051B0006C2E6C696E655F746F5F64657374696E85
:1051C0006174696F6E5F63617274657369616E2883
:1051D0002900686F72697A6F6E74616C206D6F76EA
:1051E0006520646F6E6520696E2075626C2E6C6937
:1051F0006E655F746F5F64657374696E6174696F07
:105200006E5F63617274657369616E2829006765FA
:105210006E65726963206D6F766520646F6E6520C0
:10522000696E2075626C2E6C696E655F746F5F6469
:10523000657374696E6174696F6E5F6361727465C2
:105240007369616E28290024F404D9201BC40C5C06
:105250000E9804C4095F0265077101F405F900FBAB
:1052600004B30048048700C10369005803550003D4
:10527000034500BE023A008402310053022A00298D
:1052800002250004022000E4011C00C8011900AF3F
:1052900001170098011400840113007101100061CE
:1052A00001100051010E0043010D0036010B002BCF
:1052B000010B0020010B00150109000C010900037E
:1052C000010800FB000800F3000800EB000700E401
:1052D000000600DE000600D8000600D2000600CC62
:1052E000000500C7000500C2000500BD000400B9AC
:1052F000000400B5000400B1000400AD000400A9E2
:10530000000400A5000300A20003009F0004009B0E
:105310000003009800030095000200930003009032
:105320000003008D0002008B00030088000200864D
:1053300000020084000300810002007F0002007D63
:105340000002007B00020079000200770001007675
:105350000002007400020072000100710002006F80
:105360000002006D0001006C0002006A000100698B
:105370000002006700010066000100650001006492
:105380000002006200010061000100600001005F96
:105390000002005D0001005C0001005B0001005A9A
:1053A000000100590001005800010057000100569B
:1053B000000100550001005400010053000000539B
:1053C0000001005200010051000100500001004F97
:1053D0000001004E0000004E0001004D0001004C95
:1053E0000001004B0000004B0001004A0001004991
:1053F000000100480000004800010047000100468D
:105400000000004600010045000000450001004486
:105410000001004300000043000100420000004280
:105420000001004100000041000100400001003F78
:105430000000003F0001003E0000003E0001003D72
:105440000000003D0001003C0000003C0000003C6A
:105450000001003B0000003B0001003A0000003A60
:105460000001003900000039000100380000003858
:10547000000000380001003700000037000100364E
:105480000000003600000036000100350000003545
:10549000000000350001003400000034000000343A
:1054A000000100330000003300000033000100322F
:1054B0000000003200000032000100310000003125
:1054C000000000310001003000000030000000301A
:1054D0000001002F0000002F0000002F0000002F0F
:1054E0000001002E0000002E0000002E0001002D03
:1054F0000000002D0000002D0000002D0001002CF8
:105500000000002C0000002C0000002C0001002BEB
:105510000000002B0000002B0000002B0001002ADF
:105520000000002A0000002A0000002A00010029D3
:1055300000000029000000290000002900000029C7
:1055400000010028000000280000002800000028BA
:1055500000000028000100270000002700000027AD
:1055600000000027000000270001002600000026A0
:105570000000002600000026000000260001002593
:105580000000002500000025000000250000002587
:105590000000002500010024000000240000002479
:1055A000000000240000002400010023000000236C
:1055B000000000230000002300000023000000235F
:1055C0000000002300010022000000220000002251
:1055D0000000002200000022000000220001002143
:1055E0000000002100000021000000210000002137
:1055F0000000002100000021000100200000002028
:10560000000000200000002000000020000000201A
:1056100000000020000000200001001F0000001F0B
:105620000000001F0000001F0000001F0000001FFE
:105630000000001F0001001E0000001E0000001EF0
:105640000000001E00000024F4D43050C38E20C29D
:10565000A24017828B7011127A910D816CD90AA821
:1056600061E108C7586607615143061E4B5D05C1DD
:1056700045A7041A411104093D98037139310340CB
:1056800036DB0265339102D4305402802E1D026352
:105690002CEE01752AC501B028A001102781018FC9
:1056A0002564012B244B01E0223401AC211F018D24
:1056B000200D01801FFC00841EED00971DDF00B847
:1056C0001CD200E61BC600201BBC00641AB200B24C
:1056D00019A8000A19A0006A189900D11791004072
:1056E000178B00B516840031167E00B31579003A89
:1056F000157300C7146F0058146A00EE1366008813
:1057000013630025135E00C7125B006C125700156F
:10571000125400C111510070114F0021114B00D6DD
:105720001049008D1047004610440002104200C08E
:105730000F4000800F3E00420F3C00060F3B00CBA5
:105740000E3800930E37005C0E3500270E3400F340
:105750000D3200C10D3100900D3000600D2E003271
:105760000D2D00050D2C00D90C2B00AE0C29008549
:105770000C29005C0C2700350C27000E0C2600E8D5
:105780000B2400C40B2400A00B23007D0B23005A24
:105790000B2100390B2100180B2000F80A1F00D93B
:1057A0000A1E00BB0A1E009D0A1D00800A1D006320
:1057B0000A1C00470A1B002C0A1B00110A1A00F7DA
:1057C000091A00DD091900C4091900AB0919009272
:1057D0000917007B091800630917004C09160036E9
:1057E000091600200916000A091500F5081500E041
:1057F000081400CC081400B8081400A40814009081
:105800000813007D0812006B0813005808120046A8
:1058100008120034081100230811001208110001B9
:10582000081100F0071000E0071000D0071000C0BA
:10583000071000B0070F00A107100091070E0083AA
:10584000070F0074070F0065070E0057070E004989
:10585000070E003B070D002E070E0020070D00135A
:10586000070D0006070D00F9060C00ED060D00E01F
:10587000060C00D4060C00C8060C00BC060C00B0D8
:10588000060C00A4060B0099060C008D060B008286
:10589000060B0077060B006C060B0061060A00572A
:1058A000060B004C060A0042060A0038060A002EC3
:1058B000060A0024060A001A060A00100609000754
:1058C000060A00FD050900F4050900EB050900E2E0
:1058D000050900D9050900D0050900C7050900BE62
:1058E000050900B5050800AD050800A50509009CDF
:1058F000050800940508008C050800840508007C54
:10590000050800740508006C050700650508005DC2
:10591000050700560508004E05070047050700402B
:1059200005080038050700310507002A0507002390
:105930000507001C050600160507000F05070008EF
:1059400005060002050700FB040600F5040700EE4B
:10595000040600E8040600E2040700DB040600D5A4
:10596000040600CF040600C9040600C3040600BDF7
:10597000040600B7040600B1040500AC040600A646
:10598000040600A00405009B040600950405009091
:105990000406008A04050085040500800406007AD8
:1059A00004050075040500700405006B040500661D
:1059B000040500610405005C04050057040500525D
:1059C0000405004D04050048040500430405003E9D
:1059D0000404003A04050035040500300404002CDA
:1059E00004050027040400230405001E0404001A13
:1059F00004040016040500110404000D0404000949
:105A00000405000404040000040400FC030400F87E
:105A1000030400F4030400F0030400EC030400E8B2
:105A2000030400E4030400E0030400DC030400D8E2
:105A3000030400D4030400D0030400CC030400C812
:105A4000030300C50303001000AA03F0013A01900C
:105A500002220130031001D00302017004F700108C
:105A600005ED00B005E5005006DD00F006D700901A
:105A700007D1003008CC00D008C7007009C300105F
:105A80000ABE00B00ABB00500BB700F00BB3009089
:105A90000CB000D00DAA00100FA5005010A000906F
:105AA000119B00D0129600B014900090168B0070DD
:105AB000188500501A8000301C7B00B01E75003025
:105AC000216F00B02369003026640010285F009029
:105AD0002A5A00702C5500F02E4F0070314800B04B
