:100000000C941C230C944D230C944D230C944D23E1
:100010000C944D230C944D230C944D230C944D23A0
:100020000C944D230C944D230C944D230C944D2390
:100030000C944D230C944D230C944D230C944D2380
:100040000C944D230C9402B80C944D230C944D2326
:100050000C944D230C944D230D9463110C942A4A57
:100060000C944D230C94B1470C944D230C944D23C8
:100070000C944D230C944D230C944D230C944D2340
:100080000D94D62B0C944D230C944D230C944D239E
:100090000C944D230C944D230C944D230C944D2320
:1000A0000C944D230C944D230D94A92B0C944D23AB
:1000B0000C944D230C944D230C944D230D947C2BC8
:1000C0000C944D230C944D230C944D230C944D23F0
:1000D0000C944D230C944D230C944D230C944D23E0
:1000E0000C944D23A748AA4899489D48A348E14845
:1000F000AE48B248B848BC48C048C648CA48CE48CE
:10010000E148D448D848DC4846494B4950495A4907
:100110006449DD496E4976497E49884992499C493E
:10012000AB49B549DD49BF49C949D34942FC9BFCAC
:10013000CEFD95FFDE00D400E600F400CE00EE0018
:10014000E200F600D000F200084AD73B3BCE016E39
:1001500084BCBFFDC12F3D6C74319ABD56833DDA1E
:100160003D00C77F11BED9E4BB4C3E916BAAAABE2D
:10017000000000803F05A84CCDB2D44EB93836A956
:10018000020C50B9918688083CA6AAAA2ABE000093
:1001900000803F000D94A1170D9477070D940D1268
:1001A0000D9427120D94D5150D941E000D94C620A4
:1001B0000D9498130D9459380D9425140D9409003D
:1001C0000D94460A0D943B120D947A070D9423006A
:1001D0000D947C070D94AB130D9474070D94361297
:1001E0000D94BE360D94F2110D9408120D941C124C
:1001F0000D9494130D94CD1E4E414E494E495459C1
:10020000494E46CDCCCC3D0AD7233C17B7D13877E1
:10021000CC2B329595E6241FB14F0A0000204100F7
:1002200000C84200401C4620BCBE4CCA1B0E5AAE41
:10023000C59D74434F4D4D554E49434154494F4E12
:100240000044525952554E004552524F52530049A4
:100250004E464F004543484F00536C6565702E2E47
:100260002E00205A3A200020593A2000426564208E
:10027000583A2000542D52455820322B2072656187
:1002800064792E00526573756D696E6720707269AE
:100290006E7400436C69636B20746F2072657375B4
:1002A0006D652E2E2E004E6F206D6F76652E0045EB
:1002B0006E642066696C65206C6973740A0042651F
:1002C00067696E2066696C65206C6973740A0053F7
:1002D00044207072696E74696E672062797465205B
:1002E000004E6F74205344207072696E74696E679B
:1002F0000A0050726F7465637465642050696E0AF9
:100300000045256920257300542D52455820322B75
:100310002072656164792E0054024F024802410246
:1003200033026F66660044454255473A004B494CDC
:100330004C45442E20004D3131332053006F6B006B
:1003400048656174696E6720646F6E652E003F0AB0
:100350000020573A0045256920257300542D524549
:100360005820322B2072656164792E00426564202A
:10037000646F6E652E003F0A0020573A00426564A4
:100380002048656174696E672E00542D52455820CF
:10039000322B204F66662E004649524D574152453A
:1003A0005F4E414D453A4D61726C696E20202028A8
:1003B0004769746875622920534F555243455F431E
:1003C0004F44455F55524C3A68747470733A2F2FFE
:1003D0006769746875622E636F6D2F4D61726C6909
:1003E0006E4669726D776172652F4D61726C696ED0
:1003F0002050524F544F434F4C5F56455253494F34
:100400004E3A312E30204D414348494E455F5459B4
:1004100050453A542D52455820322B2045585452BD
:10042000554445525F434F554E543A322055554935
:10043000443A63656465326132662D343161322D30
:10044000343734382D396231322D633535633632E5
:100450006633363766660A007A5F6D696E3A200049
:10046000795F6D61783A2000785F6D61783A20009D
:10047000785F6D696E3A20005265706F7274696EB4
:100480006720656E6473746F702073746174757324
:100490000A004D31343520533C696E6465783E2046
:1004A0006F7574206F662072616E67652028302D2D
:1004B00031290A0053657474696E6720547261763D
:1004C000656C20416363656C65726174696F6E3A37
:1004D000200053657474696E67205265747261639D
:1004E0007420416363656C65726174696F6E3A2054
:1004F0000053657474696E67205072696E74204190
:100500006363656C65726174696F6E3A2000536550
:100510007474696E67205072696E7420616E642015
:1005200054726176656C20416363656C65726174B9
:10053000696F6E3A2000205A002059005800202090
:100540004D61783A2000205A0020590058002020A0
:100550004D696E3A20004F6E20004F666600536F63
:10056000667420656E6473746F70733A2000486F10
:1005700074656E64206F6666736574733A00206FED
:100580007574206F662072616E67650A005365722C
:10059000766F20003A200020536572766F20004B62
:1005A00064200023646566696E65202044454641E9
:1005B000554C545F004B69200023646566696E6585
:1005C000202044454641554C545F004B7020002389
:1005D000646566696E65202044454641554C545F0C
:1005E00000504944204175746F74756E65206669CA
:1005F0006E69736865642120507574207468652085
:100600006C617374204B702C204B6920616E6420E8
:100610004B6420636F6E7374616E74732066726FC7
:100620006D2062656C6F7720696E746F20436F6E0A
:1006300066696775726174696F6E2E680A00504949
:1006400044204175746F74756E65206661696C65D0
:1006500064212074696D656F75740A0050494420E7
:100660004175746F74756E65206661696C6564218F
:100670002054656D706572617475726520746F6F5A
:1006800020686967680A00204B643A2000204B69A3
:100690003A2000204B703A20000A20436C617373AB
:1006A000696320504944200A002054753A200020F4
:1006B0004B753A2000206D61783A2000206D696EFC
:1006C0003A200020643A200020626961733A2000D9
:1006D000426564204C6576656C696E6720004661F2
:1006E000696C656420746F20656E61626C65204280
:1006F0006564204C6576656C696E670A0065657097
:10070000726F6D5F73746F726167655F736C6F7426
:10071000203D200055424C5F4D4553485F56414CAB
:100720004944203D20003F454550524F4D207374B1
:100730006F72616765206E6F7420617661696C61AC
:10074000626C6520666F72207573652E0A0A004D13
:10075000343231207265717569726564207061721E
:10076000616D6574657273206D697373696E670A74
:10077000004D65736820706F696E742063616E6EE2
:100780006F74206265207265736F6C7665640A0011
:100790004F666673657473206170706C6965640080
:1007A0004572723A20546F6F206661722100546F57
:1007B0006F206661722066726F6D20726566657269
:1007C000656E636520706F696E740A003A20007A66
:1007D0005F6D696E3A20202D3230207A5F6D61782E
:1007E0003A20203230005A204F666673657420002C
:1007F0004E6F2063617365206C696768740A0055E9
:100800006E6B6E6F776E20636F6D6D616E643A20F4
:1008100022004E6F204C696E65204E756D626572C8
:10082000207769746820636865636B73756D2C202D
:100830004C617374204C696E653A20004B494C4CF6
:1008400045442E200053544F505045442E20005014
:1008500072696E7465722073746F70706564206461
:10086000756520746F206572726F72732E204669F1
:100870007820746865206572726F7220616E6420E2
:10088000757365204D39393920746F207265737422
:100890006172742E202854656D7065726174757272
:1008A000652069732072657365742E20536574200A
:1008B0006974206166746572207265737461727404
:1008C000696E67290A004E6F20436865636B737514
:1008D0006D2077697468206C696E65206E756D6235
:1008E00065722C204C617374204C696E653A20004F
:1008F000636865636B73756D206D69736D61746397
:10090000682C204C617374204C696E653A20004C51
:10091000696E65204E756D626572206973206E6F19
:1009200074204C617374204C696E65204E756D6245
:1009300065722B312C204C617374204C696E653AC2
:1009400020004D313130004D3331004D38342058C6
:100950002059205A20450053442072656164206567
:1009600072726F720A00446F6E65207072696E74E5
:10097000696E672066696C650A0020496E76616C55
:10098000696420657874727564657220000000E106
:10099000430000C8430000FA43000028C2000000E2
:1009A0000000000000486F6D6520257325732573D6
:1009B000206669727374002066697273740A005A43
:1009C0000059005800486F6D65200053544F502067
:1009D00063616C6C65642062656361757365206F2B
:1009E0006620424C546F756368206572726F722086
:1009F0002D20726573746172742077697468204D5C
:100A00003939390A0053544F502063616C6C656466
:100A10002062656361757365206F6620424C546F78
:100A2000756368206572726F72202D207265737411
:100A30006172742077697468204D3939390A000071
:100A4000002100240027002A002D0030003300017F
:100A5000010000040107010A01436172642072650C
:100A60006D6F766564004361726420696E736572B0
:100A70007465640000060900FE070192032120FF4F
:100A8000FF08FF07FF00000006000001070706023D
:100A90000080808080800080030202060105A0A003
:100AA0000507070600005050F850F850500507079A
:100AB0000600002078A07028F02005070706000037
:100AC000C0C810204098180507070600006090A0D5
:100AD00040A89068020303060104C0408003070792
:100AE00006010020408080804020030707060100A7
:100AF0008040202020408005050506000120A870C8
:100B0000A8200505050600012020F8202002030387
:100B10000602FFC04080050101060003F802020240
:100B2000060200C0C005050506000108102040802F
:100B30000507070600007088888888887003070703
:100B400006010040C040404040E0050707060000A5
:100B5000708808708080F8050707060000F81020EC
:100B6000100808F005070706000010305090F81034
:100B700010050707060000F880F0080888700507D0
:100B800007060000708080F088887005070706005F
:100B900000F80810202020200507070600007088B4
:100BA00088708888700507070600007088887808B4
:100BB0000870020505060200C0C000C0C00206069B
:100BC0000602FFC0C000C0408004070706000010F6
:100BD000204080402010050303060002F800F804BE
:100BE0000707060100804020102040800507070607
:100BF000000070880810200020050707060000701C
:100C0000880868A8A870050707060000708888F89B
:100C1000888888050707060000F08888F08888F033
:100C20000507070600007088808080887005070728
:100C3000060000F08888888888F00507070600000D
:100C4000F88080F08080F8050707060000F88080B3
:100C5000F0808080050707060000708880B88888CB
:100C600070050707060000888888F88888880107CB
:100C700007060200808080808080800507070600CC
:100C800000381010101090600507070600008890CB
:100C9000A0C0A090880507070600008080808080A3
:100CA00080F805070706000088D8A8888888880586
:100CB00007070600008888C8A898888805070706DF
:100CC000000070888888888870050707060000F093
:100CD0008888F08080800507070600007088888873
:100CE000A89068050707060000F08888F0A09088A3
:100CF000050707060000788080700808F0050707E0
:100D0000060000F82020202020200507070600000C
:100D10008888888888887005070706000088888882
:100D2000888850200507070600008888888888A8DA
:100D3000500507070600008888502050888805075E
:100D40000706000088888850202020050707060035
:100D500000F80810204080F8030707060100E08033
:100D600080808080E0050505060001804020100895
:100D7000030707060100E02020202020E0050303F0
:100D8000060004205088050101060000F802020256
:100D90000602058040050505060000700878887881
:100DA0000507070600008080B0C88888F0050505A3
:100DB000060000708080887005070706000008089C
:100DC00068988888780505050600007088F88070A6
:100DD0000507070600003048E04040404005060691
:100DE0000600FF70888878087005070706000080F5
:100DF00080B0C888888801070706020080008080CC
:100E00008080800308080601FF200020202020A009
:100E100040040707060000808090A0C0A090030750
:100E200007060100C04040404040E00505050600BF
:100E300000D0A8A8A8A8050505060000B0C88888A5
:100E40008805050506000070888888700506060676
:100E500000FFF08888F080800506060600FF78888D
:100E600088780808050505060000B0C88080800560
:100E7000050506000070807008F0040707060000F2
:100E80004040E04040403005050506000088888865
:100E90009868050505060000888888502005050526
:100EA0000600008888A8A85005050506000088509F
:100EB0002050880506060600FF8888887808700597
:100EC0000505060000F8102040F80307070601009A
:100ED00020404080404020010707060200808080BB
:100EE000808080800307070601008040402040404A
:100EF0008005020206000268900000000600000063
:100F000000000600000000000600000000000600CF
:100F100000000000060000000000060000000000C5
:100F200006000000000006000000000006000000AF
:100F3000000006000000000006000000000006009F
:100F40000000000006000000000006000000000095
:100F5000060000000000060000000000060000007F
:100F6000000006000000000006000000000006006F
:100F70000000000006000000000006000000000065
:100F8000060000000000060000000000060000004F
:100F9000000006000000000006000000000006003F
:100FA0000000000006000000000006000000000035
:100FB000060000000000060000000000060000001F
:100FC0000000060000010707060200800080808004
:100FD00080800507070600002070A8A0A8702005E3
:100FE0000707060000304040E04050A80505050610
:100FF00000008870507088050707060000885020A0
:10100000F820F82001070706020080808000808019
:1010100080050808060000304820505020906003EA
:101020000101060107A0050707060000F888B8B807
:10103000B888F8050707060001700878887800F876
:101040000505050600012850A050280503030600E9
:1010500001F808080202020602064080050707069A
:101060000000F888A88898A8F8050101060006F88D
:101070000404040600036090906005070706000062
:101080002020F8202000F8040505060003609020C9
:1010900040F0030505060003E020E020E002020224
:1010A00006020640800508080600FF8888888898A0
:1010B000E8808005070706000078989878181818C7
:1010C000020202060202C0C00202020602FF4080C3
:1010D00003050506000340C04040E0050707060081
:1010E00001708888887000F8050505060001A05089
:1010F0002850A00507070600008890A858B80808DF
:101100000507070600008890B848982038050808A9
:10111000060000C040C048D8380808050707060088
:10112000002000204080887005080806000040204C
:10113000007088F8888805080806000010200070F4
:1011400088F888880508080600002050007088F894
:1011500088880508080600006890007088F888886C
:101160000508080600005000708888F8888805087F
:10117000080600002050207088F8888805070706B8
:1011800000003860A0B8E0A0B80508080600FF70AD
:1011900088808088702060050808060000402000D4
:1011A000F880F080F8050808060000081000F880B4
:1011B000F080F8050808060000205000F880F08054
:1011C000F80507070600005000F880F080F80308D3
:1011D00008060100804000E0404040E003080806A7
:1011E0000100204000E0404040E003080806010004
:1011F00040A000E0404040E0030707060100A000D7
:10120000E0404040E0050707060000704848E84815
:10121000487005080806000068900088C8A89888EB
:101220000508080600004020708888888870050836
:101230000806000010207088888888700508080655
:10124000000020500070888888700508080600009B
:1012500068900070888888700508080600005000B3
:101260007088888888700505050600018850205020
:10127000880508080600FF1070A8A8A8A8704005F7
:1012800008080600004020888888888870050808BB
:1012900006000010208888888888700508080600E5
:1012A00000205000888888887005080806000050D3
:1012B0000088888888887005080806000010208843
:1012C00050202020200509090600FFC04070484832
:1012D000704040E00408080601FF609090A09090E4
:1012E000E080050808060000402000700878887833
:1012F00005080806000010200070087888780508A6
:101300000806000020500070087888780508080654
:1013100000006890007008788878050707060000CC
:1013200050007008788878050808060000205020D2
:101330007008788878050606060000D02878A0A8EE
:10134000500506060600FF708088702060050808BA
:101350000600004020007088F8807005080806002C
:10136000001020007088F880700508080600002032
:1013700050007088F8807005070706000050007064
:1013800088F8807003080806010080400040C040D3
:1013900040E003080806010020400040C04040E053
:1013A00003080806010040A00040C04040E00307D9
:1013B00007060100A00040C04040E0050707060006
:1013C00000A040A01078887005080806000068900A
:1013D00000B0C88888880508080600004020007012
:1013E000888888700508080600001020007088882A
:1013F00088700508080600002050007088888870F2
:101400000508080600006890007088888870050745
:1014100007060000500070888888700505050600E2
:10142000012000F800200507070600FF1070A8A89B
:10143000A8704005080806000040200088888898A9
:10144000680508080600001020008888889868054C
:10145000080806000020500088888898680507075B
:10146000060000500088888898680509090600FF72
:10147000102000888888F808700407070601FFC05C
:101480004060506040E00508080600FF5000888872
:101490008878087045787472756465723200457892
:1014A0007472756465723100457874727564657222
:1014B000004D6F7665205A004D6F76652059004DBE
:1014C0006F766520580050726570617265005265D4
:1014D00073746F7265206661696C73616665004C38
:1014E0006F6164206D656D6F72790053746F726502
:1014F000206D656D6F72790046696C616D656E7403
:10150000004D6F74696F6E0054656D706572617423
:10151000757265004D61696E005072656865617431
:101520002041425320636F6E6600507265686561AA
:101530007420504C4120636F6E66005049442D4426
:10154000005049442D44005049442D49005049441D
:101550002D49005049442D50005049442D50002041
:1015600008204661637400200820466163740020EF
:1015700008204D6178002008204D61780020082067
:101580004D6178002008204D696E002008204D69CB
:101590006E002008204D696E004F6666004F6E2079
:1015A000004175746F74656D700046616E207370D4
:1015B00065656420320046616E2073706565642045
:1015C000320046616E2073706565642031004661AB
:1015D0006E20737065656420310042656400426569
:1015E00064004E6F7A7A6C652032004E6F7A7A6CA6
:1015F000652032004E6F7A7A6C652031004E6F7A2A
:101600007A6C65203100436F6E74726F6C00537496
:101610006F7265206D656D6F72790042656400427E
:101620006564004E6F7A7A6C65004E6F7A7A6C65ED
:101630000046616E2073706565640046616E2073BC
:10164000706565640054656D70657261747572656E
:10165000004D65736820506F696E74204D6561732D
:10166000757265642061743A20000A4D65736820C4
:101670006F6E6C79207061727469616C6C79207026
:101680006F70756C617465642E0A00417474656DC9
:10169000707420746F2070726F6265206F666620B0
:1016A000746865206265642E0A00556E6966696516
:1016B0006420426564204C6576656C696E67200025
:1016C0006163746976617465642E0A0A006465005A
:1016D00053797374656D2000496E76616C6964207E
:1016E0006D617020747970652E0A0A00496E76610A
:1016F0006C6964206D617020747970652E0A0A002F
:101700003F284629616465206865696768742066BA
:101710006F7220426564204C6576656C20436F7261
:1017200072656374696F6E206E6F7420706C617582
:101730007369626C652E0A0A003F43616E2774204C
:10174000616374697661746520616E6420646561AB
:1017500063746976617465206174207468652073B0
:10176000616D652074696D652E0A0A00496E7661A7
:101770006C69642059206C6F636174696F6E2073AB
:1017800070656369666965642E0A0A00496E766150
:101790006C69642058206C6F636174696F6E20738C
:1017A00070656369666965642E0A0A00426F746831
:1017B000205820262059206C6F636174696F6E7306
:1017C000206D757374206265207370656369666946
:1017D00065642E0A0A00496E76616C69642067723E
:1017E00069642070726F626520706F696E74732017
:1017F0007370656369666965642E0A0A003F28563E
:10180000296572626F7365204C6576656C2069731B
:1018100020696D706C61757369626C652028302D6C
:1018200034290A0A003F2852296570657469746971
:101830006F6E20636F756E7420696E76616C69647B
:101840002028312B292E0A0A00446F696E67204731
:1018500032392055424C2100736176655F55424C08
:101860005F6163746976652829206572726F720002
:10187000736176655F75626C5F6163746976655FDD
:1018800073746174655F616E645F64697361626CD7
:10189000656428292063616C6C6564206D756C74C7
:1018A00069706C652074696D657320696E206120B4
:1018B000726F772E0A00726573746F72655F55429E
:1018C0004C5F6163746976652829206572726F7256
:1018D00000726573746F72655F75626C5F616374CB
:1018E0006976655F73746174655F616E645F6C6572
:1018F00061766528292063616C6C656420746F6F64
:10190000206D616E792074696D65732E0A007361B4
:101910006E69747920636865636B7320706173739B
:1019200065642E0A000A4D4553485F595F44495388
:10193000542020202020202020000A4D4553485FBD
:10194000585F444953542020202020202020000AA2
:1019500055424C5F4D4553485F4D41585F592020DB
:1019600020202020202020000A55424C5F4D455366
:10197000485F4D41585F5820202020202020202003
:10198000000A55424C5F4D4553485F4D494E5F59E3
:10199000202020202020202020000A55424C5F4D8E
:1019A0004553485F4D494E5F58202020202020207D
:1019B0002020000A475249445F4D41585F504F492B
:1019C0004E54535F592020000A475249445F4D410D
:1019D000585F504F494E54535F5820200073697A26
:1019E000656F662875626C2E737461746529203A80
:1019F0002000206D65736865732E0A0A0045455006
:101A0000524F4D2063616E20686F6C642000454525
:101A100050524F4D206672656520666F72205542A8
:101A20004C3A20007A5F76616C75655B5D5B5D208A
:101A300073697A653A200073697A656F6628756202
:101A40006C29203A202000656E64206F6620454591
:101A500050524F4D202020202020202020202020C8
:101A600020203A20004672656520454550524F4D72
:101A70002073706163652073746172747320617484
:101A80003A200075626C5F73746174655F726563A0
:101A9000757273696F6E5F63686B203A0075626C74
:101AA0005F73746174655F61745F696E766F6361A3
:101AB00074696F6E203A00202073746174653A0077
:101AC0004B696C6C2070696E206F6E203A0020208C
:101AD00000592D41786973204D65736820506F69F6
:101AE0006E74732061743A2000202000582D4178D4
:101AF0006973204D65736820506F696E747320613F
:101B0000743A200075626C2E656570726F6D5F733C
:101B1000746172743D007A5F6F66667365743A2013
:101B2000007A70726F62655F7A6F66667365743A89
:101B30002000706C616E6E65722E7A5F66616465FE
:101B40005F686569676874203A200055424C206FD1
:101B5000626A65637420636F756E743A2000204C6E
:101B60006F616465642E004D65736820004E6F20C0
:101B70004D657368204C6F616465642E0063746901
:101B800076652E0A0A00496E610053797374656D9B
:101B90002056657273696F6E20312E303020003A06
:101BA0002000454550524F4D2044756D703A0A0053
:101BB000206C6F616465642066726F6D20454550CE
:101BC000524F4D20616464726573732000537562D7
:101BD0007472616374696E67204D65736820003F9D
:101BE000454550524F4D2073746F72616765206E8A
:101BF0006F7420617661696C61626C6520666F72DA
:101C0000207573652E0A0A003F4D657368202320F6
:101C100072657175697265642E0A0A005072656892
:101C200065617420414253204265640050726568CA
:101C30006561742041425320416C6C0050726568AC
:101C40006561742041425320456E64204532005046
:101C5000726568656174204142532032005072659C
:101C6000686561742041425320456E64204531000F
:101C70005072656865617420414253203100507292
:101C80006570617265004732380A47323900473261
:101C900039004C6576656C206265640043616E6353
:101CA000656C004D343238004D32383020503020D1
:101CB0005331363000526573657420424C546F7551
:101CC0006368004D323830205030205331323000BC
:101CD000424C546F7563682053656C662D54657370
:101CE00074005072656865617420414253005072FF
:101CF000656865617420504C4100436F6F6C646F80
:101D0000776E004D38340044697361626C652073EE
:101D1000746570706572730053657420686F6D65CB
:101D2000206F666673657473004C6576656C20621F
:101D30006564004D35004C61736572206F66660006
:101D40004D33004C61736572206F6E004D3232343A
:101D5000004C6564206F6666004D323235004C657C
:101D600064206F6E00473238004175746F20686FD1
:101D70006D65004D6F76652061786973004D61690E
:101D80006E004D6F76652058004D6F7665205900C6
:101D90004D6F7665205A00457874727564657232AD
:101DA00000457874727564657231004D6F766520F8
:101DB000302E316D6D004D6F766520316D6D004DAB
:101DC0006F76652031306D6D004D6F7665206178DE
:101DD0006973004578747275646572004D6F76653D
:101DE000205A004D6F76652059004D6F766520585A
:101DF000004572726F722077726974696E67207421
:101E00006F20454550524F4D210A0020627974657C
:101E100073290A0053657474696E67732053746F75
:101E200072656420280055424C2053797374656DA7
:101E300020726573657428290A00206C6F616465DF
:101E4000642066726F6D2073746F726167652E0A0D
:101E5000004D65736820000A556E696669656420E7
:101E6000426564204C6576656C696E672073797392
:101E700074656D20696E697469616C697A65642E38
:101E80000A0A003F556E61626C6520746F20656EB2
:101E900061626C6520556E6966696564204265649F
:101EA000204C6576656C696E672073797374656D17
:101EB0002E0A00616374697665210A002055424C40
:101EC0002000454550524F4D20636865636B737524
:101ED0006D206D69736D617463680A0020627974A6
:101EE0006573290A002073746F72656420736574CA
:101EF00074696E67732072657472696576656420B3
:101F00002800204D61726C696E3D563337290A00F6
:101F100028454550524F4D3D00454550524F4D20AC
:101F200076657273696F6E206D69736D6174636835
:101F3000200048617264636F646564204465666173
:101F4000756C742053657474696E6773204C6F618F
:101F50006465640A0000002200250028002B002E82
:101F6000003100340002010000050108010B0100EE
:101F70000020002300260029002C002F0032000042
:101F80000100000301060109010505050507050813
:101F9000080808020202020A0A08080404040401EC
:101FA000010101010101010303030303030303040E
:101FB0000707070C0C0C0C0C0C0C0C02020202069E
:101FC000060606060606060B0B0B0B0B0B0B0B018E
:101FD000021020200808102040102040800201023A
:101FE0000108040201010204081020408080402002
:101FF000100804020180040201804020100804023D
:1020000001080402010102040810204080010204BA
:10201000081020408000000A0B02090C0D0E080772
:1020200003040100000000000000000000000000A8
:1020300000000000000000000000000000000000A0
:10204000001211100000000000000000000000005D
:1020500000000000000000000000004B494C4C450F
:10206000442E2000202D20496E76616C6964206525
:1020700078747275646572206E756D626572202168
:102080000A002020506C616E6E657242756666654E
:102090007242797465733A20002046726565204D5E
:1020A000656D6F72793A2000436F6D70696C65647D
:1020B0003A204F637420323920323031370A002001
:1020C0007C20417574686F723A20286E6F6E652CA3
:1020D0002064656661756C7420636F6E666967293C
:1020E0000A00323031372D30352D30342031323A3C
:1020F000303000204C6173742055706461746564E5
:102100003A2000200A004D61726C696E0020536F06
:102110006674776172652052657365740A00205792
:1021200061746368646F672052657365740A002088
:1021300042726F776E206F75742052657365740AF2
:10214000002045787465726E616C20526573657409
:102150000A00506F77657255700A0073746172746B
:102160000A006572726F722077726974696E6720F7
:10217000746F2066696C650A00456E6473746F70D5
:102180007320256320256320256320256300205AC2
:102190003A0020593A0020583A00656E6473746F13
:1021A0007073206869743A2000446F6E6520736113
:1021B00076696E672066696C652E0A004D323900BB
:1021C0002040002042403A0020403A00202F0020CA
:1021D0005400202F0020423A00202F0020543A00C3
:1021E000205A3A0020593A0020436F756E742058E7
:1021F0003A0020453A00205A3A0020593A00583A0D
:102200000020643A0020693A0020703A0020643AC5
:102210000020693A0020703A0043290A0061626C8C
:10222000656420286D696E2074656D702000436FB1
:102230006C642065787472756465732061726520C2
:1022400000486F74656E64206F6666736574733AD8
:1022500000416374697665204578747275646572AF
:102260003A20004E6F206D6F7665206F6E20746F80
:102270006F6C6368616E67650A007C3C3E5E2B3D57
:102280003F2F5B5D3B2C2A225C00205A3A20002025
:10229000593A200042656420583A200047322F47BF
:1022A000332062616420706172616D657465727360
:1022B0000A005A2070726F6265206F75742E20625A
:1022C00065640A005A2070726F6265206F75742E03
:1022D0002062656400473238205A20466F72626976
:1022E0006464656E0A00473238205A20466F726275
:1022F000696464656E0046696C652064656C65742C
:1023000065643A0044656C6574696F6E2066616946
:102310006C65642C2046696C653A20006F70656EB0
:10232000206661696C65642C2046696C653A200002
:102330002569730025696D2025697300256968206A
:1023400025696D2025697300256964202569682049
:1023500025696D2025697300256979202569642028
:102360002569682025696D20256973005072696EA2
:10237000742074696D653A200020746F6F206C6F53
:102380006E6720657874727573696F6E2070726500
:1023900076656E7465640A0020636F6C64206578EE
:1023A00074727573696F6E2070726576656E746590
:1023B000640A0043616E6E6F74206F70656E2073E7
:1023C000756264697220006563686F3A005448451D
:1023D000524D414C2052554E415741590054686569
:1023E000726D616C2052756E61776179000000003A
:1023F000004992E44149926442B76DAB424992E48C
:10240000426EDB0E43B76D2B430000484349926494
:1024100043499280436EDB8E4392249D43B76DAB5C
:1024200043DBB6B9430000C8432449D6432C207986
:10243000693D002C2078315F693D003F20696E20A6
:102440006765745F7A5F636F7272656374696F6EDC
:102450005F616C6F6E675F766572746963616C5FF4
:102460006D6573685F6C696E655F61745F737065DD
:1024700063696669635F78286C79303D000000000D
:10248000000000007F80000000000000000000004D
:1024900000000007FFF8000000000000000000003E
:1024A0000000000FFFFE0000000000000000000020
:1024B0000000007FFFFF800000000000000000001F
:1024C000000007FFFFFFF000000000000000000018
:1024D00000001F800000000000000000000000005D
:1024E00000007F000000000000000000000000006D
:1024F0000000FE00000000000000000000000000DE
:102500000000FE00000000000000000000000000CD
:102510000001FE007FFFFFE000000000000000005F
:102520000001FE01FFFFFFE00000000000000000CE
:102530000001FE01FFFFFFE00000000000000000BE
:102540000001FE01FFFFFFE00000000000000000AE
:102550000001FE01FFFFFFE000000000000000009E
:102560000001FE01FFFFFFE000000000000000008E
:102570000001FE01FFFFFFE000000000000000007E
:102580000001FE01FFFFFFE000000000000000006E
:102590000001FE01FFFFFFE000000000000000005E
:1025A0000001FE01FFFFFFE000000000000000004E
:1025B0000001FE000000000000000000000000001C
:1025C0000001FE000000000000000000000000000C
:1025D0000001FE00000000000000000000000000FC
:1025E0000000FE00000000000000000000000000ED
:1025F0000000FE01FFFFFFE00000000000000000FF
:102600000000FE01FFFFFFE00000000000000000EE
:1026100000001E01FFFFFF0000000000000000009E
:1026200000000601FFFFF8000000000000000000AD
:1026300000000101FFFFF0000000000000000000AA
:1026400000000071FFFF000000000000000000001B
:1026500000000009FFF8000000000000000000007A
:1026600000000007FFF8000000000000000000006C
:10267000000000007F0000000000000000000000DB
:10268000000000000000000000000000000000004A
:10269000000000000000000000000000000000003A
:1026A000000000000000000000000000000000002A
:1026B000000000000000000000000000000000001A
:1026C000000000000000000000000000000000000A
:1026D00000000000000000000000000000000000FA
:1026E000000000000000000000000000000000FFEB
:1026F00087F81FF0F0787F80FF0FFE00000000E0F9
:102700001E0F1878F8F871878780E000000000E05D
:1027100018071878F8F871870180E000000000FFC2
:1027200018071870F9F8FF8701E0E000000000E0EA
:10273000180719819FF8F1870180E000000000E090
:10274000180718E19FF8E1878180E000000000E0B1
:102750001F1E18F18F78E1878780E000000001805C
:1027600007F018718E78FE007800800000000000ED
:10277000000000000000000000000000000024F441
:10278000D43050C38E20C2A24017828B7011127AAF
:10279000910D816CD90AA861E108C758660761519B
:1027A00043061E4B5D05C145A7041A411104093DAE
:1027B0009803713931034036DB0265339102D4301E
:1027C0005402802E1D02632CEE01752AC501B0282B
:1027D000A001102781018F2564012B244B01E022E9
:1027E0003401AC211F018D200D01801FFC00841ECF
:1027F000ED00971DDF00B81CD200E61BC600201BB1
:10280000BC00641AB200B219A8000A19A0006A1824
:102810009900D117910040178B00B516840031162E
:102820007E00B31579003A157300C7146F00581471
:102830006A00EE1366008813630025135E00C7125A
:102840005B006C12570015125400C1115100701139
:102850004F0021114B00D61049008D104700461043
:10286000440002104200C00F4000800F3E00420FA3
:102870003C00060F3B00CB0E3800930E37005C0E79
:102880003500270E3400F30D3200C10D3100900DDC
:102890003000600D2E00320D2D00050D2C00D90CDE
:1028A0002B00AE0C2900850C29005C0C2700350C90
:1028B00027000E0C2600E80B2400C40B2400A00BFC
:1028C00023007D0B23005A0B2100390B2100180B2C
:1028D0002000F80A1F00D90A1E00BB0A1E009D0A2C
:1028E0001D00800A1D00630A1C00470A1B002C0AF9
:1028F0001B00110A1A00F7091A00DD091900C409A2
:102900001900AB091900920917007B091800630927
:1029100017004C09160036091600200916000A098E
:102920001500F5081500E0081400CC081400B808DC
:102930001400A4081400900813007D0812006B080E
:10294000130058081200460812003408110023082A
:1029500011001208110001081100F0071000E00733
:102960001000D0071000C0071000B0070F00A1072B
:10297000100091070E0083070F0074070F00650712
:102980000E0057070E0049070E003B070D002E07EB
:102990000E0020070D0013070D0006070D00F906B5
:1029A0000C00ED060D00E0060C00D4060C00C80675
:1029B0000C00BC060C00B0060C00A4060B00990627
:1029C0000C008D060B0082060B0077060B006C06D0
:1029D0000B0061060A0057060B004C060A0042066F
:1029E0000A0038060A002E060A0024060A001A0603
:1029F0000A001006090007060A00FD050900F40593
:102A00000900EB050900E2050900D9050900D00518
:102A10000900C7050900BE050900B5050800AD0598
:102A20000800A50509009C050800940508008C0510
:102A30000800840508007C050800740508006C0582
:102A40000700650508005D050700560508004E05EE
:102A50000700470507004005080038050700310555
:102A600007002A050700230507001C0506001605B8
:102A700007000F0507000805060002050700FB0414
:102A80000600F5040700EE040600E8040600E20470
:102A90000700DB040600D5040600CF040600C904C5
:102AA0000600C3040600BD040600B7040600B10416
:102AB0000500AC040600A6040600A00405009B0463
:102AC000060095040500900406008A0405008504AC
:102AD0000500800406007A040500750405007004F2
:102AE00005006B04050066040500610405005C0434
:102AF000050057040500520405004D040500480474
:102B00000500430405003E0404003A0405003504B2
:102B10000500300404002C040500270404002304ED
:102B200005001E0404001A04040016040500110424
:102B300004000D040400090405000404040000045A
:102B40000400FC030400F8030400F4030400F00391
:102B50000400EC030400E8030400E4030400E003C1
:102B60000400DC030400D8030400D4030400D003F1
:102B70000400CC030400C8030300C503030024F4CD
:102B800004D9201BC40C5C0E9804C4095F026507BD
:102B90007101F405F900FB04B30048048700C10388
:102BA00069005803550003034500BE023A00840241
:102BB000310053022A002902250004022000E4010A
:102BC0001C00C8011900AF0117009801140084010E
:102BD0001300710110006101100051010E0043014A
:102BE0000D0036010B002B010B0020010B0015011D
:102BF00009000C01090003010800FB000800F300B4
:102C00000800EB000700E4000600DE000600D80024
:102C10000600D2000600CC000500C7000500C20077
:102C20000500BD000400B9000400B5000400B100B7
:102C30000400AD000400A9000400A5000300A200E8
:102C400003009F0004009B00030098000300950010
:102C5000020093000300900003008D0002008B002F
:102C60000300880002008600020084000300810047
:102C700002007F0002007D0002007B00020079005C
:102C8000020077000100760002007400020072006A
:102C90000100710002006F0002006D0001006C0075
:102CA00002006A000100690002006700010066007E
:102CB0000100650001006400020062000100610083
:102CC0000100600001005F0002005D0001005C0087
:102CD00001005B0001005A0001005900010058008A
:102CE000010057000100560001005500010054008A
:102CF0000100530000005300010052000100510088
:102D00000100500001004F0001004E0000004E0085
:102D100001004D0001004C0001004B0000004B0081
:102D200001004A000100490001004800000048007D
:102D30000100470001004600000046000100450078
:102D40000000450001004400010043000000430072
:102D5000010042000000420001004100000041006B
:102D60000100400001003F0000003F0001003E0064
:102D700000003E0001003D0000003D0001003C005D
:102D800000003C0000003C0001003B0000003B0054
:102D900001003A0000003A0001003900000039004B
:102DA0000100380000003800000038000100370042
:102DB0000000370001003600000036000000360039
:102DC000010035000000350000003500010034002E
:102DD0000000340000003400010033000000330024
:102DE0000000330001003200000032000000320019
:102DF000010031000000310000003100010030000E
:102E0000000030000000300001002F0000002F0003
:102E100000002F0000002F0001002E0000002E00F7
:102E200000002E0001002D0000002D0000002D00EC
:102E300000002D0001002C0000002C0000002C00E0
:102E400000002C0001002B0000002B0000002B00D4
:102E500000002B0001002A0000002A0000002A00C8
:102E600000002A00010029000000290000002900BC
:102E700000002900000029000100280000002800AF
:102E800000002800000028000000280001002700A2
:102E90000000270000002700000027000000270096
:102EA0000100260000002600000026000000260089
:102EB000000026000100250000002500000025007C
:102EC000000025000000250000002500010024006E
:102ED0000000240000002400000024000000240062
:102EE0000100230000002300000023000000230055
:102EF0000000230000002300000023000100220046
:102F00000000220000002200000022000000220039
:102F1000000022000100210000002100000021002B
:102F2000000021000000210000002100000021001D
:102F30000100200000002000000020000000200010
:102F40000000200000002000000020000000200001
:102F500001001F0000001F0000001F0000001F00F4
:102F600000001F0000001F0000001F0001001E00E5
:102F700000001E0000001E0000001E0000004D3872
:102F80003420582059205A2045004D65736820454B
:102F90006469746F7200446F6E652045646974697A
:102FA0006E67204D6573680A00446F6E6520456446
:102FB0006974696E67204D657368004D657368209C
:102FC00045646974696E672053746F70706564003E
:102FD000417474656D707420746F20656469742029
:102FE0006F666620746865206265642E0A00466913
:102FF0006E652054756E696E67204D657368005D5F
:103000000A0062656420706C616E65206E6F726D7F
:10301000616C203D205B002020443D002020423D8B
:10302000004C534620526573756C747320413D000B
:103030002D2D2D2D2D2D2D2D2D2D2D2D2D002029FE
:10304000202020002C20002C20002C2000202920D3
:10305000202064657374696E6174696F6E3D282009
:10306000002C20002C20002C200020202020637524
:103070007272656E743D28200020202066706D6D90
:103080003D000000004100001042000080420000AE
:10309000B8420000F042000014430000304300003A
:1030A0004C4300006843000082430000904300004E
:1030B0009E430000AC430000BA430000C843000038
:1030C000D6432C79693D002C78315F693D003F2063
:1030D000696E207A5F636F7272656374696F6E5F89
:1030E000666F725F785F6F6E5F686F72697A6F6E1E
:1030F00074616C5F6D6573685F6C696E65286C7870
:10310000303D0025753A2530327500253032753A4C
:10311000253032750025756420253032753A25300A
:103120003275005A005900580009200000000000C4
:1031300000000000000000007FFFE0000000000031
:10314000000000000000007000E00000000000002F
:1031500000000000000061F86000000000000000B6
:10316000000000000041F820000000000000000006
:103170000000000040F020000000000000000000FF
:10318000000000406020000000000000000000007F
:1031900000005801A07F80003FC0000000004104F3
:1031A000005C63A0FBC00079E0000000002082000A
:1031B0005EF7A0F3C00076E0000000002082005E11
:1031C000F7A0EBC0007EE0000000004104005C635B
:1031D000A07B80003DC0000000008208005801A0D4
:1031E0007B80003BC000000001041000406020FB19
:1031F000C00077E00000000104100040F020FBC098
:103200000070E00000000082080041F820FFC000CC
:103210007FE00000000041040061F8603F00001FF3
:1032200080000000000000007000E01E00000F00A1
:1032300000000001FFFF807FFFE00C00000600009F
:10324000000001FFFF8000000000000000000000FF
:1032500000000000007FFFE0000000000000000010
:10326000000000007000E00000000000000000000E
:10327000000000630C60000000000000000000007F
:103280000000470E200000000000000000000000C9
:10329000004F0F20000000000000000000000000B0
:1032A0005F0FA00000000000000000000000005EB2
:1032B00007A07F80003FC000000000410400406084
:1032C00020FBC00079E00000000020820040F020D8
:1032D000F3C00076E00000000020820040F020EB08
:1032E000C0007EE0000000004104004060207B80C0
:1032F000003DC0000000008208005E07A07B800047
:103300003BC0000000010410005F0FA0FBC000776D
:10331000E0000000010410004F0F20FBC00070E02F
:1033200000000000820800470E20FFC0007FE00080
:10333000000000410400630C603F00001F8000009B
:1033400000000000007000E01E00000F0000000000
:1033500001FFFF807FFFE00C00000600000000017D
:10336000FFFF8000000000060900FE0000000000D2
:1033700001090008FE000005080806000040F0C82A
:103380008888987810050808060000C0F8888888A2
:103390008888F80505050600012030F8302005086A
:1033A000080600002070F820202020E0050909060A
:1033B00000FF2070A8A8B8888870200509090600B9
:1033C000FFE080C0B0A8283028280509090600FFC2
:1033D000F8A88888888888A8F8050A0A0600FE20C8
:1033E0005050505088A8A88870030303060003407B
:1033F000A04053442063617264206F6B0A006F70B9
:10340000656E526F6F74206661696C65640A007640
:103410006F6C756D652E696E6974206661696C6587
:10342000640A00534420696E6974206661696C0AFD
:10343000006175746F25692E67004D3234004D327E
:10344000332025730057726974696E6720746F208A
:1034500066696C653A20006F70656E206661696C04
:1034600065642C2046696C653A20006F70656E209B
:103470006661696C65642C2046696C653A2000467B
:10348000696C652073656C65637465640A0020531C
:10349000697A653A200046696C65206F70656E65D3
:1034A000643A20006F70656E206661696C65642CFB
:1034B0002046696C653A20002066696C653A2000F8
:1034C0004E6F7720002220706F730022207061728F
:1034D000656E743A2200535542524F5554494E4539
:1034E0002043414C4C207461726765743A22004B52
:1034F000494C4C45442E2000747279696E672074E3
:103500006F2063616C6C207375622D67636F6465F7
:103510002066696C6573207769746820746F6F200A
:103520006D616E79206C6576656C732E204D415807
:10353000206C6576656C2069733A004572726F7213
:103540003A0020204D383531205A005A2D50726FE4
:103550006265204F666673657420286D6D293A0A8E
:103560000020440020490020204D333034205000FA
:1035700020440020490020204D33303120500020CD
:10358000440020490020500020204D333031204598
:10359000005049442073657474696E67733A0A0079
:1035A00020460020420020480020204D31343520A4
:1035B00053004D6174657269616C20686561747552
:1035C0007020706172616D65746572733A0A004DA6
:1035D0004553485F595F444953542020004D45539B
:1035E000485F585F444953542020003D0055424CE9
:1035F0005F4D4553485F4D41585F59202028343076
:1036000030202D2028302929003D0055424C5F4DA7
:103610004553485F4D41585F5820202834353020AD
:103620002D202835302929003D0055424C5F4D455D
:1036300053485F4D494E5F5920202830202B2030C1
:1036400029003D0055424C5F4D4553485F4D494E62
:103650005F582020282D3432202B20353029004778
:103660005249445F4D41585F504F494E54535F5942
:10367000202000475249445F4D41585F504F494E0A
:1036800054535F58202000206D65736865732E0ABF
:103690000A00454550524F4D2063616E20686F6CA3
:1036A0006420007A5F6F66667365743A2000637405
:1036B0006976650A0A416374697665204D657368A9
:1036C00020536C6F743A2000496E61000A55424CD9
:1036D0002069732000205A0020204D3432302053BE
:1036E00000556E696669656420426564204C6576A4
:1036F000656C696E673A0A00205A0020590020580C
:103700000020204D323138205400486F74656E64BB
:10371000206F6666736574733A0A00205A00205958
:103720000020204D323036205800486F6D65206FE4
:1037300066667365743A0A00204500205A002059D5
:103740000020580020420020540020204D32303507
:10375000205300416476616E6365643A20533C6D8A
:10376000696E5F66656564726174653E20543C6D88
:10377000696E5F74726176656C5F666565647261BF
:1037800074653E20423C6D696E5F7365676D656E62
:10379000745F74696D655F6D733E20583C6D617830
:1037A0005F78795F6A65726B3E205A3C6D61785F25
:1037B0007A5F6A65726B3E20453C6D61785F655F3C
:1037C0006A65726B3E0A0020540020520020204D92
:1037D000323034205000416363656C6572617469F6
:1037E0006F6E2028756E6974732F7332293A2050DA
:1037F0003C7072696E745F616363656C3E20523C1D
:10380000726574726163745F616363656C3E2054BA
:103810003C74726176656C5F616363656C3E0A003F
:10382000204500205A0020590020204D3230312000
:1038300058004D6178696D756D20416363656C65F5
:10384000726174696F6E2028756E6974732F73329C
:10385000293A0A00204500205A0020590020204D16
:103860003230332058004D6178696D756D20666582
:10387000656472617465732028756E6974732F7343
:10388000293A0A00204500205A0020590020204DE6
:10389000393220580053746570732070657220753A
:1038A0006E69743A0A0020204D3230302044300ACC
:1038B0000020204D32303020543120440020204D53
:1038C0003230302044002044697361626C65640AC0
:1038D0000046696C616D656E742073657474696E01
:1038E00067733A002020473231203B20556E6974BF
:1038F0007320696E206D6D0A0A00526573656E64EF
:103900003A20006F6B0020746F6F206C6F6E672021
:10391000657874727573696F6E2070726576656E06
:103920007465640A0020636F6C6420657874727536
:1039300073696F6E2070726576656E7465640A00D7
:10394000627573793A2070617573656420666F7271
:1039500020696E7075740A00627573793A2070611F
:103960007573656420666F7220757365720A0062F4
:103970007573793A2070726F63657373696E670A45
:10398000004B494C4C45442E20004B494C4C206385
:103990006175736564206279204B494C4C206275D7
:1039A00074746F6E2F70696E0A004B494C4C45441D
:1039B0002E20004B494C4C20636175736564206276
:1039C0007920746F6F206D75636820696E61637410
:1039D0006976652074696D65202D20637572726546
:1039E0006E7420636F6D6D616E643A2000506C657B
:1039F000617365207265736574005052494E544579
:103A0000522048414C544544005072696E746572AE
:103A10002068616C7465642E206B696C6C282920A9
:103A200063616C6C6564210A00000028C20000C854
:103A30004300000000656E7175657565696E6720ED
:103A4000220053544F505045442E20005072696E4E
:103A50007465722073746F7070656420647565207E
:103A6000746F206572726F72732E204669782074AD
:103A70006865206572726F7220616E64207573656F
:103A8000204D39393920746F2072657374617274F6
:103A90002E202854656D7065726174757265206999
:103AA000732072657365742E2053657420697420C9
:103AB00061667465722072657374617274696E6791
:103AC000290A005761726E696E673A20486F6D6906
:103AD0006E672042756D702044697669736F72203D
:103AE0003C20310A000000A0400000A0400000007F
:103AF000400000F6430000C8430000FA43FF01FF06
:103B00004573746570732F6D6D00457374657073C4
:103B10002F6D6D005A73746570732F6D6D005A733D
:103B2000746570732F6D6D005973746570732F6DAC
:103B30006D005973746570732F6D6D0058737465E3
:103B400070732F6D6D005873746570732F6D6D00F9
:103B5000412D74726176656C00412D7472617665D9
:103B60006C00412D7265747261637400412D726541
:103B7000747261637400416D6178204500416D612C
:103B800078204500416D6178205A00416D617820B0
:103B90005A00416D6178205900416D6178205900CB
:103BA000416D6178205800416D617820580056546D
:103BB000726176206D696E005654726176206D696F
:103BC0006E005654726176206D696E00566D696E96
:103BD00000566D696E00566D696E00566D617820F5
:103BE0004500566D6178204500566D61782045008E
:103BF000566D6178205A00566D6178205A00566DD6
:103C00006178205A00566D6178205900566D6178B0
:103C1000205900566D6178205900566D6178205802
:103C200000566D6178205800566D61782058005616
:103C3000652D6A65726B0056652D6A65726B00565C
:103C4000652D6A65726B00567A2D6A65726B005637
:103C50007A2D6A65726B0056792D6A65726B005613
:103C6000792D6A65726B0056792D6A65726B005604
:103C7000782D6A65726B0056782D6A65726B0056F6
:103C8000782D6A65726B00416363656C0041636304
:103C9000656C005A204F6666736574005A204F6643
:103CA0006673657400436F6E74726F6C00005A2DFA
:103CB0004F66667365742053746F70706564000A94
:103CC0005A2D4F66667365742041646A7573746D0E
:103CD000656E742053746F707065642E0A00446FB3
:103CE0006E652E0A0A003F557365203020746F20E0
:103CF000003F454550524F4D2073746F72616765A8
:103D0000206E6F7420617661696C61626C652066FB
:103D10006F72207573652E0A0A002C20592000202E
:103D20003B20582000205A2000204A20004D3432E9
:103D300031204920004732392049203939390A00D9
:103D4000446F6E652E0A0A003F454550524F4D2084
:103D500073746F72616765206E6F7420617661693C
:103D60006C61626C6520666F72207573652E0A0A3D
:103D7000004732392050322066696E697368656485
:103D80000A003F4572726F7220696E204275736936
:103D90006E6573732043617264206D656173757223
:103DA000656D656E742E0A0A004D616E75616C6CEE
:103DB000792070726F62696E6720756E72656163DB
:103DC0006861626C65206D657368206C6F636174F7
:103DD000696F6E732E0A0A00290A0A0050726F6218
:103DE000696E67204D65736820506F696E7473202B
:103DF000436C6F7365737420746F2028004D657376
:103E00006820696E76616C6964617465642E205007
:103E1000726F62696E67206D6573682E0A0A004DC5
:103E2000657368207A65726F65642E0A0A00496EB0
:103E300076616C69642050686173652076616C7589
:103E4000652E2028302D34290A0A004552524F523F
:103E5000202D20677269642073697A65206D7573FF
:103E600074206265206265747765656E203220611A
:103E70006E6420390A004C6F6164696E6720746556
:103E800073745F7061747465726E2076616C7565B1
:103E9000732E0A0A00496E76616C6964207465733A
:103EA000745F7061747465726E2076616C75652ED6
:103EB0002028302D32290A0A004C6F636174696F23
:103EC0006E7320696E76616C6964617465642E0A34
:103ED0000A00456E74697265204D65736820696ECD
:103EE00076616C6964617465642E0A0A007769748E
:103EF00068204D3530322C204D3530302C204D355A
:103F0000303120696E2074686174206F726465724C
:103F10002E0A0A003F596F75206E65656420746F24
:103F200020656E61626C6520796F75722045455021
:103F3000524F4D20616E6420696E697469616C69CD
:103F40007A652069740A0042616279737465702031
:103F50005A00466C6F77203200466C6F7720320033
:103F6000466C6F77203100466C6F77203100466CCD
:103F70006F7700466C6F770046616E2073706565E1
:103F80006420320046616E207370656564203200E3
:103F900046616E20737065656420310046616E2055
:103FA0007370656564203100426564004265640099
:103FB0004E6F7A7A6C652032004E6F7A7A6C65208B
:103FC00032004E6F7A7A6C652031004E6F7A7A6CCF
:103FD0006520310053706565640053706565640049
:103FE0004D35004C61736572206F6666004D33007D
:103FF0004C61736572206F6E004D323234004C6537
:1040000064206F6666004D323235004C6564206F67
:104010006E004D61696E0050726568656174205074
:104020004C4120426564005072656865617420509F
:104030004C4120416C6C0050726568656174205081
:104040004C4120456E6420453200507265686561C0
:104050007420504C412032005072656865617420B4
:10406000504C4120456E64204531005072656865B2
:10407000617420504C41203100507265706172654E
:104080000070012C0190012701B0012201C0011D27
:1040900001F00118011002130130020E0160020943
:1040A0000190020401C002FF000003FA004003F582
:1040B000008003F000D003EB002004E6007004E170
:1040C00000E004DC004005D700C005D2004006CD6A
:1040D00000D006C8008007C3003008BE00F008B951
:1040E00000C009B400B00AAF00B00BAA00D00CA504
:1040F00000000EA000500F9B00C0109600501291BF
:104100000000148C00C0158700B0178200B0197D24
:1041100000D01B7800001E730040206E00902269C2
:1041200000F024640040275F0090295A00E02B55DE
:1041300000102E500020304B0010324600E033417A
:104140000090353C001037370070383200A0392D10
:1041500000B03A2800A03B2300603C1E00103D192F
:1041600000903D1400103E0F00703E0A00C03E0556
:1041700000003F0000403FFBFF803FF6FFC03FF1E3
:10418000FF4572723A204D494E54454D50204245EC
:1041900044004572723A204D494E54454D50004DF1
:1041A000494E54454D502074726967676572656465
:1041B000004572723A204D415854454D50204245B9
:1041C00044004572723A204D415854454D50004DBF
:1041D000415854454D502074726967676572656433
:1041E00000206174206F666673657420004D6573EE
:1041F00068206C6F616465642066726F6D20736CFB
:104200006F7420003F454550524F4D2073746F72BC
:10421000616765206E6F7420617661696C61626CA4
:104220006520746F206C6F6164206D6573682E0A61
:104230000A003F4E6F206D65736820736176656478
:1042400020696E20454550524F4D2E205A65726FA1
:10425000696E67206D65736820696E206D656D6F8E
:1042600072792E0A0A00206174206F666673657485
:1042700020004D65736820736176656420696E2047
:10428000736C6F7420006D202020202020202020BF
:104290003A20006A2020202020202020203A2000E0
:1042A0006B2020202020202020203A20004532456D
:1042B0004E4420202020203A2000206D6573682085
:1042C000736C6F747320617661696C61626C652ECA
:1042D0000A0A003F454550524F4D2073746F72617A
:1042E0006765206E6F7420617661696C61626C65D0
:1042F00020746F206C6F6164206D6573682E0A0AEC
:10430000002020202E2020004E414E000A426564ED
:1043100020546F706F677261706879205265706F9A
:1043200072743A0A0A004D32383020503020533926
:10433000300053746F7720424C546F756368004DA2
:1043400032383020503020533130004465706C6F6B
:104350007920424C546F756368004D3238302050DC
:1043600030205331323000424C546F756368205313
:10437000656C662D54657374004D323830205030B2
:10438000205331363000526573657420424C546FAF
:10439000756368004D61696E005072696E742061CA
:1043A000626F72746564004E6F20534420636172C3
:1043B00064005072696E742066726F6D2053440001
:1043C00053746F70207072696E7400526573756DEE
:1043D00065207072696E740050617573652070722B
:1043E000696E7400436F6E74726F6C00507265700A
:1043F0006172650054756E6500424C546F75636858
:1044000000496E666F2073637265656E004261627B
:10441000797374657070696E67205A005A2D4F6603
:10442000667365743A20005374616E64617264202F
:10443000446576696174696F6E3A20004D65616EFE
:10444000204D657368204865696768743A200023C9
:10445000206F662073616D706C65733A2000417443
:1044600074656D707420746F2070726F6265206F58
:10447000666620746865206265642E0A000A4D65D0
:104480007368206F6E6C79207061727469616C6CF6
:104490007920706F70756C617465642E0A0A002053
:1044A0000A004420636F6E7374616E743A20007268
:1044B0006F746174696F6E206D61747269783A000F
:1044C0005D0A0062656420706C616E65206E6F72BB
:1044D0006D616C203D205B0020616E642074616B17
:1044E000652061206D6561737572656D656E742EF2
:1044F0000A006D6D20746869636B2E0A0042757343
:10450000696E65737320436172642069733A200099
:1045100052656D6F7665207368696D00506C6163DC
:1045200065207368696D20756E646572206E6F7AA0
:104530007A6C650046696C2E204469612E20320039
:1045400046696C2E204469612E20320046696C2E2B
:10455000204469612E20310046696C2E2044696137
:104560002E2031004F6666004F6E20004520696E98
:10457000206D6D3300436F6E74726F6C0043616E1B
:104580006E6F7420656E74657220737562646972F3
:104590003A2000022E2E004D61696E006265640AA9
:1045A000002C2073797374656D2073746F7070655F
:1045B0006421204865617465725F49443A2000486F
:1045C000656174696E67206661696C656400486541
:1045D0006174696E67206661696C65640048656135
:1045E00074696E67206661696C6564004865617412
:1045F000696E67206661696C6564003F4E6F204597
:104600004550524F4D2073746F726167652061761B
:1046100061696C61626C6520666F722061206D65F6
:104620007368206F6620746869732073697A652ED9
:104630000A0A0000F000DA0011241FBECFEFD1E219
:10464000DEBFCDBF00E00CBF14E0A0E0B2E0EEE9B9
:10465000FEE802E00BBF02C007900D92A03CB1073C
:10466000D9F729E1A0ECB4E001C01D92A039B2074E
:10467000E1F713E2CBE1D3E200E006C021970109A4
:10468000802FFE010F94B146CA31D10780E00807A0
:10469000A9F70F9498310D943E470C9400002F9287
:1046A0003F924F925F926F927F928F929F92AF92C2
:1046B000BF92CF92DF92EF92FF920F931F93CF930F
:1046C000DF93CDB7DEB7CF55D1090FB6F894DEBF73
:1046D0000FBECDBF8091820720E6829FC0011124CA
:1046E0008E5F994F90931B1880931A1880918B07B7
:1046F00080FF1BC0E7ECF3E284918F010F5F1F4F37
:10470000882321F00E943B42F801F6CF00911A184D
:1047100010911B18D8018D918D01882319F00E94EA
:104720003B42F8CF8AE00E943B42E0911A18F09198
:104730001B188081803231F43196F0931B18E0937E
:104740001A18F3CF8E3469F010911A1800911B18C3
:104750006AE270E0812F902F0F940647009721F5B1
:104760002AC0818190ED980F9A3010F08D3261F758
:104770003296F0931B18E0931A18E0911A18F091F2
:104780001B18808180538A3010F43196F2CFE0916B
:104790001A18F0911B1880818032B1F63196F0938F
:1047A0001B18E0931A18F3CFFC01319682918032E6
:1047B00031F08A3221F0A12FB02F9D9102C01082DA
:1047C000F5CFFD01808111968032D9F380538A3074
:1047D00020F0E7ECF3E20C949B3720E030E06AE055
:1047E000629FA001639F500D11249A01205331094B
:1047F0008191280F311D87FD3A95808180538A3041
:1048000078F38F013196D8018C918032D1F31093D7
:10481000DB040093DA0441E050E05093D21440935B
:10482000D1149D3409F4F0C1943511F40C9463371C
:10483000973411F00C9489372C31310509F479C083
:1048400060F42430310520F422303105F8F02AC01C
:104850002430310581F10C9492372A35310509F461
:1048600024C150F42D31310509F467C02E313105D2
:1048700009F467C00C9492372B35310509F419C13E
:104880002C35310509F41AC10C9492378091E2025B
:10489000882311F40C9492370E94FD960E9409DE41
:1048A0000C94923781E02230310509F080E00E94BB
:1048B00071970C94923780E50E94573F882329F026
:1048C0000E94B13F6B017C0103C0C12CD12C760149
:1048D00083E50E94573F882321F00E94E53F6B014A
:1048E0007C010F9479290E94114280911C189091AB
:1048F0001D18A0911E18B0911F18C80ED91EEA1ECF
:10490000FB1E80915702811105C060E089E592E0AD
:104910000E9467590E941E4ADC01CB018C199D0937
:10492000AE09BF09B7FD02C00C9492370E94FFEE9A
:10493000F1CF0E943E950C9492370E943FF70C9461
:10494000923788E50E94573F882319F00E94BC3FA8
:104950000EC020E030E040EE50E4609130157091E0
:10496000311580913215909133150F94B5432B0179
:104970003C0189E50E94573F882319F00E94BC3F03
:104980000EC020E030E048EE51E4609134157091A3
:10499000351580913615909137150F94B6434B011C
:1049A0005C0149825A826B827C826D837E838F8315
:1049B000988720E030E0A901609148157091491571
:1049C00080914A1590914B150F94B64369877A8769
:1049D0008B879C87CE0101960E94C0D6082F882322
:1049E00011F40C94923710921A020E941C4283E533
:1049F0000E94573F882319F00E941440082FEE248C
:104A0000E394F12CA5019401C301B2010E940F9D12
:104A10006B017C012CEA35EC47E257E3C301B2019C
:104A20000F94B643AB01BC018CE692E00F942B2CA3
:104A30002CEA35EC47E257E3C501B4010F94B643C5
:104A4000AB01BC0187E692E00F942B2C2CEA35ECED
:104A500047E257E3C701B6010F94B643AB01BC016F
:104A600082E692E00F942B2C8AE00E943B428091D8
:104A7000C2049091C304A091C404B091C504809372
:104A8000C0029093C102A093C202B093C30280916E
:104A9000C0049091C1049093D4028093D3020E94E9
:104AA00011420E9437880C9492371092D9040C94CA
:104AB000923781E08093D9040C94933785E40E9467
:104AC000573FB82E811102C00F94792924EF822E0E
:104AD00022E0922E30E3C32E35E1D32E46ECE42EB5
:104AE00044E0F42E00E010E0A12CF40181914F018C
:104AF0000E94573F8823E1F1D6012D913D914D91C0
:104B00005C916F962FAF6F97A0963FAFA0976D9671
:104B10004FAF6D976E965FAF6E970E94BC3FF601E8
:104B200060837183828393836F962FAD6F97A09676
:104B30003FADA0976D964FAD6D976E965FAD6E973A
:104B400003301105A9F00F94B5439B01AC01D701C7
:104B50006D917D918D919C910F94B643F701608387
:104B6000718382839383C8010E94AB40AA24A394DB
:104B70000F5F1F4FF4E0CF0ED11C24E0E20EF11CBA
:104B80000430110509F0B1CFAA2019F00E949B4012
:104B900037C0BB20A9F1C0903C15D0903D15E090E6
:104BA0003E15F0903F1520914218309143184091E6
:104BB000441850914518C701B6010F94C93F0F948E
:104BC000E7456093F2077093F3078093F40790939F
:104BD000F507C701B6010F94FA442FB7F894609314
:104BE000E3187093E4188093E5189093E6182FBFAC
:104BF0001092E2071092E3071092E4071092E50783
:104C00000E9437880C9492372537310509F4B8C6CD
:104C100008F0C8C02B34310509F477C308F062C02E
:104C20002731310509F4AEC280F52131310509F48F
:104C300045C288F42330310509F46DC530F42230C3
:104C4000310508F4BBC10C9492372530310509F4C5
:104C500087C50C9492372431310509F44AC230F4E7
:104C60002231310509F4AFC50C9492372531310555
:104C700009F484C22631310511F00C949237109258
:104C80009E0810929F080C9492372C31310509F43C
:104C9000DBC280F42931310509F486C208F479C2F7
:104CA0002A31310509F486C22B31310509F490C24D
:104CB0000C9492372F31310509F4DBC248F42E31C0
:104CC000310511F00C9492370E940A940C9492379B
:104CD0002032310509F4BFC22A32310509F4CDC2B0
:104CE0000C9492372936310509F480C440F52335F8
:104CF000310509F463C598F42D34310509F40DC369
:104D000008F407C32135310509F43DC522353105C5
:104D100011F00C9492371092D8040C9492372535E8
:104D2000310509F47FC508F44EC52C35310509F469
:104D30008CC52836310509F4F4C20C9492372E360E
:104D4000310509F463C380F42B36310509F4CBC473
:104D500008F49FC42C36310509F401C42D36310501
:104D600009F461C40C9492372137310509F4FBC36F
:104D700068F42F36310509F45CC32037310511F092
:104D80000C9492378DE293E00E9486EE2237310533
:104D900009F4E4C52337310511F00C949237E8E9A2
:104DA000F3E0E2C52C3241E0340711F40C943931C0
:104DB00008F079C02C3C310509F48DC7D0F52139B4
:104DC000310509F472C6B8F42837310509F460C614
:104DD00040F42737310511F00C949237E8E7F4E0FE
:104DE000D5C52937310509F45AC62C38310509F4DF
:104DF000E6C30C949237283C310509F4CDC630F453
:104E00002E3B310509F42BC40C949237293C310513
:104E100009F429C72B3C310511F00C94923706E6B2
:104E2000E02E08E1F02E04EF12E084E0D82ED00E40
:104E300043C72C3D310511F40C94313098F42E3CCD
:104E4000310511F40C94442F08F4B1C7233D31050A
:104E500011F40C948C2F2A3D310511F40C9424305C
:104E60000C949237213E310509F422C180F42D3D86
:104E7000310511F40C943E30203E310511F00C94B4
:104E8000923760E088E00E94A5820C949237223E1F
:104E9000310511F40C9457302831314011F40C9441
:104EA00083300C949237243A91E0390711F40C9432
:104EB0006B34F0F52336B1E03B0711F40C943B372B
:104EC000C0F42E32F1E03F0711F40C94623110F47B
:104ED0000C945F312F3251E0350711F40C94653199
:104EE0002033314011F00C9492370E941B870C94B0
:104EF0009237213991E0390711F40C94633448F466
:104F00002039314011F00C9492370F9479290C9488
:104F100092372239E1E03E0711F40C9467342A39C4
:104F2000314011F00C9492370E946B860C949237AA
:104F3000263F41E0340711F40C94C536E8F42C3ACE
:104F400081E0380711F40C94C73538F4253A314024
:104F500011F40C9451350C949237243FB1E03B0787
:104F600011F40C94C236253F314011F00C94923765
:104F70000E9478790C9492372335F3E03F0711F4BF
:104F80000C94D43678F4273F51E0350711F40C9493
:104F9000C8362D35324011F00C9492370E94A68508
:104FA0000C949237203A93E0390709F458C1273E10
:104FB000334011F40C9454370C94923780E50E94DE
:104FC000573F882361F00E94B13F6B017C01BB24F5
:104FD000B394672B682B692B31F4B12C04C0B12C2E
:104FE000C12CD12C760183E50E94573F882399F08C
:104FF0000E94E53F6B017C01B1100FC0672B682B4D
:10500000692B59F4F8018081882339F061E0C801E7
:105010000E947C5907C0BB20A9F360E083E992E0BD
:105020000E94675983E090E09093D2148093D1144A
:1050300081E080935F050F9479290E941142C11489
:10504000D104E104F104E9F080911C1890911D183D
:10505000A0911E18B0911F18C80ED91EEA1EFB1E83
:105060000E941E4ADC01CB018C199D09AE09BF09C3
:10507000B7FF1AC080915F058823B1F00E94FFEE50
:10508000EFCF80915F05882319F00E94FFEEF9CFE2
:1050900080919E0860E0882319F084E892E002C0C5
:1050A00084E792E00E94675910925F050C94923752
:1050B00061E088E00E94A5820C94923760E086EA65
:1050C00092E00E9467595F989FB7F89480910B0116
:1050D0008F7D80930B019FBF8A989FB7F894809132
:1050E00008018E7F809308019FBF129847980C9407
:1050F0009237EEEBF2E084918F010F5F1F4F882310
:1051000021F00E943B42F801F6CF1092240B10923E
:10511000230B40E050E0BA018FEC98E00E94948BA2
:105120008BE1EFECF8E0DE01159601900D928A9587
:10513000E1F78091CD089091CE089C838B838CEA17
:1051400093E09A83898340E050E0BE016F5F7F4F18
:1051500083EB94E00E9435B1CE0101960E9463EE8C
:10516000EFEAF2E084918F010F5F1F4F882311F463
:105170000C9492370E943B42F801F4CF0E94D7D49E
:105180000C94923740E061E0C8010E94A4D10C94D5
:10519000923780919F08882319F081E080939E08C0
:1051A0000F94742E0C94923710929E080F94B42E84
:1051B0000C94923780919F08882311F40C949237B5
:1051C00083E50E94573F81110C94B6370C949237B7
:1051D00080919F08882351F1EFECF2E084918F01D8
:1051E0000F5F1F4F882321F00E943B42F801F6CF4A
:1051F00060911A0B70911B0B80911C0B90911D0BF1
:105200004AE00E94A3438FE20E943B426091160B4A
:105210007091170B8091180B9091190B4AE00E9426
:10522000A3438AE00E943B420C949237E1EEF2E005
:1052300084918F010F5F1F4F882311F40C949237D4
:105240000E943B42F801F4CF40E060E0C8010E94B8
:10525000A4D10C9492370E94F2890C94923781E089
:1052600080939D0840E060E0C8010E94A4D10C94A6
:1052700092370E943B930C94923783E50E94573FEC
:10528000882311F40C9492370E94993F7C018F3F40
:10529000910519F010F00C94923780E50E94573F69
:1052A000882339F00E94993F8C0197FF04C00C9429
:1052B00092370DE010E0D02EE8EFF2E0C801992718
:1052C000219131912817390731F023E0EE35F207AB
:1052D000B9F70C94C637EBE3F5E384918F010F5FC8
:1052E0001F4F882321F00E943B42F801F6CFE2EFE6
:1052F000F2E084918F010F5F1F4F882311F40C940B
:1053000092370E943B42F801F4CF0F94742E0C9414
:1053100092370F94B42E0C9492370E949EAE0C9448
:10532000923788E690E00E94234481110C949237D2
:1053300080918B0783FF02C00C94923783E50E9413
:10534000573F882309F45EC00E94993F8C01F0907A
:10535000D404EF2DF0E0EE0FFF1FE258FA4F118357
:1053600000838F2D0F94D3258091BA029091BB02B8
:10537000029791F4F11010C00115110531F08091E0
:10538000D2049091D304080F191F10938105009344
:10539000800581E00F94D3250E94993F86359105C1
:1053A0003CF40E949EAE60E088E093E00E94675962
:1053B0000E94993F7C010091D40410E0F801EE0FA7
:1053C000FF1FEE0FFF1FE25FFA4E60817181828145
:1053D00093810F94FA446E157F05A4F488E294E05B
:1053E0009F938F930F5F1F4F1F930F9381E093E065
:1053F0009F938F931F920F94592E0FB6F894DEBF90
:105400000FBECDBF0F94D3380C9492378EE40E9418
:10541000573F882311F40C9492370E94A63F609363
:1054200024187093251880932618909327180C94AD
:10543000923783E50E94573F882319F00E946A3F04
:1054400001C080E080938B07E7ECF3E284918F0149
:105450000F5F1F4F882321F00E943B42F801F6CFD7
:10546000E6E2F3E084918F010F5F1F4F882321F064
:105470000E943B42F801F6CF80918B078823A1F16F
:10548000B8E1CB2EB3E0DB2EE12CF12C20E08091B3
:105490008B0790E00E2C02C0959587950A94E2F751
:1054A00080FF17C0BB24B394B20E222319F08CE204
:1054B0000E943B42F60125913491F90184918901C2
:1054C0000F5F1F4F882321F00E943B429801F5CFC8
:1054D0002B2DFFEFEF1AFF0A32E0C30ED11C45E07F
:1054E000E416F104A1F636C0E2E2F3E084918F0104
:1054F0000F5F1F4F882371F10E943B42F801F6CFE6
:1055000009E517E180E20E943B42D8016D917D914F
:105510008D919D918D0142E00E943F478CE20E9457
:105520003B42F801648175818681978142E00E9447
:105530003F478CE20E943B42D8011C966D917D91C1
:105540008D919C911F9742E00E943F47B7E1013641
:105550001B07C1F68AE00E943B420C9492371092DE
:10556000D9020C94923783E50E94573F882369F053
:105570000E946A3F8093C4028D3310F40C949237DA
:105580008CE38093C4020C949237E7ECF3E28491AD
:105590008F010F5F1F4F882321F00E943B42F801CB
:1055A000F6CF4091C40250E060E070E086E393E003
:1055B0000F940E2C8AE00E943B420C94923780910B
:1055C0008B0783FF02C00C94923783E50E94573FFC
:1055D000882311F40C9492370E94993F90937D0593
:1055E00080937C050F94A0250C94923789E690E077
:1055F0000E942344811111C0EDE3F3E084918F01F7
:105600000F5F1F4F882321F00E943B42F801F6CF25
:105610000E94F6888AE00E943B421092D2141092B7
:10562000D1140C94803D8DE690E00E9423448111BA
:105630000C94923780918B0783FF02C00C949237B1
:1056400083E50E94573F8AA781110C94DB3782E5DE
:105650000E94573F81110C94DB370C949237809154
:105660008B0783FF02C00C94923760E08DE793E0D4
:105670000E94675983E50E94573F8AA781110C94C5
:10568000863982E50E94573F81110C9486390C942B
:10569000923783E50E94573F882321F00F9405300D
:1056A0008C0102C00FEF10E080E50E94573F882375
:1056B00041F00F9405308230910510F00C94923730
:1056C00002C080E090E0FC01EE0FFF1FE858FA4FA7
:1056D00098010F3F110519F010F02FEF30E03183E2
:1056E00020830C94923780E50E94573F882341F035
:1056F0000F9405308230910510F00C94923702C05F
:1057000080E090E0880F991FFC01E858FA4F118261
:1057100010820C94923783E50E94573F882321F032
:105720000F9405308C0102C00FEF10E080E50E945D
:10573000573F882319F00F94053002C081E090E0B4
:10574000FC01EE0FFF1FE858FA4F98010F3F1105BB
:1057500019F010F02FEF30E0318320830C94923752
:1057600080E50E94573F882319F00F94053002C04E
:1057700081E090E0880F991FFC01E858FA4F1182F0
:1057800010820C9492370F9413260F9479290E945B
:105790006EEE109279051092780510927B051092AA
:1057A0007A0568EE73E080E090E00E94805860E047
:1057B0008AE893E00E9467590C94923781E08093C5
:1057C000D8040C94933783E50E94573F882361F0F7
:1057D0000E94E53F6093C5027093C6028093C702A2
:1057E0009093C8020C94923788E50E94573F81112C
:1057F0000C94CC3A89E50E94573F81110C94CC3A25
:105800008AE50E94573F81110C94CC3A85E40E94AE
:10581000573F81110C94CC3A0F9479290E946EEE77
:105820000C94923783E50E94573F882311F40C941F
:1058300092370E94E53F609320187093211880935F
:105840002218909323180C94923774EFC72E72E0AD
:10585000D72EE6E3EE2EE8E1FE2E10E0D6018D9184
:105860006D010E94573F882309F46DC0133009F081
:1058700063C00E94BC3F4B015C0120E030E040EA85
:1058800051E40F94643F87FF4EC0A50194016091DD
:1058900042187091431880914418909145180F94C4
:1058A00092442B013C019B01AC01609182187091E4
:1058B000831880918418909185180F94C93F609344
:1058C0008218709383188093841890938518A3018D
:1058D0009201609172187091731880917418909170
:1058E00075180F94C93F6093721870937318809362
:1058F000741890937518609166197091671980916A
:105900006819909169190F94683FA30192010F944F
:10591000C93F0F94FF446093661970936719809391
:105920006819909369198092421890924318A09236
:105930004418B092451807C00E94BC3FF70160832D
:105940007183828393831F5FF4E0EF0EF11C1430A8
:1059500009F084CF0F94D22D0C9492370F947929AB
:105960000E9437880C94923784918F010F5F1F4FEC
:10597000882311F40C9492370E943B42F801F4CF33
:1059800060E0C8010E947C590C94923784918F0189
:105990000F5F1F4F882321F00E943B42F801F6CF92
:1059A000E0E7F4E084918F010F5F1F4F882321F01F
:1059B0000E943B42F801F6CF659903C00DE014E068
:1059C00002C002E114E0D8018D918D01882319F005
:1059D0000E943B42F8CF8AE00E943B42E8E6F4E0B6
:1059E00084918F010F5F1F4F882321F00E943B425B
:1059F000F801F6CF649903C00DE014E002C002E1A3
:105A000014E0F80181918F01882319F00E943B4234
:105A1000F8CF8AE00E943B42E0E6F4E084918F01F7
:105A20000F5F1F4F882321F00E943B42F801F6CF01
:105A30008091030180FF03C00DE014E002C002E189
:105A400014E0D8018D918D01882319F00E943B420A
:105A5000F8CF8AE00E943B42E8E5F4E084918F01B0
:105A60000F5F1F4F882321F00E943B42F801F6CFC1
:105A70004B9903C00DE014E002C002E114E0F8010C
:105A800081918F01882309F465CD0E943B42F7CFB5
:105A900081E080934A028093C2050C949337109260
:105AA0004A021092C2050C94923783E50E94573F38
:105AB0008823F9F00E94993F182F8230D8F0EBE349
:105AC000F5E384918F010F5F1F4F882321F00E941F
:105AD0003B42F801F6CFE2E9F4E084918F010F5FD9
