:100000000C9422230C9453230C9453230C945323C9
:100010000C9453230C9453230C9453230C94532388
:100020000C9453230C9453230C9453230C94532378
:100030000C9453230C9453230C9453230C94532368
:100040000C9453230C94B2910C9453230C9453238B
:100050000C9453230C9453230C949FC00C9424D1E0
:100060000C9453230C942B4D0C9453230C94532336
:100070000C9453230C9453230C9453230C94532328
:100080000D94DD2B0C9453230C9453230C94532385
:100090000C9453230C9453230C9453230C94532308
:1000A0000C9453230C9453230D94B02B0C94532392
:1000B0000C9453230C9453230C9453230D94832BAF
:1000C0000C9453230C9453230C9453230C945323D8
:1000D0000C9453230C9453230C9453230C945323C8
:1000E0000C9453239EA3F6A329A5F0A664A779A791
:1000F0007EA744C149C172C177C158C163C12EC135
:10010000A1CFA4CF93CF97CF9DCFDBCFA8CFACCF3C
:10011000B2CFB6CFBACFC0CFC4CFC8CFDBCFCECF50
:10012000D2CFD6CF40D045D04AD054D05ED0D7D051
:1001300068D070D078D082D08CD096D0A5D0AFD0F7
:10014000D7D0B9D0C3D0CDD0084AD73B3BCE016E73
:1001500084BCBFFDC12F3D6C74319ABD56833DDA1E
:100160003D00C77F11BED9E4BB4C3E916BAAAABE2D
:10017000000000803F05A84CCDB2D44EB93836A956
:10018000020C50B9918688083CA6AAAA2ABE000093
:1001900000803F000D94C8250D94FB3D0D943B2538
:1001A0000D9442290D9477270D94333B0D943725F8
:1001B0000D944E254E414E494E495459494E46CD17
:1001C000CCCC3D0AD7233C17B7D13877CC2B32950E
:1001D00095E6241FB14F0A000020410000C84200EC
:1001E000401C4620BCBE4CCA1B0E5AAEC59D744373
:1001F0004F4D4D554E49434154494F4E004452597D
:1002000052554E004552524F525300494E464F00F0
:100210004543484F0047322F4733206261642070C6
:100220006172616D65746572730A00536C65657007
:100230002E2E2E00205A3A200020593A20004265E6
:100240006420583A2000542D52455820322B2072F9
:10025000656164792E00526573756D696E672070F3
:1002600072696E7400436C69636B20746F207265F1
:1002700073756D652E2E2E00456E642066696C6563
:10028000206C6973740A00426567696E2066696C48
:1002900065206C6973740A005344207072696E742F
:1002A000696E67206279746520004E6F7420534434
:1002B000207072696E74696E670A00452569202591
:1002C0007300542D52455820322B20726561647999
:1002D0002E0010020B020402FD01EF016F666600A2
:1002E00044454255473A004B494C4C45442E20006A
:1002F0004D3131332053006F6B0048656174696E76
:100300006720646F6E652E003F0A0020573A004553
:10031000256920257300542D52455820322B207218
:10032000656164792E0042656420646F6E652E00FD
:100330003F0A0020573A00426564204865617469AD
:100340006E672E00542D52455820322B204F666682
:100350002E004649524D574152455F4E414D453A58
:100360004D61726C696E202020284769746875623F
:100370002920534F555243455F434F44455F5552E3
:100380004C3A68747470733A2F2F67697468756299
:100390002E636F6D2F4D61726C696E4669726D7759
:1003A0006172652F4D61726C696E2050524F544FCF
:1003B000434F4C5F56455253494F4E3A312E3020F1
:1003C0004D414348494E455F545950453A542D528A
:1003D000455820322B2045585452554445525F43CE
:1003E0004F554E543A3220555549443A6365646539
:1003F000326132662D343161322D343734382D3943
:100400006231322D63353563363266333637666690
:100410000A004D31343520533C696E6465783E20C6
:100420006F7574206F662072616E67652028302DAD
:1004300031290A0053657474696E672054726176BD
:10044000656C20416363656C65726174696F6E3AB7
:10045000200053657474696E67205265747261631D
:100460007420416363656C65726174696F6E3A20D4
:100470000053657474696E67205072696E74204110
:100480006363656C65726174696F6E3A20005365D1
:100490007474696E67205072696E7420616E642096
:1004A00054726176656C20416363656C657261743A
:1004B000696F6E3A2000205A002059005800202011
:1004C0004D61783A2000205A002059005800202021
:1004D0004D696E3A20004F6E20004F666600536FE4
:1004E000667420656E6473746F70733A2000486F91
:1004F00074656E64206F6666736574733A00206F6E
:100500007574206F662072616E67650A00536572AC
:10051000766F20003A200020536572766F2000200D
:10052000643A0020693A0020703A0020643A0020C2
:10053000693A0020703A0043290A0061626C6564E0
:1005400020286D696E2074656D702000436F6C64A7
:10055000206578747275646573206172652000424D
:100560006564204C6576656C696E6720004661693C
:100570006C656420746F20656E61626C65204265F5
:1005800064204C6576656C696E670A0065657072FB
:100590006F6D5F73746F726167655F736C6F7420EA
:1005A0003D200055424C5F4D4553485F56414C49F4
:1005B00044203D20003F454550524F4D2073746FFD
:1005C00072616765206E6F7420617661696C61622B
:1005D0006C6520666F72207573652E0A0A003A20DA
:1005E000007A5F6D696E3A20202D3230207A5F6D7F
:1005F00061783A20203230005A204F666673657465
:100600002000486F74656E64206F6666736574734E
:100610003A004175746F0020452F443D00416476D7
:10062000616E6365204B3D004E6F206361736520F2
:100630006C696768740A00556E6B6E6F776E206325
:100640006F6D6D616E643A2022004E6F204C696EB2
:1006500065204E756D6265722077697468206368E5
:1006600065636B73756D2C204C617374204C696EDF
:10067000653A20004B494C4C45442E200053544FC2
:10068000505045442E20005072696E74657220737C
:10069000746F707065642064756520746F20657276
:1006A000726F72732E2046697820746865206572B7
:1006B000726F7220616E6420757365204D3939390F
:1006C00020746F20726573746172742E20285465D3
:1006D0006D706572617475726520697320726573DF
:1006E00065742E2053657420697420616674657288
:1006F0002072657374617274696E67290A004E6FA7
:1007000020436865636B73756D2077697468206C2E
:10071000696E65206E756D6265722C204C61737414
:10072000204C696E653A2000636865636B73756D74
:10073000206D69736D617463682C204C6173742043
:100740004C696E653A20004C696E65204E756D628D
:100750006572206973206E6F74204C617374204C35
:10076000696E65204E756D6265722B312C204C616F
:100770007374204C696E653A20004D313130004D64
:100780003331004D383420582059205A2045005329
:10079000442072656164206572726F720A00446F52
:1007A0006E65207072696E74696E672066696C652B
:1007B0000A0020496E76616C6964206578747275F0
:1007C00064657220000000E1430000C8430000FAA5
:1007D00043000028C20000000000000000486F6DC8
:1007E0006520257325732573206669727374002054
:1007F00066697273740A005A0059005800486F6D98
:1008000065200053544F502063616C6C6564206216
:10081000656361757365206F6620424C546F756324
:1008200068206572726F72202D2072657374617218
:10083000742077697468204D3939390A0053544F50
:10084000502063616C6C65642062656361757365DB
:10085000206F6620424C546F756368206572726F1A
:1008600072202D20726573746172742077697468C8
:10087000204D3939390A00205A3A200020593A20AF
:100880000042656420583A20005A2070726F6265F9
:10089000206F75742E206265640A005A2070726F92
:1008A0006265206F75742E206265640047323820BF
:1008B0005A20466F7262696464656E0A0047323876
:1008C000205A20466F7262696464656E004E6F2024
:1008D0006D6F76652E0046696C652064656C657485
:1008E00065643A0044656C6574696F6E2066616981
:1008F0006C65642C2046696C653A20006F70656EEB
:10090000206661696C65642C2046696C653A20003C
:100910002569730025696D202569730025696820A4
:1009200025696D2025697300256964202569682083
:1009300025696D2025697300256979202569642062
:100940002569682025696D20256973005072696EDC
:10095000742074696D653A200050726F7465637419
:1009600065642050696E0A002040002042403A0031
:1009700020403A00202F00205400202F0020423A2F
:1009800000202F0020543A00205A3A0020593A0003
:1009900020436F756E7420583A0020453A00205A63
:1009A0003A0020593A00583A004B6420002364650D
:1009B00066696E65202044454641554C545F004BA6
:1009C00069200023646566696E65202044454641C0
:1009D000554C545F004B70200023646566696E655A
:1009E000202044454641554C545F00504944204125
:1009F00075746F74756E652066696E697368656479
:100A0000212050757420746865206C617374204BCC
:100A1000702C204B6920616E64204B6420636F6EE4
:100A20007374616E74732066726F6D2062656C6F93
:100A30007720696E746F20436F6E666967757261A7
:100A400074696F6E2E680A00504944204175746FB6
:100A500074756E65206661696C6564212074696DCA
:100A6000656F75740A00504944204175746F747540
:100A70006E65206661696C6564212054656D7065E2
:100A800072617475726520746F6F20686967680A97
:100A900000204B643A2000204B693A2000204B7024
:100AA0003A20000A20436C61737369632050494403
:100AB000200A002054753A2000204B753A2000206F
:100AC0006D61783A2000206D696E3A200020643A0A
:100AD000200020626961733A2000436172642072D1
:100AE000656D6F766564004361726420696E73653D
:100AF000727465640000060900FE0701920321205C
:100B0000FFFF08FF07FF00000006000001070706BF
:100B1000020080808080800080030202060105A020
:100B2000A00507070600005050F850F85050050780
:100B3000070600002078A07028F0200507070600AF
:100B400000C0C810204098180507070600006090F4
:100B5000A040A89068020303060104C04080030778
:100B6000070601002040808080402003070706011F
:100B7000008040202020408005050506000120A8B7
:100B800070A8200505050600012020F8202002039A
:100B9000030602FFC04080050101060003F80202BF
:100BA00002060200C0C0050505060001081020402D
:100BB000800507070600007088888888887003070A
:100BC0000706010040C040404040E005070706001E
:100BD00000708808708080F8050707060000F8108C
:100BE00020100808F005070706000010305090F8A4
:100BF0001010050707060000F880F0080888700547
:100C00000707060000708080F088887005070706D7
:100C10000000F808102020202005070706000070BB
:100C200088887088887005070706000070888878B3
:100C3000080870020505060200C0C000C0C0020618
:100C4000060602FFC0C000C040800407070600007F
:100C500010204080402010050303060002F800F831
:100C60000407070601008040201020408005070788
:100C70000600007088081020002005070706000005
:100C800070880868A8A870050707060000708888A3
:100C9000F8888888050707060000F08888F08888AB
:100CA000F0050707060000708880808088700507BF
:100CB00007060000F08888888888F0050707060086
:100CC00000F88080F08080F8050707060000F880B3
:100CD00080F0808080050707060000708880B88853
:100CE0008870050707060000888888F888888801CA
:100CF0000707060200808080808080800507070645
:100D000000003810101010906005070706000088DA
:100D100090A0C0A090880507070600008080808012
:100D20008080F805070706000088D8A8888888888A
:100D30000507070600008888C8A89888880507075F
:100D400006000070888888888870050707060000FC
:100D5000F08888F08080800507070600007088888A
:100D600088A89068050707060000F08888F0A09022
:100D700088050707060000788080700808F00507DE
:100D800007060000F8202020202020050707060085
:100D9000008888888888887005070706000088888A
:100DA000888888502005070706000088888888887A
:100DB000A85005070706000088885020508888053D
:100DC00007070600008888885020202005070706AE
:100DD0000000F80810204080F8030707060100E033
:100DE0008080808080E0050505060001804020109D
:100DF00008030707060100E02020202020E005036B
:100E000003060004205088050101060000F80202D4
:100E10000206020580400505050600007008788876
:100E2000780507070600008080B0C88888F00505AF
:100E3000050600007080808870050707060000081E
:100E40000868988888780505050600007088F8808D
:100E5000700507070600003048E0404040400506A6
:100E6000060600FF708888780870050707060000EE
:100E70008080B0C88888880107070602008000804B
:100E8000808080800308080601FF200020202020A9
:100E9000A040040707060000808090A0C0A0900337
:100EA0000707060100C04040404040E00505050638
:100EB0000000D0A8A8A8A8050505060000B0C888AD
:100EC0008888050505060000708888887005060674
:100ED0000600FFF08888F080800506060600FF788F
:100EE0008888780808050505060000B0C88080805D
:100EF00005050506000070807008F004070706006D
:100F0000004040E04040403005050506000088886C
:100F10008898680505050600008888885020050522
:100F2000050600008888A8A8500505050600008869
:100F3000502050880506060600FF888888780870CB
:100F4000050505060000F8102040F8030707060114
:100F500000204040804040200107070602008080BA
:100F60008080808080030707060100804040204089
:100F700040800502020600026890000000060000A2
:100F8000000000060000000000060000000000064F
:100F90000000000000060000000000060000000045
:100FA000000600000000000600000000000600002F
:100FB000000000060000000000060000000000061F
:100FC0000000000000060000000000060000000015
:100FD00000060000000000060000000000060000FF
:100FE00000000006000000000006000000000006EF
:100FF00000000000000600000000000600000000E5
:1010000000060000000000060000000000060000CE
:1010100000000006000000000006000000000006BE
:1010200000000000000600000000000600000000B4
:10103000000600000000000600000000000600009E
:101040000000000600000107070602008000808003
:101050008080800507070600002070A8A0A87020E7
:10106000050707060000304040E04050A805050590
:101070000600008870507088050707060000885039
:1010800020F820F8200107070602008080800080F9
:1010900080800508080600003048205050209060ED
:1010A000030101060107A0050707060000F888B83C
:1010B000B8B888F805070706000170087888780036
:1010C000F80505050600012850A050280503030671
:1010D0000001F80808020202060206408005070720
:1010E000060000F888A88898A8F8050101060006FF
:1010F000F8040404060003609090600507070600EA
:10110000002020F8202000F8040505060003609068
:101110002040F0030505060003E020E020E0020285
:101120000206020640800508080600FF88888888B5
:1011300098E88080050707060000789898781818C6
:1011400018020202060202C0C00202020602FF40AA
:101150008003050506000340C04040E00507070680
:101160000001708888887000F8050505060001A058
:10117000502850A00507070600008890A858B80816
:10118000080507070600008890B848982038050829
:1011900008060000C040C048D83808080507070600
:1011A00000002000204080887005080806000040EC
:1011B00020007088F88888050808060000102000C4
:1011C0007088F8888805080806000020500070889C
:1011D000F888880508080600006890007088F8887C
:1011E000880508080600005000708888F88888057F
:1011F00008080600002050207088F8888805070736
:101200000600003860A0B8E0A0B80508080600FF96
:1012100070888080887020600508080600004020E3
:1012200000F880F080F8050808060000081000F8B3
:1012300080F080F8050808060000205000F880F0D3
:1012400080F80507070600005000F880F080F803DA
:101250000808060100804000E0404040E003080824
:10126000060100204000E0404040E003080806017D
:101270000040A000E0404040E0030707060100A056
:1012800000E0404040E0050707060000704848E8DD
:1012900048487005080806000068900088C8A898AB
:1012A0008805080806000040207088888888700536
:1012B00008080600001020708888888870050808D3
:1012C0000600002050007088888870050808060015
:1012D0000068900070888888700508080600005033
:1012E00000708888888870050505060001885020F0
:1012F00050880508080600FF1070A8A8A8A870402C
:10130000050808060000402088888888887005083D
:10131000080600001020888888888870050808065C
:1013200000002050008888888870050808060000A2
:1013300050008888888888700508080600001020FA
:101340008850202020200509090600FFC040704871
:1013500048704040E00408080601FF609090A090AB
:1013600090E080050808060000402000700878889A
:1013700078050808060000102000700878887805B5
:1013800008080600002050007008788878050808D2
:101390000600006890007008788878050707060046
:1013A0000050007008788878050808060000205072
:1013B000207008788878050606060000D02878A0F6
:1013C000A8500506060600FF70808870206005089A
:1013D000080600004020007088F8807005080806A4
:1013E00000001020007088F88070050808060000D2
:1013F0002050007088F88070050707060000500034
:101400007088F8807003080806010080400040C022
:101410004040E003080806010020400040C0404072
:10142000E003080806010040A00040C04040E0037F
:101430000707060100A00040C04040E0050707067E
:101440000000A040A0107888700508080600006819
:101450009000B0C888888805080806000040200071
:1014600070888888700508080600001020007088C1
:101470008888700508080600002050007088888859
:10148000700508080600006890007088888870055C
:10149000070706000050007088888870050505065B
:1014A00000012000F800200507070600FF1070A8C3
:1014B000A8A8704005080806000040200088888819
:1014C0009868050808060000102000888888986839
:1014D00005080806000020500088888898680507DD
:1014E00007060000500088888898680509090600EA
:1014F000FF102000888888F808700407070601FF9D
:10150000C04060506040E00508080600FF500088B9
:101510008888780870556E696669656420426564DC
:10152000204C6576656C696E67200061637469762E
:10153000617465642E0A0A006465005379737465EA
:101540006D2000496E76616C6964206D6170207455
:101550007970652E0A0A00496E76616C6964206DA7
:10156000617020747970652E0A0A003F284629614F
:1015700064652068656967687420666F72204265DB
:1015800064204C6576656C20436F72726563746984
:101590006F6E206E6F7420706C61757369626C651C
:1015A0002E0A0A003F43616E2774206163746976D6
:1015B00061746520616E642064656163746976613D
:1015C0007465206174207468652073616D65207492
:1015D000696D652E0A0A00496E76616C696420594E
:1015E000206C6F636174696F6E20737065636966E8
:1015F0006965642E0A0A00496E76616C6964205838
:10160000206C6F636174696F6E20737065636966C7
:101610006965642E0A0A00426F74682058202620EB
:1016200059206C6F636174696F6E73206D7573748C
:10163000206265207370656369666965642E0A0AB5
:1016400000496E76616C696420677269642070720B
:101650006F626520706F696E747320737065636963
:10166000666965642E0A0A003F2856296572626F12
:101670007365204C6576656C20697320696D706CAC
:1016800061757369626C652028302D34290A0A005F
:101690003F285229657065746974696F6E20636FA5
:1016A000756E7420696E76616C69642028312B290F
:1016B0002E0A0A00446F696E67204732392055426E
:1016C0004C2100736176655F55424C5F61637469BC
:1016D00076652829206572726F7200736176655F86
:1016E00075626C5F6163746976655F73746174655C
:1016F0005F616E645F64697361626C656428292050
:1017000063616C6C6564206D756C7469706C6520C8
:1017100074696D657320696E206120726F772E0A7F
:1017200000726573746F72655F55424C5F616374DC
:101730006976652829206572726F7200726573740C
:101740006F72655F75626C5F6163746976655F7304
:10175000746174655F616E645F6C6561766528298C
:101760002063616C6C656420746F6F206D616E79AD
:101770002074696D65732E0A0073616E6974792037
:10178000636865636B73207061737365642E0A0010
:101790000A4D4553485F595F444953542020202047
:1017A00020202020000A4D4553485F585F4449538C
:1017B000542020202020202020000A55424C5F4D3C
:1017C0004553485F4D41585F59202020202020205C
:1017D0002020000A55424C5F4D4553485F4D41580B
:1017E0005F58202020202020202020000A55424C35
:1017F0005F4D4553485F4D494E5F592020202020C2
:1018000020202020000A55424C5F4D4553485F4D33
:10181000494E5F58202020202020202020000A4709
:101820005249445F4D41585F504F494E54535F59A0
:101830002020000A475249445F4D41585F504F49AC
:101840004E54535F5820200073697A656F6628757F
:10185000626C2E737461746529203A2000206D65D6
:10186000736865732E0A0A00454550524F4D206338
:10187000616E20686F6C642000454550524F4D20CA
:101880006672656520666F722055424C3A20007A78
:101890005F76616C75655B5D5B5D2073697A653A47
:1018A000200073697A656F662875626C29203A207A
:1018B0002000656E64206F6620454550524F4D20D4
:1018C000202020202020202020202020203A20001E
:1018D0004672656520454550524F4D2073706163D7
:1018E00065207374617274732061743A20007562AC
:1018F0006C5F73746174655F726563757273696F31
:101900006E5F63686B203A0075626C5F737461741C
:10191000655F61745F696E766F636174696F6E2075
:101920003A00202073746174653A004B696C6C2036
:1019300070696E206F6E203A00202000592D41788A
:101940006973204D65736820506F696E74732061F0
:10195000743A2000202000582D41786973204D658D
:10196000736820506F696E74732061743A2000753B
:10197000626C2E656570726F6D5F73746172743D19
:10198000007A5F6F66667365743A20007A70726FD2
:1019900062655F7A6F66667365743A2000706C6189
:1019A0006E6E65722E7A5F666164655F68656967F1
:1019B0006874203A200055424C206F626A65637457
:1019C00020636F756E743A2000204C6F616465640B
:1019D0002E004D65736820004E6F204D65736820A2
:1019E0004C6F616465642E0063746976652E0A0A23
:1019F00000496E610053797374656D20566572738A
:101A0000696F6E20312E303020003A20004545505D
:101A1000524F4D2044756D703A0A00206C6F61641E
:101A200065642066726F6D20454550524F4D2061B0
:101A300064647265737320005375627472616374B9
:101A4000696E67204D65736820003F454550524FD1
:101A50004D2073746F72616765206E6F74206176BC
:101A600061696C61626C6520666F72207573652EAA
:101A70000A0A003F4D6573682023207265717569FD
:101A80007265642E0A0A004D6573682045646974A6
:101A90006F7200446F6E652045646974696E6720DB
:101AA0004D6573680A00446F6E652045646974690A
:101AB0006E67204D657368004D65736820456469E5
:101AC00074696E672053746F70706564004174743C
:101AD000656D707420746F2065646974206F66662C
:101AE00020746865206265642E0A0046696E652070
:101AF00054756E696E67204D657368002052002032
:101B0000204D393030204B004C696E6561722041A8
:101B10006476616E63653A0A0020204D38353120C5
:101B20005A005A2D50726F6265204F666673657455
:101B300020286D6D293A0A00204400204900202009
:101B40004D33303420500020440020490020204DE7
:101B50003330312050002044002049002050002024
:101B6000204D333031204500504944207365747452
:101B7000696E67733A0A0020460020420020480040
:101B800020204D3134352053004D617465726961F8
:101B90006C2068656174757020706172616D657428
:101BA0006572733A0A004D4553485F595F44495383
:101BB000542020004D4553485F585F4449535420FA
:101BC00020003D0055424C5F4D4553485F4D415804
:101BD0005F59202028343030202D2028302929003A
:101BE0003D0055424C5F4D4553485F4D41585F584D
:101BF000202028343530202D202835302929003D5B
:101C00000055424C5F4D4553485F4D494E5F59204A
:101C1000202830202B203029003D0055424C5F4DBC
:101C20004553485F4D494E5F582020282D343220BF
:101C30002B2035302900475249445F4D41585F50B1
:101C40004F494E54535F59202000475249445F4D3D
:101C500041585F504F494E54535F58202000206D2B
:101C600065736865732E0A0A00454550524F4D2032
:101C700063616E20686F6C6420007A5F6F666673C4
:101C800065743A200063746976650A0A4163746971
:101C90007665204D65736820536C6F743A20004957
:101CA0006E61000A55424C2069732000205A0020C2
:101CB000204D343230205300556E696669656420CA
:101CC000426564204C6576656C696E673A0A00204F
:101CD0005A0020590020580020204D32313820541D
:101CE00000486F74656E64206F6666736574733A3E
:101CF0000A00205A0020590020204D32303620584A
:101D000000486F6D65206F66667365743A0A00203F
:101D10004500205A0020590020580020420020543D
:101D20000020204D323035205300416476616E63CF
:101D300065643A20533C6D696E5F666565647261E7
:101D400074653E20543C6D696E5F74726176656C9B
:101D50005F66656564726174653E20423C6D696EC4
:101D60005F7365676D656E745F74696D655F6D73D4
:101D70003E20583C6D61785F78795F6A65726B3E92
:101D8000205A3C6D61785F7A5F6A65726B3E2045D0
:101D90003C6D61785F655F6A65726B3E0A00205436
:101DA0000020520020204D32303420500041636327
:101DB000656C65726174696F6E2028756E697473E5
:101DC0002F7332293A20503C7072696E745F6163E0
:101DD00063656C3E20523C726574726163745F612E
:101DE0006363656C3E20543C74726176656C5F6120
:101DF0006363656C3E0A00204500205A00205900AC
:101E000020204D3230312058004D6178696D756D5C
:101E100020416363656C65726174696F6E2028751B
:101E20006E6974732F7332293A0A00204500205AD4
:101E30000020590020204D3230332058004D617869
:101E4000696D756D206665656472617465732028BF
:101E5000756E6974732F73293A0A00204500205A61
:101E60000020590020204D393220580053746570ED
:101E7000732070657220756E69743A0A0020204DD7
:101E80003230302044300A0020204D32303020548F
:101E90003120440020204D3230302044002044695D
:101EA0007361626C65640A0046696C616D656E748D
:101EB0002073657474696E67733A0020204732316D
:101EC000203B20556E69747320696E206D6D0A0A7F
:101ED000007A5F6D696E3A2000795F6D61783A2013
:101EE00000785F6D61783A2000785F6D696E3A2006
:101EF000005265706F7274696E6720656E647374EA
:101F00006F70207374617475730A0045787472750C
:101F1000646572320045787472756465723100458B
:101F200078747275646572004D6F7665205A004D45
:101F30006F76652059004D6F7665205800507265A8
:101F40007061726500526573746F726520666169B5
:101F50006C73616665004C6F6164206D656D6F72B6
:101F6000790053746F7265206D656D6F72790046EC
:101F7000696C616D656E74004D6F74696F6E0054AD
:101F8000656D7065726174757265004D61696E0092
:101F9000507265686561742041425320636F6E66BC
:101FA000005072656865617420504C4120636F6E0B
:101FB00066005049442D44005049442D4400504986
:101FC000442D49005049442D49005049442D5000AA
:101FD0005049442D500020082046616374002008B9
:101FE0002046616374002008204D6178002008209D
:101FF0004D6178002008204D6178002008204D694F
:102000006E002008204D696E002008204D696E008A
:102010004F6666004F6E20004175746F74656D7079
:102020000046616E20737065656420320046616E03
:1020300020737065656420320046616E20737065A0
:10204000656420310046616E2073706565642031DF
:102050000042656400426564004E6F7A7A6C6520C8
:1020600032004E6F7A7A6C652032004E6F7A7A6C4D
:10207000652031004E6F7A7A6C65203100436F6EB7
:1020800074726F6C0053746F7265206D656D6F7242
:10209000790042656400426564004E6F7A7A6C652F
:1020A000004E6F7A7A6C650046616E2073706565CC
:1020B000640046616E2073706565640054656D70E0
:1020C000657261747572650050726568656174202F
:1020D0004142532042656400507265686561742016
:1020E00041425320416C6C005072656865617420F8
:1020F00041425320456E6420453200507265686548
:1021000061742041425320320050726568656174E9
:102110002041425320456E6420453100507265686D
:1021200065617420414253203100507265706172C4
:1021300065004732380A47323900473239004C656A
:1021400076656C206265640043616E63656C004D6A
:10215000343238004D323830205030205331363050
:1021600000526573657420424C546F756368004D6E
:10217000323830205030205331323000424C546FCE
:102180007563682053656C662D54657374005072D6
:1021900065686561742041425300507265686561ED
:1021A0007420504C4100436F6F6C646F776E004D2C
:1021B00038340044697361626C65207374657070B3
:1021C0006572730053657420686F6D65206F666675
:1021D00073657473004C6576656C20626564004DB0
:1021E00035004C61736572206F6666004D33004C9C
:1021F00061736572206F6E004D323234004C65643D
:10220000206F6666004D323235004C6564206F6E7B
:1022100000473238004175746F20686F6D65004D5E
:102220006F76652061786973004D61696E004D6F4E
:1022300076652058004D6F76652059004D6F7665A4
:10224000205A00457874727564657232004578745E
:10225000727564657231004D6F766520302E316D78
:102260006D004D6F766520316D6D004D6F76652088
:1022700031306D6D004D6F76652061786973004572
:1022800078747275646572004D6F7665205A004DE2
:102290006F76652059004D6F76652058000000224A
:1022A00000250028002B002E003100340002010020
:1022B00000050108010B0100002000230026002971
:1022C000002C002F0032000001000003010601096C
:1022D0000105050505070508080808020202020AAB
:1022E0000A080804040404010101010101010103B9
:1022F00003030303030303040707070C0C0C0C0C74
:102300000C0C0C0202020206060606060606060B66
:102310000B0B0B0B0B0B0B010210202008081020DD
:102320004010204080020102010804020101020461
:102330000810204080804020100804020180040220
:102340000180402010080402010804020101020477
:102350000810204080010204081020408000000A7C
:102360000B02090C0D0E0807030401000000000019
:10237000000000000000000000000000000000005D
:10238000000000000000000000121110000000001A
:10239000000000000000000000000000000000003D
:1023A0000000004B494C4C45442E2000202D204974
:1023B0006E76616C696420657874727564657220EC
:1023C0006E756D62657220210A002020506C616E6E
:1023D0006E657242756666657242797465733A20FD
:1023E000002046726565204D656D6F72793A200058
:1023F000436F6D70696C65643A204E6F76202034AF
:1024000020323031370A00207C20417574686F72A9
:102410003A20286E6F6E652C2064656661756C7459
:1024200020636F6E666967290A00323031372D30BC
:10243000352D30342031323A303000204C61737405
:1024400020557064617465643A2000200A004D6173
:10245000726C696E0020536F6674776172652052EA
:10246000657365740A00205761746368646F672040
:1024700052657365740A002042726F776E206F7523
:10248000742052657365740A002045787465726E15
:10249000616C2052657365740A00506F77657255E0
:1024A000700A0073746172740A006572726F722030
:1024B00077726974696E6720746F2066696C650A4B
:1024C00000456E6473746F7073202563202563204C
:1024D000256320256300205A3A0020593A002058ED
:1024E0003A00656E6473746F7073206869743A2083
:1024F00000446F6E6520736176696E672066696C53
:10250000652E0A004D3239007C3C3E5E2B3D3F2F4C
:102510005B5D3B2C2A225C0024F4D43050C38E2017
:10252000C2A24017828B7011127A910D816CD90A68
:10253000A861E108C7586607615143061E4B5D0557
:10254000C145A7041A411104093D980371393103AB
:102550004036DB0265339102D4305402802E1D02D6
:10256000632CEE01752AC501B028A0011027810156
:102570008F2564012B244B01E0223401AC211F0183
:102580008D200D01801FFC00841EED00971DDF00D3
:10259000B81CD200E61BC600201BBC00641AB200A7
:1025A000B219A8000A19A0006A189900D117910061
:1025B00040178B00B516840031167E00B3157900E4
:1025C0003A157300C7146F0058146A00EE136600C2
:1025D0008813630025135E00C7125B006C1257005E
:1025E00015125400C111510070114F0021114B0000
:1025F000D61049008D1047004610440002104200DA
:10260000C00F4000800F3E00420F3C00060F3B0011
:10261000CB0E3800930E37005C0E3500270E3400C9
:10262000F30D3200C10D3100900D3000600D2E0011
:10263000320D2D00050D2C00D90C2B00AE0C2900FD
:10264000850C29005C0C2700350C27000E0C260099
:10265000E80B2400C40B2400A00B23007D0B2300F7
:102660005A0B2100390B2100180B2000F80A1F001B
:10267000D90A1E00BB0A1E009D0A1D00800A1D000B
:10268000630A1C00470A1B002C0A1B00110A1A00CF
:10269000F7091A00DD091900C4091900AB0919006E
:1026A000920917007B091800630917004C091600EE
:1026B00036091600200916000A091500F50815004C
:1026C000E0081400CC081400B8081400A408140092
:1026D000900813007D0812006B08130058081200C0
:1026E00046081200340811002308110012081100D6
:1026F00001081100F0071000E0071000D0071000DB
:10270000C0071000B0070F00A107100091070E00CE
:1027100083070F0074070F0065070E0057070E00B0
:1027200049070E003B070D002E070E0020070D0085
:1027300013070D0006070D00F9060C00ED060D004D
:10274000E0060C00D4060C00C8060C00BC060C0009
:10275000B0060C00A4060B0099060C008D060B00B9
:1027600082060B0077060B006C060B0061060A0060
:1027700057060B004C060A0042060A0038060A00FB
:102780002E060A0024060A001A060A00100609008E
:1027900007060A00FD050900F4050900EB0509001C
:1027A000E2050900D9050900D0050900C70509009F
:1027B000BE050900B5050800AD050800A50509001E
:1027C0009C050800940508008C0508008405080095
:1027D0007C050800740508006C0507006505080005
:1027E0005D050700560508004E0507004705070070
:1027F0004005080038050700310507002A050700D5
:10280000230507001C050600160507000F05070035
:102810000805060002050700FB040600F504070092
:10282000EE040600E8040600E2040700DB040600EC
:10283000D5040600CF040600C9040600C304060040
:10284000BD040600B7040600B1040500AC04060090
:10285000A6040600A00405009B04060095040500DC
:10286000900406008A040500850405008004060023
:102870007A04050075040500700405006B0405006A
:1028800066040500610405005C04050057040500AA
:10289000520405004D0405004804050043040500EA
:1028A0003E0404003A040500350405003004040029
:1028B0002C04050027040400230405001E04040062
:1028C0001A04040016040500110404000D04040099
:1028D000090405000404040000040400FC030400CF
:1028E000F8030400F4030400F0030400EC03040004
:1028F000E8030400E4030400E0030400DC03040034
:10290000D8030400D4030400D0030400CC03040063
:10291000C8030300C503030024F404D9201BC40C1E
:102920005C0E9804C4095F0265077101F405F900A3
:10293000FB04B30048048700C10369005803550035
:1029400003034500BE023A008402310053022A000C
:102950002902250004022000E4011C00C80119001E
:10296000AF011700980114008401130071011000D9
:102970006101100051010E0043010D0036010B00F2
:102980002B010B0020010B00150109000C010900AF
:1029900003010800FB000800F3000800EB0007003B
:1029A000E4000600DE000600D8000600D2000600A3
:1029B000CC000500C7000500C2000500BD000400F2
:1029C000B9000400B5000400B1000400AD0004002B
:1029D000A9000400A5000300A20003009F0004005A
:1029E0009B00030098000300950002009300030081
:1029F000900003008D0002008B000300880002009D
:102A00008600020084000300810002007F000200B3
:102A10007D0002007B0002007900020077000100C7
:102A200076000200740002007200010071000200D2
:102A30006F0002006D0001006C0002006A000100DE
:102A400069000200670001006600010065000100E6
:102A500064000200620001006100010060000100EA
:102A60005F0002005D0001005C0001005B000100EE
:102A70005A000100590001005800010057000100F0
:102A800056000100550001005400010053000000F1
:102A900053000100520001005100010050000100EC
:102AA0004F0001004E0000004E0001004D000100EB
:102AB0004C0001004B0000004B0001004A000100E7
:102AC00049000100480000004800010047000100E3
:102AD00046000000460001004500000045000100DE
:102AE00044000100430000004300010042000000D8
:102AF00042000100410000004100010040000100CF
:102B00003F0000003F0001003E0000003E000100C9
:102B10003D0000003D0001003C0000003C000000C2
:102B20003C0001003B0000003B0001003A000000B7
:102B30003A000100390000003900010038000000AF
:102B400038000000380001003700000037000100A5
:102B5000360000003600000036000100350000009D
:102B60003500000035000100340000003400000092
:102B70003400010033000000330000003300010086
:102B8000320000003200000032000100310000007D
:102B90003100000031000100300000003000000072
:102BA000300001002F0000002F0000002F00000067
:102BB0002F0001002E0000002E0000002E0001005A
:102BC0002D0000002D0000002D0000002D00010050
:102BD0002C0000002C0000002C0000002C00010044
:102BE0002B0000002B0000002B0000002B00010038
:102BF0002A0000002A0000002A0000002A0001002C
:102C00002900000029000000290000002900000020
:102C10002900010028000000280000002800000012
:102C20002800000028000100270000002700000005
:102C300027000000270000002700010026000000F8
:102C400026000000260000002600000026000100EB
:102C500025000000250000002500000025000000E0
:102C600025000000250001002400000024000000D1
:102C700024000000240000002400010023000000C4
:102C800023000000230000002300000023000000B8
:102C900023000000230001002200000022000000A9
:102CA000220000002200000022000000220001009B
:102CB0002100000021000000210000002100000090
:102CC0002100000021000000210001002000000080
:102CD0002000000020000000200000002000000074
:102CE0002000000020000000200001001F00000064
:102CF0001F0000001F0000001F0000001F00000058
:102D00001F0000001F0001001E0000001E00000048
:102D10001E0000001E0000004D38342058205920AD
:102D20005A2045002020202E2020004E414E000A2F
:102D300042656420546F706F6772617068792052C9
:102D400065706F72743A0A0A00005A2D4F666673F6
:102D500065742053746F70706564000A5A2D4F6655
:102D6000667365742041646A7573746D656E742052
:102D700053746F707065642E0A00446F6E652E0A7E
:102D80000A003F557365203020746F20003F454591
:102D900050524F4D2073746F72616765206E6F746F
:102DA00020617661696C61626C6520666F72207566
:102DB00073652E0A0A002C20592000203B20582041
:102DC00000205A2000204A20004D34323120492072
:102DD000004732392049203939390A00446F6E657D
:102DE0002E0A0A003F454550524F4D2073746F72B2
:102DF000616765206E6F7420617661696C61626CD9
:102E00006520666F72207573652E0A0A0047323995
:102E10002050322066696E69736865640A003F4518
:102E200072726F7220696E20427573696E6573737A
:102E30002043617264206D6561737572656D656EA6
:102E4000742E0A0A004D616E75616C6C7920707287
:102E50006F62696E6720756E726561636861626C2E
:102E600065206D657368206C6F636174696F6E7344
:102E70002E0A0A00290A0A0050726F62696E6720E2
:102E80004D65736820506F696E747320436C6F7367
:102E900065737420746F2028004D65736820696E17
:102EA00076616C6964617465642E2050726F62692A
:102EB0006E67206D6573682E0A0A004D6573682081
:102EC0007A65726F65642E0A0A00496E76616C69D4
:102ED000642050686173652076616C75652E2028CA
:102EE000302D34290A0A004552524F52202D2067B6
:102EF0007269642073697A65206D757374206265E8
:102F0000206265747765656E203220616E642039B9
:102F10000A004C6F6164696E6720746573745F703A
:102F200061747465726E2076616C7565732E0A0A21
:102F300000496E76616C696420746573745F7061BA
:102F4000747465726E2076616C75652E2028302D44
:102F500032290A0A004C6F636174696F6E732069CD
:102F60006E76616C6964617465642E0A0A00456E50
:102F700074697265204D65736820696E76616C694D
:102F800064617465642E0A0A0077697468204D359F
:102F900030322C204D3530302C204D3530312069E9
:102FA0006E2074686174206F726465722E0A0A0064
:102FB0003F596F75206E65656420746F20656E6182
:102FC000626C6520796F757220454550524F4D20D7
:102FD000616E6420696E697469616C697A652069E3
:102FE000740A004572726F722077726974696E6735
:102FF00020746F20454550524F4D210A00206279C0
:10300000746573290A0053657474696E677320537D
:10301000746F72656420280055424C205379737494
:10302000656D20726573657428290A00206C6F61D4
:103030006465642066726F6D2073746F726167657A
:103040002E0A004D65736820000A556E6966696531
:103050006420426564204C6576656C696E672073F8
:10306000797374656D20696E697469616C697A65DC
:10307000642E0A0A003F556E61626C6520746F20F1
:10308000656E61626C6520556E6966696564204293
:103090006564204C6576656C696E6720737973741E
:1030A000656D2E0A00616374697665210A002055FA
:1030B000424C2000454550524F4D20636865636B7C
:1030C00073756D206D69736D617463680A002062A9
:1030D00079746573290A002073746F7265642073B4
:1030E000657474696E67732072657472696576655C
:1030F00064202800204D61726C696E3D563337297B
:103100000A0028454550524F4D3D00454550524F0D
:103110004D2076657273696F6E206D69736D617491
:103120006368200048617264636F6465642044656D
:103130006661756C742053657474696E6773204C96
:103140006F616465640A006265640A002C2073790B
:103150007374656D2073746F7070656421204865A9
:10316000617465725F49443A200048656174696E14
:1031700067206661696C65640048656174696E67A3
:10318000206661696C65640048656174696E6720DA
:103190006661696C65640048656174696E67206684
:1031A00061696C65640070012C0190012701B00118
:1031B0002201C0011D01F0011801100213013002AB
:1031C0000E016002090190020401C002FF00000329
:1031D000FA004003F5008003F000D003EB00200468
:1031E000E6007004E100E004DC004005D700C00503
:1031F000D2004006CD00D006C8008007C3003008CA
:10320000BE00F008B900C009B400B00AAF00B00BAE
:10321000AA00D00CA500000EA000500F9B00C0100B
:1032200096005012910000148C00C0158700B01752
:103230008200B0197D00D01B7800001E7300402072
:103240006E0090226900F024640040275F009029FE
:103250005A00E02B5500102E500020304B00103249
:103260004600E033410090353C001037370070389D
:103270003200A0392D00B03A2800A03B2300603C6A
:103280001E00103D1900903D1400103E0F00703ECE
:103290000A00C03E0500003F0000403FFBFF803FAA
:1032A000F6FFC03FF1FF4572723A204D494E54453A
:1032B0004D5020424544004572723A204D494E54CB
:1032C000454D50004D494E54454D5020747269672C
:1032D0006765726564004572723A204D41585445E5
:1032E0004D5020424544004572723A204D41585499
:1032F000454D50004D415854454D502074726967FA
:10330000676572656400206174206F66667365741A
:1033100020004D657368206C6F616465642066727F
:103320006F6D20736C6F7420003F454550524F4DB8
:103330002073746F72616765206E6F7420617661AF
:10334000696C61626C6520746F206C6F6164206DC4
:103350006573682E0A0A003F4E6F206D6573682002
:10336000736176656420696E20454550524F4D2E3D
:10337000205A65726F696E67206D65736820696E8B
:10338000206D656D6F72792E0A0A00206174206FBE
:10339000666673657420004D657368207361766599
:1033A0006420696E20736C6F7420006D20202020D3
:1033B00020202020203A20006A20202020202020C9
:1033C00020203A20006B2020202020202020203A9E
:1033D00020004532454E4420202020203A20002065
:1033E0006D65736820736C6F747320617661696CAE
:1033F00061626C652E0A0A003F454550524F4D20D0
:1034000073746F72616765206E6F74206176616995
:103410006C61626C6520746F206C6F6164206D65F7
:1034200073682E0A0A0043616E6E6F74206F7065B8
:103430006E2073756264697220006563686F3A007C
:10344000544845524D414C2052554E415741590028
:10345000546865726D616C2052756E617761790098
:1034600025753A2530327500253032753A253032CF
:10347000750025756420253032753A253032750087
:103480005A00590058000920000000000000000008
:1034900000000000007FFFE00000000000000000CE
:1034A000000000007000E0000000000000000000CC
:1034B00000000061F8600000000000000000000053
:1034C000000041F8200000000000000000000000A3
:1034D0000040F0200000000000000000000000009C
:1034E00040602000000000000000000000000058C4
:1034F00001A07F80003FC0000000004104005C6329
:10350000A0FBC00079E0000000002082005EF7A070
:10351000F3C00076E0000000002082005EF7A0EB20
:10352000C0007EE0000000004104005C63A07B80DE
:10353000003DC0000000008208005801A07B800010
:103540003BC000000001041000406020FBC0007779
:10355000E00000000104100040F020FBC00070E01B
:103560000000000082080041F820FFC0007FE0005A
:1035700000000041040061F8603F00001F8000006F
:1035800000000000007000E01E00000F00000000BE
:1035900001FFFF807FFFE00C00000600000000013B
:1035A000FFFF80000000000000000000000000009D
:1035B00000007FFFE00000000000000000000000AD
:1035C000007000E0000000000000000000000000AB
:1035D000630C6000000000000000000000000047D5
:1035E0000E200000000000000000000000004F0F4F
:1035F000200000000000000000000000005F0FA09D
:103600000000000000000000000000005E07A07F36
:1036100080003FC000000000410400406020FBC06B
:103620000079E00000000020820040F020F3C0009C
:1036300076E00000000020820040F020EBC0007E19
:10364000E0000000004104004060207B80003DC09D
:10365000000000008208005E07A07B80003BC000E5
:103660000000010410005F0FA0FBC00077E0000025
:1036700000010410004F0F20FBC00070E0000000AC
:1036800000820800470E20FFC0007FE0000000001D
:10369000410400630C603F00001F80000000000038
:1036A00000007000E01E00000F0000000001FFFF9E
:1036B000807FFFE00C0000060000000001FFFF809B
:1036C00000000000060900FE0000000000010900E3
:1036D00008FE000005080806000040F0C888889829
:1036E0007810050808060000C0F88888888888F8DF
:1036F0000505050600012030F83020050808060001
:10370000002070F820202020E00509090600FF2095
:1037100070A8A8B8888870200509090600FFE08015
:10372000C0B0A8283028280509090600FFF8A88895
:1037300088888888A8F8050A0A0600FE205050509C
:103740005088A8A8887003030306000340A0400027
:10375000002100240027002A002D00300033000142
:10376000010000040107010A0146696C2E2044692A
:10377000612E20320046696C2E204469612E203271
:103780000046696C2E204469612E20310046696C28
:103790002E204469612E2031004F6666004F6E2056
:1037A000004520696E206D6D3300416476616E6363
:1037B00065204B00416476616E6365204B00416477
:1037C00076616E6365204B00436F6E74726F6C00A0
:1037D00043616E6E6F7420656E74657220737562DE
:1037E0006469723A2000022E2E004D61696E00530A
:1037F000442063617264206F6B0A006F70656E52C3
:103800006F6F74206661696C65640A00766F6C7511
:103810006D652E696E6974206661696C65640A0065
:10382000534420696E6974206661696C0A00617591
:10383000746F25692E67004D3234004D32332025D8
:10384000730057726974696E6720746F2066696CC3
:10385000653A20006F70656E206661696C65642C46
:103860002046696C653A20006F70656E206661695C
:103870006C65642C2046696C653A200046696C656D
:103880002073656C65637465640A002053697A650A
:103890003A200046696C65206F70656E65643A2059
:1038A000006F70656E206661696C65642C204669E6
:1038B0006C653A20002066696C653A20004E6F778F
:1038C00020002220706F73002220706172656E7478
:1038D0003A2200535542524F5554494E45204341D8
:1038E0004C4C207461726765743A22004B494C4C11
:1038F00045442E2000747279696E6720746F2063CE
:10390000616C6C207375622D67636F6465206669F6
:103910006C6573207769746820746F6F206D616EB9
:1039200079206C6576656C732E204D4158206C654E
:1039300076656C2069733A004572726F723A0000C6
:103940000000000000007F80000000000000000078
:10395000000000000007FFF8000000000000000069
:1039600000000000000FFFFE00000000000000004B
:1039700000000000007FFFFF80000000000000004A
:103980000000000007FFFFFFF00000000000000043
:10399000000000001F800000000000000000000088
:1039A000000000007F000000000000000000000098
:1039B00000000000FE000000000000000000000009
:1039C00000000000FE0000000000000000000000F9
:1039D00000000001FE007FFFFFE00000000000008B
:1039E00000000001FE01FFFFFFE0000000000000FA
:1039F00000000001FE01FFFFFFE0000000000000EA
:103A000000000001FE01FFFFFFE0000000000000D9
:103A100000000001FE01FFFFFFE0000000000000C9
:103A200000000001FE01FFFFFFE0000000000000B9
:103A300000000001FE01FFFFFFE0000000000000A9
:103A400000000001FE01FFFFFFE000000000000099
:103A500000000001FE01FFFFFFE000000000000089
:103A600000000001FE01FFFFFFE000000000000079
:103A700000000001FE000000000000000000000047
:103A800000000001FE000000000000000000000037
:103A900000000001FE000000000000000000000027
:103AA00000000000FE000000000000000000000018
:103AB00000000000FE01FFFFFFE00000000000002A
:103AC00000000000FE01FFFFFFE00000000000001A
:103AD000000000001E01FFFFFF00000000000000CA
:103AE000000000000601FFFFF800000000000000D9
:103AF000000000000101FFFFF000000000000000D6
:103B0000000000000071FFFF000000000000000046
:103B1000000000000009FFF80000000000000000A5
:103B2000000000000007FFF8000000000000000097
:103B30000000000000007F00000000000000000006
:103B40000000000000000000000000000000000075
:103B50000000000000000000000000000000000065
:103B60000000000000000000000000000000000055
:103B70000000000000000000000000000000000045
:103B80000000000000000000000000000000000035
:103B90000000000000000000000000000000000025
:103BA0000000000000000000000000000000000015
:103BB00000FF87F81FF0F0787F80FF0FFE00000005
:103BC00000E01E0F1878F8F871878780E000000089
:103BD00000E018071878F8F871870180E00000000D
:103BE00000FF18071870F9F8FF8701E0E0000000F7
:103BF00000E0180719819FF8F1870180E0000000BC
:103C000000E0180718E19FF8E1878180E0000000DC
:103C100000E01F1E18F18F78E1878780E000000028
:103C2000018007F018718E78FE0078008000000097
:103C30000000000000000000000000000000000084
:103C400020746F6F206C6F6E672065787472757367
:103C5000696F6E2070726576656E7465640A002007
:103C6000636F6C6420657874727573696F6E207011
:103C7000726576656E7465640A0045737465707369
:103C80002F6D6D004573746570732F6D6D005A73E1
:103C9000746570732F6D6D005A73746570732F6D3A
:103CA0006D005973746570732F6D6D005973746571
:103CB00070732F6D6D005873746570732F6D6D0088
:103CC0005873746570732F6D6D00412D7472617639
:103CD000656C00412D74726176656C00412D7265D2
:103CE000747261637400412D726574726163740053
:103CF000416D6178204500416D6178204500416D3E
:103D00006178205A00416D6178205A00416D6178D8
:103D1000205900416D6178205900416D617820582B
:103D200000416D61782058005654726176206D69AB
:103D30006E005654726176206D696E005654726141
:103D400076206D696E00566D696E00566D696E0065
:103D5000566D696E00566D6178204500566D61782C
:103D6000204500566D6178204500566D6178205AD7
:103D700000566D6178205A00566D6178205A0056C1
:103D80006D6178205900566D6178205900566D613B
:103D900078205900566D6178205800566D61782062
:103DA0005800566D617820580056652D6A65726B13
:103DB0000056652D6A65726B0056652D6A65726BDB
:103DC00000567A2D6A65726B00567A2D6A65726BA1
:103DD0000056792D6A65726B0056792D6A65726B93
:103DE0000056792D6A65726B0056782D6A65726B84
:103DF0000056782D6A65726B0056782D6A65726B75
:103E000000416363656C00416363656C005A204F39
:103E10006666736574005A204F6666736574004366
:103E20006F6E74726F6C004261627973746570209A
:103E30005A00466C6F77203200466C6F7720320054
:103E4000466C6F77203100466C6F77203100466CEE
:103E50006F7700466C6F770046616E207370656502
:103E60006420320046616E20737065656420320004
:103E700046616E20737065656420310046616E2076
:103E800073706565642031004265640042656400BA
:103E90004E6F7A7A6C652032004E6F7A7A6C6520AC
:103EA00032004E6F7A7A6C652031004E6F7A7A6CF0
:103EB000652031005370656564005370656564006A
:103EC0004D35004C61736572206F6666004D33009E
:103ED0004C61736572206F6E004D323234004C6558
:103EE00064206F6666004D323235004C6564206F89
:103EF0006E004D61696E0050726568656174205096
:103F00004C4120416C6C00507265686561742050B2
:103F10004C4120456E6420453200507265686561F1
:103F20007420504C412032005072656865617420E5
:103F3000504C4120456E64204531005072656865E3
:103F4000617420504C412042656400507265686580
:103F5000617420504C41203100507265706172656F
:103F60000020746F6F206C6F6E67206578747275B7
:103F700073696F6E2070726576656E7465640A0091
:103F800020636F6C6420657874727573696F6E203E
:103F900070726576656E7465640A00627573793A4D
:103FA0002070617573656420666F7220696E70752C
:103FB000740A00627573793A2070617573656420C4
:103FC000666F7220757365720A00627573793A20A4
:103FD00070726F63657373696E670A004B494C4C6E
:103FE00045442E20004B494C4C2063617573656439
:103FF000206279204B494C4C20627574746F6E2F8F
:1040000070696E0A004B494C4C45442E20004B49C8
:104010004C4C2063617573656420627920746F6F06
:10402000206D75636820696E6163746976652074BC
:10403000696D65202D2063757272656E7420636FE3
:104040006D6D616E643A2000506C6561736520721D
:1040500065736574005052494E5445522048414C96
:10406000544544005072696E7465722068616C74C6
:1040700065642E206B696C6C28292063616C6C650B
:1040800064210A00000028C20000C84300000000AC
:10409000656E7175657565696E6720220053544FB2
:1040A000505045442E20005072696E746572207322
:1040B000746F707065642064756520746F2065721C
:1040C000726F72732E20466978207468652065725D
:1040D000726F7220616E6420757365204D393939B5
:1040E00020746F20726573746172742E2028546579
:1040F0006D70657261747572652069732072657385
:1041000065742E205365742069742061667465722D
:104110002072657374617274696E67290A00576151
:10412000726E696E673A20486F6D696E67204275DE
:104130006D702044697669736F72203C20310A00EB
:104140000000A0400000A040000000400000F64336
:104150000000C8430000FA43FF01FF5374616E641E
:1041600061726420446576696174696F6E3A2000FB
:104170004D65616E204D6573682048656967687498
:104180003A200023206F662073616D706C65733A6E
:104190002000417474656D707420746F2070726FAC
:1041A0006265206F666620746865206265642E0A09
:1041B000000A4D657368206F6E6C792070617274AF
:1041C00069616C6C7920706F70756C617465642EB8
:1041D0000A0A00200A004420636F6E7374616E74D3
:1041E0003A2000726F746174696F6E206D61747231
:1041F00069783A005D0A0062656420706C616E65E2
:10420000206E6F726D616C203D205B0020616E64DA
:104210002074616B652061206D6561737572656DD9
:10422000656E742E0A006D6D20746869636B2E0ACA
:1042300000427573696E657373204361726420690F
:10424000733A200052656D6F7665207368696D0062
:10425000506C616365207368696D20756E6465726A
:10426000206E6F7A7A6C65004D65736820506F69B7
:104270006E74204D656173757265642061743A20B7
:10428000000A4D657368206F6E6C792070617274DE
:1042900069616C6C7920706F70756C617465642EE7
:1042A0000A00417474656D707420746F2070726FB1
:1042B0006265206F666620746865206265642E0AF8
:1042C000005D0A0062656420706C616E65206E6F2F
:1042D000726D616C203D205B002020443D00202059
:1042E000423D004C534620526573756C74732041F7
:1042F0003D002D2D2D2D2D2D2D2D2D2D2D2D2D0038
:104300002029202020002C20002C20002C20002000
:104310002920202064657374696E6174696F6E3D35
:104320002820002C20002C20002C200020202020E1
:1043300063757272656E743D2820002020206670BF
:104340006D6D3D0000000041000010420000804201
:104350000000B8420000F042000014430000304367
:1043600000004C430000684300008243000090437B
:1043700000009E430000AC430000BA430000C84365
:104380000000D6432C79693D002C78315F693D00EF
:104390003F20696E207A5F636F7272656374696F24
:1043A0006E5F666F725F785F6F6E5F686F72697A5B
:1043B0006F6E74616C5F6D6573685F6C696E6528A4
:1043C0006C78303D00000000004992E4414992645D
:1043D00042B76DAB424992E4426EDB0E43B76D2BA0
:1043E000430000484349926443499280436EDB8E08
:1043F0004392249D43B76DAB43DBB6B9430000C87D
:10440000432449D6432C2079693D002C2078315F24
:10441000693D003F20696E206765745F7A5F636F56
:104420007272656374696F6E5F616C6F6E675F76E1
:104430006572746963616C5F6D6573685F6C696EEA
:10444000655F61745F73706563696669635F78282F
:104450006C79303D004D32383020503020533930A7
:104460000053746F7720424C546F756368004D326F
:10447000383020503020533130004465706C6F79F3
:1044800020424C546F756368004D323830205030F4
:10449000205331323000424C546F756368205365AD
:1044A0006C662D54657374004D32383020503020C6
:1044B0005331363000526573657420424C546F7529
:1044C0006368004D61696E005072696E74206162AC
:1044D0006F72746564004E6F205344206361726490
:1044E000005072696E742066726F6D2053440053E1
:1044F000746F70207072696E7400526573756D65AB
:10450000207072696E7400506175736520707269F5
:104510006E7400436F6E74726F6C005072657061E0
:1045200072650054756E6500424C546F7563680087
:10453000496E666F2073637265656E0042616279D1
:104540007374657070696E67205A005A2D4F6666E5
:104550007365743A20003F4E6F20454550524F4DD1
:104560002073746F7261676520617661696C616246
:104570006C6520666F722061206D657368206F66C0
:1045800020746869732073697A652E0A0A004D34B5
:104590003231207265717569726564207061726173
:1045A0006D6574657273206D697373696E670A0057
:1045B0004D65736820706F696E742063616E6E6FF5
:1045C00074206265207265736F6C7665640A004FB3
:1045D000666673657473206170706C69656400450C
:1045E00072723A20546F6F206661722100546F6FAF
:1045F000206661722066726F6D20726566657265F5
:104600006E636520706F696E740A00416374697629
:10461000652045787472756465723A20004E6F208B
:104620006D6F7665206F6E20746F6F6C6368616E5E
:1046300067650A00526573656E643A20006F6B000F
:10464000D400CC0011241FBECFEFD1E2DEBFCDBF1E
:1046500000E00CBF14E0A0E0B2E0E0E3F9E902E022
:104660000BBF02C007900D92A83CB107D9F72AE111
:10467000A8ECB4E001C01D92AC30B207E1F713E240
:10468000C1E2D3E200E006C021970109802FFE01BC
:104690000F94FA4BC032D10780E00807A9F70F94B6
:1046A000FB350D94874C0C9400002F923F924F9253
:1046B0005F926F927F928F929F92AF92BF92CF92B2
:1046C000DF92EF92FF920F931F93CF93DF93CDB7BB
:1046D000DEB7CD55D1090FB6F894DEBF0FBECDBF02
:1046E0008091A60720E6829FC00111248A5D994F20
:1046F000909386158093851580917A1580FF1BC055
:10470000EAE3F4E384918F010F5F1F4F882321F0C8
:104710000E941C44F801F6CF009185151091861572
:10472000D8018D918D01882319F00E941C44F8CF87
:104730008AE00E941C44E0918515F09186158081E5
:10474000803231F43196F0938615E0938515F3CFDE
:104750008E3469F010918515009186156AE270E03B
:10476000812F902F0F944F4C009721F52AC0818103
:1047700090ED980F9A3010F08D3261F73296F093E9
:104780008615E0938515E0918515F0918615808159
:1047900080538A3010F43196F2CFE0918515F09174
:1047A000861580818032B1F63196F0938615E093BC
:1047B0008515F3CFFC0131968291803231F08A3237
:1047C00021F0A12FB02F9D9102C01082F5CFFD01E5
:1047D000808111968032D9F380538A3020F0EAE349
:1047E000F4E30C94493B20E030E06AE0629FA001D2
:1047F000639F500D11249A01205331098191280F94
:10480000311D87FD3A95808180538A3078F38F017E
:104810003196D8018C918032D1F31093E10400934A
:10482000E00441E050E05093900540938F059D34A3
:1048300009F4DEC6943511F40C945D3A973411F006
:104840000C94813A2C31310509F45FC578F4243099
:10485000310530F4809156022230310500F129C033
:104860002430310509F413C50C94403B2A35310539
:1048700009F407C650F42D31310509F44AC52E312B
:10488000310509F44AC50C94403B2B35310509F438
:10489000FCC52C35310509F4FDC50C94403B88233B
:1048A00011F40C94403B0E9457410E9436E70C944F
:1048B000403B882311F40C94403B11E02230310539
:1048C00009F010E00E94574182E50E94C940882308
:1048D00009F42AC10E942E416B017C014090D01145
:1048E0005090D1116090D2117090D3112091D411B9
:1048F0003091D5114091D6115091D7112AA33BA3E5
:104900004CA35DA38091A5159091A615A091A71524
:10491000B091A8158EA39FA3A8A7B9A72091A91508
:104920003091AA154091AB155091AC152AAB3BAB19
:104930004CAB5DAB20E030E0A901C701B6010F949C
:10494000AD44882309F489C4A30192016EA17FA11B
:1049500088A599A50F94AD4481110DC02AA13BA152
:104960004CA15DA16AA97BA98CA99DA90F94AD4416
:10497000882309F472C420E030E0A901C701B60120
:104980000F94AD44881F8827881F181309C080E042
:1049900090E0A0E8BFE38AAF9BAFACAFBDAF08C06B
:1049A00020E030E040E85FEB2AAF3BAF4CAF5DAFBB
:1049B000A30192016EA17FA188A599A50F94FE483D
:1049C0006EA77FA788AB99AB2AA13BA14CA15DA1A3
:1049D0006AA97BA98CA99DA90F94FE486EAB7FABF9
:1049E00088AF99AF2EA53FA548A959A9CA01B90119
:1049F0000F9412454B015C012EA93FA948AD59AD5A
:104A0000CA01B9010F9412459B01AC01C501B40163
:104A10000F94FF480F946A4B6AA77BA78CA79DA7AA
:104A200020E030E040E05FE30F9412454B015C0171
:104A3000A7019601C701B6010F9412456B017C01D5
:104A4000A5019401C501B4010F9412459B01AC016D
:104A5000C701B6010F94FE480F946A4B9B01AC014D
:104A60006AAD7BAD8CAD9DAD0F9412454B015C01E1
:104A70002EA13FA148A559A5C301B2010F94FF483B
:104A800020E030E040E05FE30F9412456B017C01D1
:104A90006EA97FA988AD99AD90582AA53BA54CA5D4
:104AA0005DA50F94DB499B01AC01C501B4010F94D6
:104AB00012459B01AC01C701B6010F94FF48A30149
:104AC00092010F94FE486B017C012AA93BA94CA9D5
:104AD0005DA96AA17BA18CA19DA10F94FF4820E054
:104AE00030E040E05FE30F9412452B013C012AA522
:104AF0003BA54CA55DA56EA57FA588A999A90F9496
:104B0000DB499B01AC01C501B4010F9412459B0127
:104B1000AC01C301B2010F94FF482AA13BA14CA1F3
:104B20005DA10F94FE4814C089E40E94C940882307
:104B300029F00E942E416B017C0103C0C12CD12CB5
:104B400076018AE40E94C9408823D9F00E942E4150
:104B50006AAB7BAB8CAB9DAB20E030E0A901C70119
:104B6000B6010F94AD4481111AC020E030E0A901D4
:104B70006AA97BA98CA99DA90F94AD4481110FC08E
:104B80006CC320E030E0A901C701B6010F94AD4429
:104B9000882309F462C31AAA1BAA1CAA1DAAD7015A
:104BA000C601B0588AA39BA3ACA3BDA32AA93BA965
:104BB0004CA95DA950582EA33FA348A759A79C0113
:104BC000AD01BC01CD010F9412454B015C012EA13A
:104BD0003FA148A559A5CA01B9010F9412459B01EF
:104BE000AC01C501B4010F94FF480F946A4B629663
:104BF0006CAF7DAF8EAF9FAF62978091D0119091D7
:104C0000D111A091D211B091D3118AA79BA7ACA7C3
:104C1000BDA7A7019601BC01CD010F94FF486AAF63
:104C20007BAF8CAF9DAF2091D4113091D5114091C5
:104C3000D6115091D7112EAB3FAB48AF59AF2AA92F
:104C40003BA94CA95DA96EA97FA988AD99AD0F9428
:104C5000FF4822966CAF7DAF8EAF9FAF22978091B9
:104C6000A5159091A615A091A715B091A815269607
:104C70008CAF9DAFAEAFBFAF26972AAD3BAD4CAD6D
:104C80005DADBC01CD010F94FE486B017C0120910C
:104C9000A9153091AA154091AB155091AC152A96E3
:104CA0002CAF3DAF4EAF5FAF2A9722962CAD3DADF6
:104CB0004EAD5FAD22972A966CAD7DAD8EAD9FADAA
:104CC0002A970F94FE484B015C018091D811909176
:104CD000D911A091DA11B091DB112E968CAF9DAF56
:104CE000AEAFBFAF2E979C01AD016091AD15709135
:104CF000AE158091AF159091B0150F94FE486EA738
:104D00007FA788AB99AB2091B1153091B215409136
:104D1000B3155091B41566962CAF3DAF4EAF5FAF53
:104D200066978091DC119091DD11A091DE11B09118
:104D3000DF116A968CAF9DAFAEAFBFAF6A97A70188
:104D400096016AA17BA18CA19DA10F9412452B0114
:104D50003C01A50194016EA17FA188A599A50F949E
:104D600012459B01AC01C301B2010F94FF482B0116
:104D70003C01A50194016AA17BA18CA19DA10F9486
:104D800012454B015C01A70196016EA17FA188A588
:104D900099A50F9412459B01AC01C501B4010F9474
:104DA000FE48A30192010F9472496B017C0120E03F
:104DB00030E0A9010F94AD4487FF0AC02BED3FE01E
:104DC00049EC50E4C701B6010F94FF486B017C0128
:104DD000112351F02BED3FE049EC50E4C701B6013F
:104DE0000F94FE486B017C0120E030E0A901C7016F
:104DF000B6010F94AD44811126C026962CAD3DAD71
:104E00004EAD5FAD26976AA57BA58CA59DA50F9499
:104E1000AD44811118C02A962CAD3DAD4EAD5FADAD
:104E20002A976EA97FA988AD99AD0F94AD448111E1
:104E30000AC02BED3FE049EC50E4C701B6010F94E6
:104E4000FF486B017C0162962CAD3DAD4EAD5FAD70
:104E50006297C701B6010F9412459B01AC010F94F4
:104E600012454B015C012EA53FA548A959A9CA01CD
:104E7000B9010F9412459B01AC01C501B4010F9417
:104E8000FF480F946A4B4B015C012FE632E143E887
:104E90005AE30F94AD4487FDDCC1C501B4010F9402
:104EA000744A0F94484A1B01672B19F42224239457
:104EB000312CB10180E090E00F94B1444B015C01D2
:104EC0009B01AC01C701B6010F94DB496AA77BA720
:104ED0008CA79DA7A50194016EA57FA588A999A976
:104EE0000F94DB4962966CAF7DAF8EAF9FAF629738
:104EF0006A962CAD3DAD4EAD5FAD6A9766966CADD2
:104F00007DAD8EAD9FAD66970F94FE48A5019401CF
:104F10000F94DB4966966CAF7DAF8EAF9FAF6697FF
:104F20002AA53BA54CA55DA5CA01B9010F94124560
:104F300020E030E040E05FE30F9412459B01AC01BC
:104F400060E070E080E89FE30F94FE4826966CAF27
:104F50007DAF8EAF9FAF26972E962CAD3DAD4EAD5B
:104F60005FAD2E9729873A874B875C876A968CAD11
:104F70009DADAEADBFAD6A978D879E87AF87B88B6D
:104F80006091E3027091E402072E000C880B990BEC
:104F90000F94B3442091D7023091D8024091D902A6
:104FA0005091DA020F9412452AE037ED43E25CE3B8
:104FB0000F9412452A966CAF7DAF8EAF9FAF2A97A4
:104FC0000E9418D19B01AC0128533F4F4F4F5F4FB8
:104FD0002E962CAF3DAF4EAF5FAF2E974AA05BA091
:104FE0006CA07DA041E050E05FAB4EAB1EA6AEA929
:104FF000BFA9A215B30509F418C10E94CCC20E9432
:1050000018D1DC01CB012E962CAD3DAD4EAD5FAD80
:105010002E97821B930BA40BB50BB7FD10C00E94FB
:1050200018D19B01AC0128533F4F4F4F5F4F2E9635
:105030002CAF3DAF4EAF5FAF2E970F94AA0F3EA59A
:105040003F5F3EA739310CF041C026962CAD3DADF7
:105050004EAD5FAD26976EA17FA188A599A50F944F
:1050600012456B017C012AA53BA54CA55DA5B201AB
:10507000C3010F941245A70196010F94FF486B01DD
:105080007C0126962CAD3DAD4EAD5FAD2697B201AD
:10509000C3010F9412454B015C012AA53BA54CA509
:1050A0005DA56EA17FA188A599A50F9412459B01CE
:1050B000AC01C501B4010F94FE482B013C01C601AF
:1050C000D7018EA39FA3A8A7B9A750C04EA95FA9D7
:1050D000BA0180E090E00F94B1442AA53BA54CA50D
:1050E0005DA50F9412454B015C010F94D8496B01EB
:1050F0007C01C501B4010F94604B4B015C01A70119
:1051000096016AA17BA18CA19DA10F9412452B0150
:105110003C01A50194016AA97BA98CA99DA90F94C2
:1051200012459B01AC01C301B2010F94FF482B0152
:105130003C01A50194016AA17BA18CA19DA10F94C2
:1051400012454B015C01A70196016AA97BA98CA9B4
:105150009DA90F9412459B01AC01C501B4010F94A8
:10516000FE486EA37FA388A799A71EA69201A3015C
:105170006AAD7BAD8CAD9DAD0F94FF4869837A839A
:105180008B839C832EA13FA148A559A522966CAD87
:105190007DAD8EAD9FAD22970F94FF486D837E83CA
:1051A0008F83988762962CAD3DAD4EAD5FAD629713
:1051B00069857A858B859C850F94FF4869877A87F6
:1051C0008B879C8766962CAD3DAD4EAD5FAD6697E7
:1051D0006D857E858F8598890F94FF486D877E87C2
:1051E0008F87988B80913F02882321F0CE01019612
:1051F0000F944E0EC090D8052A96ECACFDAC0EADC7
:105200001FAD2A979E01235F3F4FAE01475F5F4F5F
:10521000BE016B5F7F4FCE0101960E9431FD8EA9CA
:105220009FA901969FAB8EABE2CEC090D8052A967F
:10523000ECACFDAC0EAD1FAD2A9721EB35E14DEA8C
:1052400055E169EA75E185EA95E10E9431FD0E9428
:10525000A6400E94F2430C94403BE8E3F9E38491BA
:105260008F010F5F1F4F882321F00E941C44F8011B
:10527000F6CFE5E1F2E084918F010F5F1F4F8823A5
:1052800011F40C94403B0E941C44F801F4CF80E5DB
:105290000E94C940882329F00E9423416B017C01B0
:1052A00003C0C12CD12C760183E50E94C94088231C
:1052B00021F00E94C6416B017C010E944F910E9427
:1052C000F2438091871590918815A0918915B0912E
:1052D0008A15C80ED91EEA1EFB1E80916702811135
:1052E00005C060E08BE292E00E94815F0E9418D1CD
:1052F000DC01CB018C199D09AE09BF09B7FD02C0C5
:105300000C94403B0F94AA0FF1CF0E9423440C94BD
:10531000403B0E949B9E0C94403B88E50E94C94004
:10532000882319F00E942E410EC020E030E040EEAC
:1053300050E46091D0117091D1118091D21190916F
:10534000D3110F94FE482B013C0189E50E94C9400E
:10535000882319F00E942E410EC020E030E048EE74
:1053600051E46091D4117091D5118091D611909132
:10537000D7110F94FF484B015C0149825A826B821E
:105380007C826D837E838F83988720E030E0A90143
:105390006091E8117091E9118091EA119091EB11FF
:1053A0000F94FF4869877A878B879C87CE01019687
:1053B0000E9455E2082F882311F40C94403B109270
:1053C00002020E94FD4383E50E94C940882319F030
:1053D0000E94F541082FEE24E394F12CA5019401DD
:1053E000C301B2010E94B34B6B017C012CEA35EC86
:1053F00047E257E3C301B2010F94FF48AB01BC0180
:105400008EE392E00F94322C2CEA35EC47E257E31E
:10541000C501B4010F94FF48AB01BC0189E392E0E0
:105420000F94322C2CEA35EC47E257E3C701B60162
:105430000F94FF48AB01BC0184E392E00F94322C3F
:105440008AE00E941C448091CA049091CB04A091F0
:10545000CC04B091CD048093D7029093D802A0934E
:10546000D902B093DA028091C8049091C904909354
:10547000E4028093E3020E94F2430E94594D0C948F
:10548000403B1092DF040C94403B81E08093DF04AA
:105490000C94413B85E40E94C940B82E811102C0A2
:1054A0000E944F912CEF822E22E0922E30EDC32EDF
:1054B00031E1D32E4EECE42E44E0F42E00E010E077
:1054C000A12CF40181914F010E94C9408823E1F190
:1054D000D6012D913D914D915C916B962FAF6B97BD
:1054E0006C963FAF6C976D964FAF6D976E965FAFB2
:1054F0006E970E942E41F6016083718382839383AD
:105500006B962FAD6B976C963FAD6C976D964FADCC
:105510006D976E965FAD6E9703301105A9F00F94ED
:10552000FE489B01AC01D7016D917D918D919C91BD
:105530000F94FF48F7016083718382839383C801CE
:105540000E948C42AA24A3940F5F1F4FF4E0CF0E59
:10555000D11C24E0E20EF11C0430110509F0B1CF9A
:10556000AA2019F00E947C423FC0BB20E9F1C09004
:10557000DC11D090DD11E090DE11F090DF11209170
:105580002615309127154091281550912915C701EE
:10559000B6010F9412450F94304B6093380E709300
:1055A000390E80933A0E90933B0EC092280ED09203
:1055B000290EE0922A0EF0922B0EC701B6010F942D
:1055C000434A2FB7F8946093FA0C7093FB0C8093C6
:1055D000FC0C9093FD0C2FBF1092180E1092190E18
:1055E00010921A0E10921B0E0E94594D0C94403BC3
:1055F0002737310509F46EC608F0DDC02C343105BB
:1056000009F42CC308F069C02731310509F4A7C299
:1056100080F52131310509F455C288F42330310574
:1056200009F422C530F42230310508F4CBC10C94C2
:10563000403B2530310509F43CC50C94403B2431F6
:10564000310509F443C230F42231310509F463C550
:105650000C94403B2531310509F47DC226313105DA
:1056600011F00C94403B1092E40E1092E50E0C9455
:10567000403B2C31310509F4D4C280F42931310585
:1056800009F47FC208F472C22A31310509F47FC2DD
:105690002B31310509F489C20C94403B203231058D
:1056A00009F4CAC268F42E31310509F4C1C22F31A0
:1056B000310511F00C94403B0E94EF530C94403B99
:1056C0002A32310509F4C6C22B34310511F00C948D
:1056D000403B0F94B52E0C94403B2A36310509F41B
:1056E00081C4B0F52435310509F415C5E0F4213540
:1056F000310509F4F1C448F42D34310511F00C944E
:10570000403B0E94DEC40C94403B2235310509F435
:10571000FEC42335310511F00C94403B81E08093A9
:10572000DE040C94413B2C35310509F436C530F4C8
:105730002535310509F41EC50C94403B283631054A
:1057400009F490C22936310509F4F9C30C94403BA1
:105750002F36310509F40EC380F42C36310509F4D7
:105760009FC308F469C42D36310509F405C42E36EB
:10577000310509F4ECC20C94403B2237310509F4A1
:1057800095C550F42037310509F48EC32137310512
:1057900009F492C30C94403B2337310509F48CC5BE
:1057A0002537310511F00C94403B60E0C8010E94A0
:1057B000965F0C94403B2D3241E0340711F40C9479
:1057C0007C3508F07CC02D3C310509F41EC750F52E
:1057D0002E3B310509F4ECC380F42937310509F477
:1057E00084C508F47BC52C38310509F491C32139EF
:1057F000310509F480C50C94403B293C310509F47E
:1058000058C630F4283C310509F4ECC50C94403BF3
:105810002B3C310509F46FC62C3C310509F489C6CF
:105820000C94403B2D3D310511F40C945B3428F56C
:10583000233D310509F48DC7A0F42E3C310511F04C
:105840000C94403BACEFAA2EA2E0BA2EB0EDCB2ECA
:10585000B1E1DB2E19EFE12E15E0F12E00E010E0B2
:105860003FC72A3D310511F40C9441342C3D3105DC
:1058700011F40C944E340C94403B223E310511F44B
:105880000C94743478F4203E310509F415C1213E9E
:10589000310511F00C94403B61E088E00E941C87C8
:1058A0000C94403B283181E0380711F40C94A0346B
:1058B0002C32314011F40C9456350C94403B253A6F
:1058C000A1E03A0711F40C940238A0F52039E1E088
:1058D0003E0711F40C941137C0F42F3241E0340725
:1058E00011F40C940E3710F40C949736203381E0A9
:1058F000380711F40C941A362336314011F00C9409
:10590000403BE8E3F9E30C94383A2239A1E03A0746
:1059100011F40C94183710F40C9414372A39E1E080
:105920003E0709F4C5C2243A314011F40C941C37E7
:105930000C94403B273F41E0340711F40C940B38A2
:10594000F8F4243F81E0380711F40C94053848F44A
:105950002C3A314011F00C94403B0F9416330C94C8
:10596000403B253FB1E03B0711F40C940838263F3B
:10597000314011F00C94403B0E948DAF0C94403BA1
:105980002438F3E03F0711F40C94303978F42D35C6
:1059900052E0350711F40C9475382335334011F07B
:1059A0000C94403BEAE3F4E30C941738203A93E07C
:1059B000390709F445C1273E334011F40C944F3A9E
:1059C0000C94403B80E50E94C940882361F00E940E
:1059D00023416B017C01BB24B394672B682B692B9B
:1059E00031F4B12C04C0B12CC12CD12C760183E54B
:1059F0000E94C940882399F00E94C6416B017C0136
:105A0000B1100FC0672B682B692B59F4F801808106
:105A1000882339F061E0C8010E94965F07C0BB206F
:105A2000A9F360E085E692E00E94815F83E090E068
:105A30009093900580938F0581E0809360050E948C
:105A40004F910E94F243C114D104E104F104E9F042
:105A50008091871590918815A0918915B0918A152C
:105A6000C80ED91EEA1EFB1E0E9418D1DC01CB0114
:105A70008C199D09AE09BF09B7FF1AC08091600556
:105A80008823B1F00F94AA0FEFCF8091600588238F
:105A900019F00F94AA0FF9CF8091E40E60E08823EB
:105AA00019F086E592E002C086E492E00E94815FF0
:105AB000109260050C94403B60E088E00E941C87D7
:105AC0000C94403B0E94F5550C94403BE7E8F2E013
:105AD00084918F010F5F1F4F882321F00E941C4487
